:020000042000DA
:1000000000000120910100207F03002081030020D7
:1000100083030020850300208703002000000000E8
:100020000000000000000000000000008903002024
:100030008B030020000000008D0300208F030020B0
:100040009103002093030020191000203910002094
:10005000990300209B0300209D0300209F030020A4
:10006000A1030020A3030020A5030020A703002074
:10007000A9030020AB030020AD030020AF03002044
:10008000B1030020B3030020B5030020AD0500201C
:10009000B9030020BB030020BD030020BF030020E4
:1000A000C1030020C3030020C5030020A5110020C8
:1000B00099120020CB030020CD030020CF030020A5
:1000C000D1030020D3030020D5030020D703002054
:1000D000D9030020DB030020DD030020DF03002024
:1000E000E1030020E3030020E5030020E7030020F4
:1000F000E9030020EB030020ED030020EF030020C4
:10010000F1030020F3030020F5030020F703002093
:10011000F9030020FB030020FD030020FF03002063
:10012000010400200304002005040020070400202F
:10013000090400200B0400200D0400200F040020FF
:1001400011040020130400201504002017040020CF
:10015000190400201B0400201D0400201F0400209F
:10016000210400202304002025040020270400206F
:10017000290400202B0400202D0400202F0400203F
:1001800031040020330400200000000000000000C3
:100190004FF0000BDFF8BE020068DFF8B612096806
:1001A00001F0030100F01C00142801D14BF0020BF8
:1001B000002901D04BF0010BBBF1000F05D0A7487F
:1001C000A749DFF8722200F09FF8A64880470BF09D
:1001D000020ABAF1000F0CD0DFF86E02DFF86E12DF
:1001E00002680B680FB44FF000024FF0FF0302608B
:1001F0000B609D489D4A9E4B022808D1DFF83E12B5
:100200000A60DFF842120A60DFF836120B6001283C
:1002100008D1DFF82E120A60DFF82A120A60DFF830
:100220001E120B609348002809D193489349944AC1
:1002300000F032F893489449944A00F02DF894481D
:100240009449954A00F028F894489549DFF8E6214A
:1002500000F05AF8BBF1000F12D092489249DFF833
:10026000DA2100F051F80BF0020ABAF1000F07D0C2
:100270000FBC02600B6000BFAFF30080AFF30080E3
:10028000DFF828020FF2030E00474FF000004FF096
:100290000001DFF81CF2FEE72DE9F841884225D085
:1002A000B2EB010200D5FEE740EA010313F00303BD
:1002B00002D000F01DF819E04FF000039046121133
:1002C000F7D09A421CBFF0C8F0C103F10103F8D186
:1002D00008F00F08B8F1000F08D004780C7000F196
:1002E000010001F10101B8F10108F6D1BDE8F88182
:1002F00008B54FF0000303780B7000F1010001F125
:100300000101013AF7D108BD884237D000F0030659
:10031000002E14D04FF00405A5EB06044FF008079B
:1003200007FB06F8914669FA08F9002C07D080F817
:10033000009069FA07F900F10100013CF5E74FF080
:1003400000060F46091A88460911914614461546BB
:10035000B14206D018BFA0E8340206F10106B1424E
:10036000F8D108F00F08B8F1000F07D002704FEA7B
:10037000322200F10100B8F10108F4E77047FEE70E
:10038000FEE7FEE7FEE7FEE7FEE7FEE7FEE7FEE745
:10039000FEE7FEE7FEE7FEE7FEE7FEE7FEE7FEE735
:1003A000FEE7FEE7FEE7FEE7FEE7FEE7FEE7FEE725
:1003B000FEE7FEE7FEE7FEE7FEE7FEE7FEE7FEE715
:1003C000FEE7FEE7FEE7FEE7FEE7FEE7FEE7FEE705
:1003D000FEE7FEE7FEE7FEE7FEE7FEE7FEE7FEE7F5
:1003E000FEE7FEE7FEE7FEE7FEE7FEE7FEE7FEE7E5
:1003F000FEE7FEE7FEE7FEE7FEE7FEE7FEE7FEE7D5
:10040000FEE7FEE7FEE7FEE7FEE7FEE7FEE7FEE7C4
:10041000FEE7FEE7FEE7FEE7FEE7FEE7FEE7FEE7B4
:10042000FEE7FEE7FEE7FEE7FEE7FEE7FEE7FEE7A4
:10043000FEE7FEE7704700000000A2A2A2A2008033
:100440000340088003401080034030800340348024
:1004500003403880034018080240000000F00020EC
:1004600000000120411600200000000000000000F4
:10047000010000000000000000000020000000203B
:1004800090010020C0040020C0040020701900204A
:100490007019002070190020A01D0020A01D002050
:1004A000201F0020201F002000F0002065170020E2
:1004B000F91600200000000000000000000000000D
:1004C00010B5054C237833B9044B13B10448AFF38E
:1004D00000800123237010BDA01D0020000000003B
:1004E00048190020084B10B51BB108480849AFF364
:1004F00000800848036803B910BD074B002BFBD0F0
:10050000BDE81040184700BF000000004819002057
:10051000A41D002070190020000000000160704739
:10052000006870470EB503FA01F303EA020301689D
:100530006FEA020201EA020141EA030101600EBD15
:10054000006800EA020020FA01F07047018070475D
:10055000008870470EB503FA01F303EA020301882D
:100560006FEA020201EA020141EA030101800EBDC5
:10057000008800EA020020FA01F07047017070471D
:10058000007870470EB503FA01F303EA020301781D
:100590006FEA020201EA020141EA030101700EBDA5
:1005A000007800EA020020FA01F0704780B582B0BE
:1005B00000AF0F4B5B68FB710D4B9B68DAB2FB79A8
:1005C0001340FB71FB7903F00203BB71BB79002B75
:1005D00001D000F0E7F8FB7903F001037B717B7930
:1005E000002B01D000F006F80837BD4680BD00BFE3
:1005F0000060014080B584B000AF634B1B78022BD4
:100600003FD0052B6BD0012B40F0AD805F4B1B889A
:100610009BB2002B30D05E4B1A685C4B1B889BB2A0
:100620001046194600F006FAF860584B1B889BB23A
:100630001A46FB689A420FD9544B1B889AB2FB6842
:100640009BB2D31A9AB2514B1A80514B1A68FB686D
:1006500013444F4A13600EE04C4B00221A804D4B5E
:100660001B68002B03D0484B02221A7003E0464B54
:1006700003221A7004E003E000BE00F0B5F97FE049
:100680007EE0444B1B68002B24D0434B1A68414B3F
:100690001B681046194600F0CDF9B8603D4B1B6849
:1006A000BA689A420CD23B4B1A68BB68D31A394AD3
:1006B0001360394B1A68BB681344374A13600DE066
:1006C000364A364B9B6823F0010393602E4B03227E
:1006D0001A7003E000BE00F087F951E050E02D4BA6
:1006E0001B68002B1BD12E4B1B68002B14D02C4BEE
:1006F0001B68294898470246264B1A60254B1B6801
:10070000002B0CD1254A254B9B6823F001039360F5
:100710001D4B03221A7002E000BE00F065F91D4B6C
:100720001B68002B09D11D4A1C4B9B6823F0010359
:100730009360154B03221A7022E0174B1A68154B71
:100740001B681046194600F075F97860114B1A685D
:100750007B68D31A0F4A13600F4B1A687B681344E7
:100760000D4A13600CE00D4A0C4B9B6823F001030B
:100770009360002000F018F9034B00221A7000BFAC
:100780001037BD4680BD00BFE11D0020C41D002004
:10079000C01D0020CC1D0020C81D002000600140AD
:1007A000DC1D002080B584B000AF794B1B69FB8154
:1007B000FB8923F4FF4323F07F03BB81FB89FB729A
:1007C000744B1B78052B00F2D88001A252F823F05D
:1007D000E907002065090020650900204108002084
:1007E0008F08002039090020BB89002B27D0FB7A15
:1007F000F12B06D0FB7ABB72BB7A184600F04CF99D
:100800001DE0654B00221A80644B1B68624A128807
:1008100092B21344FA7A1A705F4B1B889BB2013371
:100820009AB25D4B1A805D4B1B685B4A128892B28C
:10083000134400221A70574B04221A70A4E0A3E05C
:10084000BB89002B22D0FB7A7B72554B1B78DBB225
:100850007A7A9A4215D1504B00221A804F4B1B686E
:100860004D4A128892B213447A7A1A704A4B1B8806
:100870009BB201339AB2484B1A80464B04221A703D
:1008800004E07B7A184600F007F97DE07CE0BB8944
:10089000002B06D0FB7A3B723B7A184600F0FCF83E
:1008A00049E03E4B1A683C4B1B889BB2013B13440A
:1008B0001B78F12B16D1394B1B68374A128892B23C
:1008C0001344FA7A1A70354B1A68334B1B889BB263
:1008D000013B13441B78184600F0DEF82D4B002234
:1008E0001A7028E02C4B1B889AB22E4B1B889A4218
:1008F00010D2FB7AFB71294B1B68274A128892B2EF
:100900001344FA791A70244B1B889BB201339AB2B4
:10091000214B1A80204B1B889AB2224B1B889A428B
:1009200009D11D4B1B889BB2184600F03DF8194BAE
:1009300000221A7028E027E0BB89002B0BD1174B4F
:100940001B680133FA7A1A70022000F02DF8114B5F
:1009500000221A7018E0FB7ABB71BB79184600F0D0
:100960009BF811E0BB89002B06D0FB7A7B717B7969
:10097000184600F091F807E006E0002000F014F8B7
:10098000044B00221A7000BF1037BD4680BD00BF67
:1009900000600140E11D0020D61D0020D01D002078
:1009A000BC1D0020D41D002080B582B000AF0346DE
:1009B000FB800A4B1B68002B0DD0084B1B68084AB4
:1009C0001168FA88084611469847044B00221A60BD
:1009D000044B00221A700837BD4680BDD81D002088
:1009E000D01D0020E01D002080B582B000AF0E4B6E
:1009F0001B78DBB2002B13D00C4B1B889BB2184624
:100A0000FFF7D2FF0A4A0A4B1B6843F00103136049
:100A1000074B1B6803F001037B607B68002BF7D159
:100A20000837BD4680BD00BFE01D0020D61D002058
:100A30000060014080B485B000AF78603960154A2D
:100A4000144B1B6823F0040313600023FB60114B5D
:100A50005B6803F00103BB600DE00E497A68FB6838
:100A600013441B780B61FB680133FB60094B5B6827
:100A700003F00103BB60BB68002B03D0FA683B683E
:100A80009A42EAD3FB6818461437BD465DF8047BEA
:100A9000704700BF0060014080B582B000AF0346E0
:100AA000FB71064B1B68002B04D0044B1B68FA79C2
:100AB000104698470837BD4680BD00BFE41D0020A2
:100AC00080B483B000AF0346FB71094997F9073042
:100AD0005B09FA7902F01F02012000FA02F260338A
:100AE00041F823200C37BD465DF8047B704700BFFA
:100AF00000E100E080B58AB000AF78607B681B68D9
:100B00001B687B627B681B689B693B627B681B6818
:100B10005B68FB617B681B689B6ABB617B681B68C9
:100B20001B6B7B617B681B685B6B3B617B681B6835
:100B3000DB69FB607B68344A93421DD17B68334A92
:100B40001A607B6802221A71314A314B9B6C43F464
:100B5000007393640220FFF7B3FF2D4A2C4B9B6C6C
:100B600023F4007393647B681B687A6812681268C8
:100B700022F000421A601CE07B68264A1A607B68FB
:100B800003221A71224A224B9B6C43F480639364C4
:100B90000320FFF795FF1E4A1D4B9B6C23F48063D7
:100BA00093647B681B687A681268126822F00042BE
:100BB0001A607B6A23F001037B627B681B687A6A98
:100BC0001A607B681B683A6A9A617B681B68FA69DD
:100BD0005A607B681B687A681268126842F00102EA
:100BE0001A607B681B68BA699A627B681B687A69BD
:100BF0001A637B681B683A695A637B681B68FA68EA
:100C0000DA612837BD4680BD8C1E002000100040F0
:100C1000008003400010014080B485B000AF7860D0
:100C20000023FB600DE07B681B687A6891687A6836
:100C300012690A4412785A617B681B695A1C7B68E6
:100C40001A617B681B689B6803F48073002B05D1D5
:100C50007B681A697B68DB689A42E4D37B681A690F
:100C60007B68DB689A421BD30DE07B681B687A685F
:100C700051697A68D2690A4412785A617B68DB69E3
:100C80005A1C7B68DA617B681B689B6803F480737D
:100C9000002B05D17B68DA697B689B699A42E4D3B3
:100CA0007B685B6A002B1DD07B681A697B68DB68F8
:100CB0009A4217D37B68DA697B689B699A4211D3A1
:100CC00006E07B681B6800225A61FB680133FB6009
:100CD0007B681B689B6803F48073002B02D1FB6860
:100CE0001F2BEED91437BD465DF8047B704700BF5B
:100CF00080B584B000AF78607B6893F88030022BB9
:100D000015D10CE07B681B681B69FB607B685B6F1F
:100D1000002B04D07B685B6FFA68104698477B68AD
:100D20001B689B6803F04003002BEBD030E07B682E
:100D300093F88030012B1FD116E07B681B681B697C
:100D4000FB607B681A6B7B68DB6A9A4207D27B6820
:100D50009A6A7B681B6B1344FA68D2B21A707B687C
:100D60001B6B5A1C7B681A637B681B689B6803F0CB
:100D70004003002BE1D00BE003E07B681B681B699C
:100D8000FB607B681B689B6803F04003002BF4D07A
:100D90001037BD4680BD00BF80B586B000AF78601B
:100DA0007B681B6820337B617B686C4A934204D06C
:100DB0007B686B4A934200D000BE7B691B6803F0DE
:100DC0000203002B4FD07B6893F88030022B15D1A3
:100DD0000CE07B681B681B69FB607B685B6F002B0A
:100DE00004D07B685B6FFA68104698477B681B6885
:100DF0009B6803F04003002BEBD030E07B6893F856
:100E00008030012B1FD116E07B681B681B69FB60DB
:100E10007B681A6B7B68DB6A9A4207D27B689A6AA6
:100E20007B681B6B1344FA68D2B21A707B681B6B29
:100E30005A1C7B681A637B681B689B6803F040033D
:100E4000002BE1D00BE003E07B681B681B69FB60B3
:100E50007B681B689B6803F04003002BF4D07B6821
:100E60001B680222DA607B691B6803F00103002B18
:100E700011D07B6893F88030022B05D17B681B680A
:100E80007A68926F5A6102E07868FFF7C5FE7B6866
:100E90001B680122DA607B691B6803F01003002BDA
:100EA00021D07868FFF724FF7B681B6A002B0BD0EA
:100EB0007B681B6A7A68916A7A68126B08461146E9
:100EC00098477868FFF7A8FE7B6801225A627B6822
:100ED0001B687A681268926A22F010029A627B6834
:100EE0001B681022DA607B691B6803F00403002B87
:100EF0000ED07B681B687A681268D26A42F00402DE
:100F0000DA627868FFF7F6FD7B681B680422DA6016
:100F10007B691B6803F00803002B32D07B681B68D9
:100F20007A681268D26A42F00802DA627B6893F843
:100F30008030022B16D17B681A687B681B681B689F
:100F400023F47F0323F47F4343F4807313607B68AF
:100F50001B687A68926F5A610FE000BF8C1E0020F8
:100F6000081E00207B6893F88030012B05D17B6838
:100F700000221A617868FFF74FFE7B681B68082221
:100F8000DA607B691B6803F02003002B41D078688E
:100F9000FFF7AEFE7B681B6B3B617B681B6A002B17
:100FA00017D07B6800225A627B6800225A617B68F6
:100FB00000229A617B680022DA617B681B6810223C
:100FC000DA607B681B687A681268926A42F01002E5
:100FD0009A627B6800221A617B681B687A681268D3
:100FE000D26A42F00C02DA627868FFF715FE7B687D
:100FF00000221A637B68DB6F002B06D07B68DB6FF7
:101000007A68926A1046396998477B681B68202283
:10101000DA601837BD4680BD684620F007018D466E
:1010200089B500AF0348FFF7B7FEBD46BDE889406C
:10103000854670478C1E0020684620F007018D46CB
:1010400089B500AF0348FFF7A7FEBD46BDE889405C
:1010500085467047081E002090B484B000AFF86049
:10106000B9607A60FB704B484B4B1A68F9781346AD
:101070009B001344DB01034403F5E07359604749C7
:10108000454B1A6813469B0013449B000B44FA68B7
:101090005A604249404B1A6813469B0013449B0018
:1010A0000B44BA689A603D483B4B19683B4C3A4B3D
:1010B0001A6813469B0013449B00234408335B6863
:1010C0001A0C12040B469B000B449B00034408338C
:1010D0005A607B68B3F5803F0FD97B68A3F58033F6
:1010E0002F4A1361BB6803F580332D4AD360FB6838
:1010F00003F580332A4A936019E02848264B1A6882
:10110000264C254B19680B469B000B449B0023443F
:1011100008335B68796889B2194313469B0013440E
:101120009B000344083359601D4B00221A611B4881
:10113000194B1A68194C184B19680B469B000B4445
:101140009B00234408335B6843F4E00113469B0093
:1011500013449B000344083359600E490E4B1A6830
:1011600013469B001344DB010B4403F5E07301229B
:101170001A600849084B1A6813469B001344DB01A8
:101180000B4403F5E47300225A601037BD4690BC4F
:10119000704700BF00002842001E002000400140B0
:1011A000E81D0020684620F007018D4691B500AF8C
:1011B000344A354B1B6803F52873012142F823108C
:1011C0003248314B1A68314C2F4B19680B469B0043
:1011D0000B449B00234408335B6823F4E00113466F
:1011E0009B0013449B00034408335960264B1B6843
:1011F0000133254A1360244B1B68042B02D1224B78
:1012000000221A60224B1B69002B17D0214B1B6850
:10121000042B03D11F4B00221A6004E01D4B1B68F6
:1012200001331C4A13601A4B9868194BD968184B44
:101230001A69174B1B7DFFF70FFF1EE01349124B76
:101240001A6813469B0013449B000B4408335B68E9
:1012500003F4E003002B10D10B4B00221A600D4B5E
:1012600000221A600A4B01221A70094B5B68002B9E
:1012700003D0074B5B6801209847BD46BDE891400D
:101280008546704700002842041E002000400140AF
:10129000E81D0020001E0020684620F007018D4652
:1012A00081B583B000AF384B1B683B603B6803F4EB
:1012B00070633B603B68002B2FD03449344B1A6875
:1012C00013469B001344DB010B4403F502731B68B8
:1012D000002B0AD02F4B02221A702E4B5B68002B7A
:1012E00003D02C4B5B68022098472849284B1A688A
:1012F00013469B001344DB010B4403F502735B6848
:10130000002B0AD0234B03221A70224B5B68002B60
:1013100003D0204B5B68032098471B4B1B683B6046
:101320003B6803F470433B603B68002B0AD0194BC9
:1013300004221A70174B5B68002B03D0154B5B68B7
:101340000420984700237B6014E010497A68134614
:101350009B001344DB010B4403F5E47301221A6084
:101360000A4A7B6803F52873012142F823107B6841
:1013700001337B607B68032BE7D90C37BD46BDE8A2
:1013800081408546704700BF004001400000284270
:10139000041E0020E81D002080B584B000AFF86076
:1013A000B9607A603B60FB68BA681A60FB681B68CA
:1013B000083318460021FFF7E1F8FB681B680C337F
:1013C00018460021FFF7DAF8FB681B6818467968B1
:1013D000FFF7A4F83B68002B00D100BEFB681B6838
:1013E000043318463968FFF799F8FB681B68103317
:1013F00018460021FFF792F8FB681B68183318465F
:101400000021FFF78BF8FB681B682033184600218A
:10141000FFF784F8FB681B68283318460021FFF7A4
:101420007DF8FB681B68303318460021FFF776F81B
:10143000FB681B68383318460021FFF76FF8FB681C
:101440001B68403318460021FFF768F8FB681B68EB
:10145000483318460021FFF761F8FB681B685033DA
:1014600018460021FFF75AF8FB681B6858331846E6
:101470000021FFF753F8FB681B6860331846002112
:10148000FFF74CF8FB681B68683318460021FFF72C
:1014900045F8FB681B68703318460021FFF73EF8DB
:1014A000FB681B68783318460021FFF737F8FB68A4
:1014B0001B68803318460021FFF730F8FB681B6873
:1014C000883318460021FFF729F81037BD4680BD44
:1014D00080B584B000AF78600B46FB70FB78002BC2
:1014E00000D100BEFB78102B00D900BEFB78002B8A
:1014F00034D0FB78102B31D8FB781A4AD35CFB73BD
:10150000FB78082B15D87B681B6808331846FFF753
:1015100037F80346BB73BA7BFB7B1343BB737B6813
:101520001B6803F10802BB7B10461946FFF726F83B
:1015300014E07B681B680C331846FFF721F803465C
:10154000BB73BA7BFB7B1343BB737B681B6803F1E4
:101550000C02BB7B10461946FFF710F81037BD464A
:1015600080BD00BFA418002080B58AB000AFF8602D
:101570007A603B600B46FB72FB7A002B00D100BE09
:10158000FB7A102B00D900BEFB681B680433184699
:10159000FEF7C6FF78627A687B6A9A4200D900BE7D
:1015A0003A687B6A9A4200D900BEFB7A002B40D091
:1015B000FB7A102B3DD8FB681A68FB7A1E4951F85C
:1015C0002330134418467968FEF7A8FFFB7A1A4ABD
:1015D00052F823303B62FB681A683B6A1344184692
:1015E000FEF7CEFF0346FB777B68DBB2FA7F9A42B9
:1015F00000D000BEFB681A68FB7A104951F823300E
:10160000134418463968FEF789FFFB7A0B4A52F8F3
:101610002330BB61FB681A68BB6913441846FEF7A8
:10162000AFFF0346FB753B68DBB2FA7D9A4200D000
:1016300000BE2837BD4680BDB8180020FC18002029
:1016400080B500AF00F030F8044A044B5B6943F406
:1016500000735361FEF7EEFE80BD00BF00ED00E0B9
:1016600080B483B000AF0E4BD3F84C313B603B6885
:101670004FF60202934203D00A4A934203D005E098
:1016800001237B6005E002237B6002E000237B6096
:1016900000BF7B6818460C37BD465DF8047B704779
:1016A0000080034002F8010080B582B000AFFFF770
:1016B000D7FF78607B68012B00D002E000F004F8CF
:1016C00000BF0837BD4680BD80B400AF094A094B52
:1016D000D3F8983043F48073C2F89830054A054B2C
:1016E000D3F8983023F08063C2F89830BD465DF897
:1016F000047B70470080034080B500AF174818494D
:1017000001220D23FFF748FE14480121022208237D
:10171000FFF72AFF1148022108220223FFF724FFC6
:101720000E48032100220123FFF71EFF0B4804216E
:1017300001220123FFF718FF08480121FFF7C8FE27
:1017400006480221FFF7C4FE04480321FFF7C0FE4C
:1017500002480421FFF7BCFEFEE700BF101F002077
:101760000020005070B50F4E0F4D761BB61018BFFD
:10177000002405D0013455F8043B9847A642F9D11E
:101780000A4E0B4D00F0E0F8761BB61018BF00248F
:1017900006D0013455F8043B9847A642F9D170BDF4
:1017A00070BD00BF6019002060190020681900207A
:1017B00060190020024B13B1024800F005B87047D1
:1017C00000000000D5170020014600200246034615
:1017D00000F016B838B5084B084DED1AAC1018BF1C
:1017E000ED1805D0013C55F8043D9847002CF9D17F
:1017F000BDE8384000F0AEB8681900206C19002030
:101800002DE9F047254C064625688846D5F848411D
:1018100092469946C4B360681F2817DC411C76B114
:1018200004EB8003C3F888A0D4F8885101228240D9
:101830001543022EC4F88851C3F808911ED0831CAA
:101840006160002044F82380BDE8F087144B03B3A7
:101850004FF4C870AFF300800446D0B1D5F84831DA
:10186000002784E888003846C5F848410121C4F8BB
:101870008871C4F88C71002EE1D0D1E7D4F88C3196
:101880001A43C4F88C21DAE705F5A674C5F8484177
:10189000C1E74FF0FF30BDE8F08700BF44190020DA
:1018A0000000000000010204081020408001020432
:1018B0000810204080000000000000001000000020
:1018C0001800000020000000280000003000000088
:1018D00038000000400000004800000050000000F8
:1018E0005800000060000000680000007000000068
:1018F0007800000080000000880000000000000068
:10190000140000001C000000240000002C00000057
:10191000340000003C000000440000004C000000C7
:10192000540000005C000000640000006C00000037
:10193000740000007C000000840000008C000000A7
:101940004300000078190020F8B500BFF8BC08BCBF
:101950009E467047F8B500BFF8BC08BC9E4670476D
:10196000B5170020E5040020C1040020000000009D
:10197000000000000000000000000000641C0020C7
:10198000CC1C0020341D00200000000000000000DE
:101990000000000000000000000000000000000047
:1019A00000000000000000000000000040190020BE
:1019B0000000000000000000000000000000000027
:1019C0000000000000000000000000000000000017
:1019D0000000000000000000000000000000000007
:1019E00000000000000000000000000000000000F7
:1019F00000000000000000000000000000000000E7
:101A000000000000000000000000000000000000D6
:101A100000000000000000000000000000000000C6
:101A200001000000000000000E33CDAB34126DE663
:101A3000ECDE05000B0000000000000000000000CC
:101A40000000000000000000000000000000000096
:101A50000000000000000000000000000000000086
:101A60000000000000000000000000000000000076
:101A70000000000000000000000000000000000066
:040000052000019145
:00000001FF
