:1000000000000120910100007F0300008103000037
:100010008303000085030000870300000000000048
:100020000000000000000000000000008903000044
:100030008B030000000000008D0300008F03000010
:100040009103000093030000B50D0000D10D0000E6
:10005000990300009B0300009D0300009F03000024
:10006000A1030000A3030000A5030000A7030000F4
:10007000A9030000AB0300000D190000AF0300004E
:10008000B1030000B3030000B5030000C506000083
:10009000B9030000BB030000BD030000BF03000064
:1000A000C1030000C3030000C5030000910E00005F
:1000B000390F0000CB030000CD030000CF03000088
:1000C000D1030000D3030000D50300001D19000078
:1000D00075190000DB030000DD030000DF030000F2
:1000E000E1030000E3030000E5030000E703000074
:1000F000E9030000EB030000ED030000EF03000044
:10010000F1030000F3030000F5030000F703000013
:10011000F9030000FB030000FD030000FF030000E3
:1001200001040000030400000504000007040000AF
:10013000090400000B0400000D0400000F0400007F
:10014000110400001304000015040000170400004F
:10015000190400001B0400001D0400001F0400001F
:1001600021040000230400002504000027040000EF
:10017000290400002B0400002D0400002F040000BF
:100180003104000033040000000000000000000003
:100190004FF0000BDFF8BE020068DFF8B612096806
:1001A00001F0030100F01C00142801D14BF0020BF8
:1001B000002901D04BF0010BBBF1000F05D0A7487F
:1001C000A749DFF8722200F09FF8A64880470BF09D
:1001D000020ABAF1000F0CD0DFF86E02DFF86E12DF
:1001E00002680B680FB44FF000024FF0FF0302608B
:1001F0000B609D4800220123022808D1DFF83E123F
:100200000A60DFF842120A60DFF836120B6001283C
:1002100008D1DFF82E120A60DFF82A120A60DFF830
:100220001E120B609148002809D191489149924AC9
:1002300000F032F891489249924A00F02DF8924825
:100240009249934A00F028F892489349DFF8E62152
:1002500000F05AF8BBF1000F12D090489049DFF837
:10026000DA2100F051F80BF0020ABAF1000F07D0C2
:100270000FBC02600B6000BFAFF30080AFF30080E3
:10028000DFF820020FF2030E00474FF000004FF09E
:100290000001DFF814F2FEE72DE9F841884225D08D
:1002A000B2EB010200D5FEE740EA010313F00303BD
:1002B00002D000F01DF819E04FF000039046121133
:1002C000F7D09A421CBFF0C8F0C103F10103F8D186
:1002D00008F00F08B8F1000F08D004780C7000F196
:1002E000010001F10101B8F10108F6D1BDE8F88182
:1002F00008B54FF0000303780B7000F1010001F125
:100300000101013AF7D108BD884237D000F0030659
:10031000002E14D04FF00405A5EB06044FF008079B
:1003200007FB06F8914669FA08F9002C07D080F817
:10033000009069FA07F900F10100013CF5E74FF080
:1003400000060F46091A88460911914614461546BB
:10035000B14206D018BFA0E8340206F10106B1424E
:10036000F8D108F00F08B8F1000F07D002704FEA7B
:10037000322200F10100B8F10108F4E77047FEE70E
:10038000FEE7FEE7FEE7FEE7FEE7FEE7FEE7FEE745
:10039000FEE7FEE7FEE7FEE7FEE7FEE7FEE7FEE735
:1003A000FEE7FEE7FEE7FEE7FEE7FEE7FEE7FEE725
:1003B000FEE7FEE7FEE7FEE7FEE7FEE7FEE7FEE715
:1003C000FEE7FEE7FEE7FEE7FEE7FEE7FEE7FEE705
:1003D000FEE7FEE7FEE7FEE7FEE7FEE7FEE7FEE7F5
:1003E000FEE7FEE7FEE7FEE7FEE7FEE7FEE7FEE7E5
:1003F000FEE7FEE7FEE7FEE7FEE7FEE7FEE7FEE7D5
:10040000FEE7FEE7FEE7FEE7FEE7FEE7FEE7FEE7C4
:10041000FEE7FEE7FEE7FEE7FEE7FEE7FEE7FEE7B4
:10042000FEE7FEE7FEE7FEE7FEE7FEE7FEE7FEE7A4
:10043000FEE7FEE7704700000000A2A2A2A2008033
:100440000340088003401080034030800340348024
:1004500003403880034018080240000000F00020EC
:10046000000001200D160000000000000000000048
:10047000000000000000000090010000B004000037
:10048000B0040000701C0000701C00000000002080
:100490006004002060040020C0060020C006002088
:1004A00000F00020991900003D1700000000000036
:1004B00010B5054C237833B9044B13B10448AFF39E
:1004C00000800123237010BD6004002000000000A4
:1004D000441C00000C4B43B10C4810B50C49AFF361
:1004E00000800C48036823B910BD0A48036833B97B
:1004F0007047094B002BF7D0BDE810401847064B5A
:10050000002BF5D0184700BF00000000441C00007D
:1005100064040020000000200000000038B50C46F4
:1005200005460021204600F03FFE690641F0824169
:10053000204600F08DFE05460021204600F05EFEBC
:1005400025F07F4038BD00BF70B504460D46164605
:1005500010460021640600F027FE44F0804405F4B4
:100560007F010C4405F47F410C44E9B2214430463C
:1005700000F06EFE3046BDE87040002100F03EBE47
:1005800038B504460D460A460A200649FFF7DCFF47
:1005900021012A46BDE8384041F47C610A20FFF77A
:1005A000D3BF00BFD00FFC00F8B505460F460820AA
:1005B00019461E461446FFF7B1FFEAB2D3074FF0C3
:1005C0000F034FEA820149B254BF47EAC40444EA28
:1005D00047048B408C4020EA030132462143082027
:1005E000BDE8F840FFF7B0BF13460022FFF7DCBFBD
:1005F00001607047006870470EB503FA01F303EA23
:10060000020301686FEA020201EA020141EA030102
:1006100001600EBD006800EA020020FA01F0704798
:1006200001807047008870470EB503FA01F303EAB2
:10063000020301886FEA020201EA020141EA0301B2
:1006400001800EBD008800EA020020FA01F0704728
:1006500001707047007870470EB503FA01F303EAA2
:10066000020301786FEA020201EA020141EA030192
:1006700001700EBD007800EA020020FA01F0704718
:100680000B4B10B50B4C198823683BB10A4A89B251
:10069000106898470023094A23601370084B1A46D4
:1006A000196841F0010119601368DB07FCD410BD23
:1006B0009C0400208404002094040020A104002055
:1006C00000600140924BF0B55C689A68E4B2144057
:1006D000A10785B01FD4E10701D405B0F0BD8D4D51
:1006E0002B78022B00F09480052B2AD0012B57D0B9
:1006F000874A894C936823F00103936023683BB1D8
:10070000864A0021106898470023854A23601370A9
:1007100000232B70E1E77F4D1A692B78D0B2052BAF
:1007200000F25081DFE813F0CB00D700D700DF00E4
:10073000A00089007B4B1A68002A40F0C980E207BC
:10074000CBD5794C2368002B00F0FC802368002B6C
:100750006BD06F4926680B68744823F00403076860
:100760000B604B6803F001030393039A92B1002ED0
:1007700000F0678100227D1E01E096420AD015F844
:10078000013F01320B614B6803F001030393039BAC
:10079000002BF2D1236817449A1A076022609CE765
:1007A000634E33889BB2002B37D0594934880B688D
:1007B000DFF88CE123F00403DEF800700B604B6877
:1007C000A4B203F001030193019A92B1002C00F04E
:1007D0003C810022781E01E094420AD010F8013FCB
:1007E00001320B614B6803F001030193019B002B65
:1007F000F2D133889BB2934200F2ED8000224A4B43
:1008000032801B68002B00F0EE8002232B7064E71F
:10081000454C2368002B40F0A880414B1B78002BEF
:100820003FF45BAFFFF72CFF57E70321384A93688B
:1008300023F00103936029704FE716043FF57AAF68
:10084000364B354E1A683368507033B1104602216A
:1008500098470023324A3360137000232B70E3075C
:100860003FF546AF05B0F0BD17042DD4314A2B49F2
:1008700013880E689BB2334413F8013CF12B00F04F
:10088000BD802D49138809889BB28B4206D21788F8
:100890001388BFB201339BB2F055138013889BB20B
:1008A0009942DCD11C4F13883A6899B2002AD4D0FF
:1008B0003046904700231A4A3B601370CDE712047C
:1008C000CDD5F12800F0AB80164B1A68002AC6D0AF
:1008D0001B689847FFE615047FF5FDAE114B1A68BB
:1008E000002AF5D1F7E61304B9D5144B1B789842CA
:1008F000EAD1002304210F4A297013801188074E82
:1009000013883668013389B29BB213807054A6E70E
:1009100000600140A0040020840400209404002012
:10092000A10400207C040020880400209004002002
:10093000820400209C0400209E04002080040020EB
:100940008C040020424B1B68002B4FD04148984735
:1009500020602368002B7FF4F9AE03213E4A9368A0
:1009600023F0010393602970F0E63B4927680B6888
:10097000384823F00403D0F800E00B604B6803F024
:1009800001030293029A92B1002F5CD000220EF173
:10099000FF3601E097420AD016F8013F01320B61A1
:1009A0004B6803F001030293029B002BF2D12368F2
:1009B00093427FF63AAF21680EEB02038A1A036076
:1009C00022608AE6254E3368002B3FF446AF244A66
:1009D000002110683CE7338817449A1A92B2CEF887
:1009E0000070328079E603232B7076E61D4B1B786E
:1009F000002B3FF4ABAEFFF743FEA7E61A4F11887A
:100A00001388D7F800E08AB29BB2B054013BBEF124
:100A1000000F3FF422AF3A68F05C90471DE70026D4
:100A20000422124B2A701E8019881A8889B201325A
:100A300092B21A800A4A1B8812689BB25054D6544C
:100A40000DE73246A6E63A46B1E72246D1E600BFB8
:100A500098040020900400200060014084040020DD
:100A600094040020A10400207C0400209C040020A9
:100A70002A4A036890422DE9F04F1C68D3F8188089
:100A8000D3F804C0D3F828E01F6B5E6BDD692CD06F
:100A90004FF0030B4FF0080A214A22491346D1F8C0
:100AA000489080F804B002601F4849F48069C1F89A
:100AB0004890C0F880A1886C20F480608864116838
:100AC00021F00041116024F001041C60C3F818807B
:100AD000C3F804C01A6842F001021A60C3F828E0A3
:100AE0001F635E63DD61BDE8F08F02234FF00409F0
:100AF0000C490E4A03718B6C02600B4843F400737F
:100B00008B64C0F88091886C134620F40070886470
:100B1000116821F000411160D5E700BF48050020B1
:100B2000001001400080034000E100E000100040A0
:100B30000268F0B49368DD053FD40369C768BB421F
:100B400011D285682B44EE1901E09E420BD013F8B8
:100B5000011B51619468591BE4050161F5D58F4271
:100B600001D9F0BC70479368DB0511D4C36985696E
:100B7000AB4225D246693344354401E09D4207D05B
:100B800013F8011B516191689C1BC461CC05F5D51C
:100B9000436A002BE5D0C16983699942E1D390682B
:100BA00010F48070DDD1202301E0013BD9D05061E9
:100BB0009168C905F9D5F0BC70470169C768CEE7EF
:100BC000436A002BEBD1CCE710B590F8803082B0AF
:100BD000022B0CD0012B18D003689A68520604D45B
:100BE0001A6900929A685206FAD502B010BD0446FE
:100BF000236803E01969626F00911AB99A68510677
:100C0000F8D5F2E700989047F2E7026893685C062F
:100C1000EBD4036BC16A14699942019404D9826AC6
:100C20000199D154036B026891680133490603634B
:100C3000F0D502B010BD00BF70B5036882B01A6A6B
:100C4000044692071D460ED590F88020022A36D021
:100C5000012A9A6803D190E01A6901929A685206B3
:100C6000FAD50222DA602A6AD60709D594F88020DC
:100C7000022A28D02046FFF75BFF23680122DA60B2
:100C80002A6AD00648D42A6A51075CD42A6A120715
:100C90000BD5DA6A94F8801042F008020229DA6271
:100CA0005CD001297FD00822DA602B6A9B060DD424
:100CB00002B070BD1969626F0191002A59D19A681A
:100CC0005606F7D5CDE7A26F5A61D7E72046FFF762
:100CD0007BFF236A256B002B63D000221021236841
:100CE00062626261A261E261D9609A6A0A439A62B1
:100CF0000026DA6A204642F00C022661DA62FFF72B
:100D000017FFE36F266313B12946A06A9847202294
:100D10002368DA6002B070BD2046FFF755FF236AF2
:100D20002BB1A06A216B98472046FFF701FF0122F3
:100D30001021236862629A6A22F010029A62D960D6
:100D40002A6A5107A2D5DA6A204642F00402DA6222
:100D5000FFF78EFE04222368DA6097E71A68A16F16
:100D600022F47F0222F47F4242F480721A605961B9
:100D700099E7019890472368A1E750063FF571AFC6
:100D8000226BE16A18699142019004D9A36A019922
:100D90009954226B23689968013249062263F0D581
:100DA0005FE72368A4E7002320462361FFF7C0FE26
:100DB000236878E7684620F007018D4601B50348AF
:100DC000FFF73AFFBDE8014085467047480500201F
:100DD000684620F007018D4601B50348FFF72CFF58
:100DE000BDE8014085467047C4040020F0B5264C9C
:100DF000B2F5803F27684FEA870404EB07054FEA06
:100E0000C5164FEA850506F1844605F1402E0EF51C
:100E1000803E06F52016C6F8C431CEF80400CEF8A0
:100E20000810DEF80C604FEA16464FEA0646CEF888
:100E30000C601ED80021DEF80C0092B2134B024366
:100E4000CEF80C20196101250020E3199A0002F167
:100E5000402202F58032D168DB0103F1844303F5BF
:100E6000201341F4E001D160C3F8C051C3F8CC01B4
:100E7000F0BD064BA2F5803201F5803100F58030DF
:100E80001A61D9609860DEE7A8040020AC04002055
:100E9000684620F007018D4631B50124224D2349D3
:100EA0002A6802EB82039B0002F5287003F14023BD
:100EB00041F8204003F58033D9682244042A21F404
:100EC000E001D96008BF0023194C18BF2A602269CD
:100ED00008BF2B607AB11749A0680B68042B0CBFC0
:100EE000002301330B60237DE168FFF77FFFBDE83E
:100EF0003140854670472B6803EB83039B0003F169
:100F0000402303F58033DB6813F4E003EFD10120C5
:100F1000084962682B6020700B60002AE7D0904778
:100F2000BDE8314085467047A404002000002842F7
:100F3000AC040020A8040020684620F007018D467C
:100F4000264B31B51B6813F4706F1CD0244C2168FC
:100F50008B005A18D20102F1844202F52012D2F815
:100F600008223AB102201F4A5568107015B1A847EF
:100F700021688B000B44DB0103F1844303F520134C
:100F8000D3F80C320BBB154B1B6813F4704F05D014
:100F90000420144B5A68187002B19047BDE83140E4
:100FA0000123114A1149C2F8C8318546C2F8803A76
:100FB000C2F84834C1F8803AC2F8C836C1F8843A59
:100FC000C2F84839C1F8883A70470320054B5A687F
:100FD0001870002AD7D09047D5E700BF00400140E5
:100FE000A4040020AC040020000028420400284291
:100FF00020B1072B02D8B2F5005F00D37047F0B5DF
:101000000F4615461E46044683B0D1B207F10800CC
:10101000FFF71EFB6A1102F4FF6242EA060107F1C4
:101020000C00FFF715FB276007F11000FFF712FB1C
:1010300082070CD520680430FFF70CFB23688DF87D
:10104000070003F11000FFF705FB8307F2D400232C
:10105000237103B0F0BD00BFF8B508B101B112B9FA
:1010600000252846F8BD04460068174610300E4695
:10107000FFF7F0FA2379820743EA00032371EFD5E3
:101080000025013E01E0AF42EBD02068013504307D
:10109000FFF7E0FA06F8010F20681030FFF7DAFAE0
:1010A0002379034323718307EDD42846F8BD00BF9D
:1010B00028B1002203790271C3F382007047FF2038
:1010C000704700BF002310B504461946012200688E
:1010D000FFF7C2FA206803211C30FFF7B9FA206835
:1010E000FF210430FFF7B4FA012320681A46BDE857
:1010F00010400021FFF7B0BA00B101B9704770B5D8
:1011000016460D4648220021044600F06DFC731E71
:101110001F2B84BF0123A4F844304FF0000398BF75
:10112000A4F844601946012228462560FFF794FA86
:10113000206800212430FFF78BFA206803211C303F
:10114000FFF786FA2068FF210430FFF781FA206854
:1011500000211830FFF77CFA20680321BDE87040B9
:10116000FFF776BAF8B138B5002304461D46194694
:1011700001220068FFF770FA206884F846501C309E
:101180000321FFF765FA2068FF210430FFF760FABA
:10119000206829461830FFF75BFA20680321BDE874
:1011A0003840FFF755BA704708B1072900D9704792
:1011B00038B5022204460D4600680121FFF75AFAAD
:1011C00000B938BD2068102220300421FFF752FA00
:1011D00001280ED020682430FFF73CFA0121236853
:1011E000A9400143C9B203F12400BDE83840FFF72C
:1011F0002FBA2046FFF766FFECE700BF08B10729CA
:1012000000D9704738B5022204460D460068012116
:10121000FFF730FA00B938BD2068102220300421D1
:10122000FFF728FA01280FD020682430FFF712FAC0
:1012300001212368A94020EA0101C9B203F1240079
:10124000BDE83840FFF704BA2046FFF73BFFEBE765
:10125000002330B583B0019338B104460D46022215
:1012600001210068FFF706FA10B9019803B030BDFC
:10127000206803211C30FFF7EBF92068294628304D
:10128000FFF7B6F92068022220300121FFF7F2F9BA
:101290000128F7D120680830FFF7ACF901900198D8
:1012A00003B030BD38B5104B082905465C5C0068BA
:1012B0000CD90C30FFF7CEF92B6844EA0001C9B213
:1012C00003F10C00BDE83840FFF7C2B90830FFF762
:1012D000C1F92B6844EA0001C9B203F10800BDE876
:1012E0003840FFF7B5B900BFA41B000038B5104B5C
:1012F000082905465C5C00680CD90C30FFF7AAF998
:101300002B6820EA0401C9B203F10C00BDE83840A3
:10131000FFF79EB90830FFF79DF92B6820EA04011A
:10132000C9B203F10800BDE83840FFF791B900BF2A
:10133000A41B000070B5044616461D46016001F16D
:1013400008000021FFF784F9206800210C30FFF726
:101350007FF931462068FFF74BF9206829460430B1
:10136000FFF746F9206800211030FFF741F92068A7
:1013700000211830FFF73CF9206800212030FFF7EA
:1013800037F9206800212830FFF732F92068002162
:101390003030FFF72DF9206800213830FFF728F9A9
:1013A000206800214030FFF723F9206800214830F1
:1013B000FFF71EF9206800215030FFF719F9206867
:1013C00000215830FFF714F9206800216030FFF742
:1013D0000FF9206800216830FFF70AF92068002122
:1013E0007030FFF705F9206800217830FFF700F929
:1013F000206800218030FFF7FBF820680021BDE85D
:1014000070408830FFF7F4B870B54C1E0F2C1DD813
:10141000C2B105460C4616460D4B006853F8213004
:1014200000211844FFF7E4F80A4B286853F82430E9
:1014300031461844FFF7DCF821462846BDE87040E5
:10144000FFF730BFBDE87040FFF750BF70BD00BF71
:10145000FC1B0000B81B000070B506460C4602716C
:1014600001F180053160204600210434FFF7F0F8D7
:10147000AC42F8D13379012B21D00AD3022B07D10A
:1014800030684FF0FF31BDE870408030FFF7B0B8F2
:1014900070BD3068FF218030FFF7DAF83068FF2137
:1014A0008430FFF7D5F83068FF218830FFF7D0F897
:1014B0003068FF21BDE870408C30FFF7C9B8306854
:1014C0004FF6FF718030FFF7ABF830684FF6FF71D1
:1014D000BDE870408430FFF7A3B800BF1F290B465A
:1014E00000D970470068114600EB8300FFF780B811
:1014F00038B503790446012B0D4621D008D3022BC1
:1015000005D1BDE838400068A030FFF771B838BD9C
:101510000068C9B2A030FFF79BF82068C5F3072127
:10152000A430FFF795F82068C5F30741A830FFF70E
:101530008FF82068290EAC30BDE83840FFF788B836
:10154000006889B2A030FFF76BF82068290CA4303E
:10155000BDE83840FFF764B81F2900D9704710B5BF
:10156000046804EB81042046FFF774F840F008019A
:10157000C9B22046BDE81040FFF76AB81F2900D95C
:10158000704710B5046804EB81042046FFF762F849
:1015900020F008012046BDE81040FFF759B800BF11
:1015A00038B5012403790546012B04FA01F420D053
:1015B00009D3022B06D100682146BDE838408030AF
:1015C000FFF716B838BD006821468030FFF740F8B5
:1015D0002868210A8430FFF73BF82868210C8830FE
:1015E000FFF736F82868210E8C30BDE83840FFF749
:1015F0002FB8006821468030FFF712F82868210CC8
:101600008430BDE83840FFF70BB800BF4FF6020248
:101610000B4BD3F84C1191420BD1D3F8982042F4E4
:101620008072C3F89820D3F8982022F08062C3F823
:101630009820044A536943F400735361FEF7FABEDD
:101640000080034000ED00E0F0B42E4A82B0D2F8F2
:10165000983013F0806324D1D2F89810C9043AD599
:101660000124032102208DF806108DF807108DF853
:1016700000308DF802308DF801408DF803408DF870
:1016800004008DF80500D2F89C3002A9C3F3821340
:101690000B4413F8083CA34231D002D31A491B4B28
:1016A00008E0D2F850111A4A11F0040F194B18BF74
:1016B000134615490B60184F184E194D194C1A480E
:1016C0001A4A1B493B6033602B6023600360116042
:1016D00002B0F0BC7047174B0B4A0F4913600B6008
:1016E0000E4F104E104D1148114C0D4A12493B60DF
:1016F00033602B600460116002B0F0BC70474FF49F
:101700000043D6E7008003400400002040420F0061
:1017100080F0FA0240787D011400002018000020BB
:10172000080000200C000020100000201C000020F9
:10173000C00E1602003B5808801D2C04F0B540F680
:101740009F738BB004224FF0A0416248FFF7F2FD77
:1017500000230193019A604B9A4205DC019A013201
:101760000192019A9A42F9DD00230093009A5B4BA3
:101770009A4205DC009A01320092009A9A42F9DD01
:10178000082257495748FFF7B7FC5648FFF7EAFCCD
:1017900054490320FEF7F4FE524A00210120FEF7CF
:1017A00023FF2022002102A800F01EF90123252298
:1017B0004D494E48FFF71CFCFFF746FF02224C49FB
:1017C0004C48FFF749FE052200214A48FFF786FEF4
:1017D000052201214748FFF781FE052202214548E5
:1017E000FFF77CFE444B43481968FFF781FE432214
:1017F00000214048FFF772FE432201213D48FFF7D8
:101800006DFE052202213B48FFF768FE00213948A2
:10181000FFF7A2FE01213748FFF79EFE4FF0080CAC
:1018200010224FF0600E50214FF480454FF04026BB
:1018300000200127314B2D4CC3F804C05A60304AB8
:1018400083F823E3DFF8C0C083F824131168C3F8DA
:101850008050DCF848E001EB81012EF04002CCF82A
:101860004820284A7065C2F88001C2F88801C2F891
:1018700084013761C3F880517160164EC2F88071DF
:10188000C2F888711D602046FFF712FCA8B19DF8D0
:101890000830412BF7D101220025114630468DF842
:1018A0000850FFF7B1FD30462A460121FFF7ACFD95
:1018B0002046FFF7FDFB0028E9D1202202A920469F
:1018C000FFF7CAFB0028E2D12046FFF7F1FB002812
:1018D000FAD1F2E7900600201FD613004F9731008F
:1018E000004000504806002000200050D405002091
:1018F00000100030CC0500202000002000E100E0B6
:101900001400002000000842008003404FF04023F4
:1019100001221A61BFF34F8F704700BF00B500214D
:1019200083B01248FFF72AFE01211048FFF726FE78
:1019300000210E48FFF734FE01210C48FFF730FE6E
:1019400000210A48FFF708FE01210848FFF704FEBE
:101950000021074A0191019B9342FBDC019B01336B
:101960000193019B9342F9DDF4E700BFCC05002011
:101970007FBA8C0100214FF480420448044BC0F828
:101980008811C3F880200348FFF7F8BD0000084223
:1019900000E100E0CC05002070B50F4E0F4D761B26
:1019A000B61018BF002405D0013455F8043B984701
:1019B000A642F9D10A4E0B4D00F044F9761BB61041
:1019C00018BF002406D0013455F8043B9847A642BE
:1019D000F9D170BD70BD00BF5C1C00005C1C000034
:1019E000641C00005C1C000070B4860746D0541EC6
:1019F000002A41D0CAB2034602E014F1FF343BD3BF
:101A000003F8012B9D07F8D1032C2ED9CDB245EA5E
:101A100005250F2C45EA054519D9264603F1100284
:101A2000103E0F2E42F8105C42F80C5C42F8085C45
:101A300042F8045C02F11002F2D8A4F1100222F084
:101A40000F0204F00F041032032C13440DD91E466C
:101A50002246043A032A46F8045BFAD8221F22F0F1
:101A600003020432134404F003042CB1C9B21C4431
:101A700003F8011B9C42FBD170BC7047144603461F
:101A8000C2E700BF024B13B1024800F005B870472F
:101A900000000000A51A0000002301461A4618465F
:101AA00000F01EB838B50A4C0A4D641BA4100AD0C9
:101AB00004F18043013B05EB8305013C55F80439F3
:101AC0009847002CF9D1BDE8384000F0C1B800BFFC
:101AD000681C0000641C0000704700BF704700BF16
:101AE0002DE9F8432C4D0646286898460F46914646
:101AF000FFF7F2FF294B1C68D4F84831002B3ED089
:101B00005A681F2A1CDC02F1010E76B1012103EB99
:101B10008204C4F88890D3F8880191400843022ECB
:101B2000C3F88801C4F8088123D00232C3F804E066
:101B3000286843F82270FFF7D1FF0020BDE8F88342
:101B4000174B0BB34FF4C870AFF300800346D8B106
:101B50000020D4F848114FF0010E58601960024679
:101B6000C4F84831C3F88801C3F88C01002EDCD0DA
:101B7000CCE7D3F88C010143C3F88C11D5E704F509
:101B8000A673C4F84831BBE72868FFF7A7FF4FF0FA
:101B9000FF30BDE8F88300BF50040020401C000067
:101BA000000000000001020408102040800102042F
:101BB0000810204080000000000000001400000019
:101BC0001C000000240000002C0000003400000075
:101BD0003C000000440000004C00000054000000E5
:101BE0005C000000640000006C0000007400000055
:101BF0007C000000840000008C0000000000000059
:101C00001000000018000000200000002800000064
:101C100030000000380000004000000048000000D4
:101C20005000000058000000600000006800000044
:101C300070000000780000008000000088000000B4
:101C400028000020F8B500BFF8BC08BC9E467047CD
:101C5000F8B500BFF8BC08BC9E467047851A000066
:101C6000D5040000B10400000000000000000000E6
:101C700000000000003B5808801D2C04003B580861
:101C8000003B5808003B5808003B5808C00E16029D
:101C9000020000000000000000000000140300200B
:101CA0007C030020E403002000000000000000008E
:101CB0000000000000000000000000000000000024
:101CC0000000000000000000000000000000000014
:101CD0000000000000000000000000000000000004
:101CE00000000000000000000000000000000000F4
:101CF00000000000000000000000000000000000E4
:101D000000000000000000000000000000000000D3
:101D100000000000000000000000000000000000C3
:101D200000000000000000000000000000000000B3
:101D300000000000000000000000000000000000A3
:101D400001000000000000000E33CDAB34126DE640
:101D5000ECDE05000B0000000000000000000000A9
:101D60000000000000000000000000000000000073
:101D70000000000000000000000000000000000063
:101D80000000000000000000000000000000000053
:101D90000000000000000000000000000000000043
:1020C0009406002000000000000000000000000056
:040000030000019167
:00000001FF
