:020000042000DA
:1000000000000120910100207F03002081030020D7
:1000100083030020850300208703002000000000E8
:100020000000000000000000000000008903002024
:100030008B030020000000008D0300208F030020B0
:100040009103002093030020691200208D120020EC
:10005000990300209B0300209D0300209F030020A4
:10006000A1030020A3030020A5030020A703002074
:10007000A9030020AB03002041280020AF0300208B
:10008000B1030020B3030020B5030020F9070020CE
:10009000B9030020BB030020BD030020BF030020E4
:1000A000C1030020C3030020C50300200114002069
:1000B000F9140020CB030020CD030020CF03002043
:1000C000D1030020D3030020D50300208128002085
:1000D000DD280020DB030020DD030020DF030020FB
:1000E000E1030020E3030020E5030020E7030020F4
:1000F000E9030020EB030020ED030020EF030020C4
:10010000F1030020F3030020F5030020F703002093
:10011000F9030020FB030020FD030020FF03002063
:10012000010400200304002005040020070400202F
:10013000090400200B0400200D0400200F040020FF
:1001400011040020130400201504002017040020CF
:10015000190400201B0400201D0400201F0400209F
:10016000210400202304002025040020270400206F
:10017000290400202B0400202D0400202F0400203F
:1001800031040020330400200000000000000000C3
:100190004FF0000BDFF8BE020068DFF8B612096806
:1001A00001F0030100F01C00142801D14BF0020BF8
:1001B000002901D04BF0010BBBF1000F05D0A7487F
:1001C000A749DFF8722200F09FF8A64880470BF09D
:1001D000020ABAF1000F0CD0DFF86E02DFF86E12DF
:1001E00002680B680FB44FF000024FF0FF0302608B
:1001F0000B609D4800220123022808D1DFF83E123F
:100200000A60DFF842120A60DFF836120B6001283C
:1002100008D1DFF82E120A60DFF82A120A60DFF830
:100220001E120B609148002809D191489149924AC9
:1002300000F032F891489249924A00F02DF8924825
:100240009249934A00F028F892489349DFF8E62152
:1002500000F05AF8BBF1000F12D090489049DFF837
:10026000DA2100F051F80BF0020ABAF1000F07D0C2
:100270000FBC02600B6000BFAFF30080AFF30080E3
:10028000DFF820020FF2030E00474FF000004FF09E
:100290000001DFF814F2FEE72DE9F841884225D08D
:1002A000B2EB010200D5FEE740EA010313F00303BD
:1002B00002D000F01DF819E04FF000039046121133
:1002C000F7D09A421CBFF0C8F0C103F10103F8D186
:1002D00008F00F08B8F1000F08D004780C7000F196
:1002E000010001F10101B8F10108F6D1BDE8F88182
:1002F00008B54FF0000303780B7000F1010001F125
:100300000101013AF7D108BD884237D000F0030659
:10031000002E14D04FF00405A5EB06044FF008079B
:1003200007FB06F8914669FA08F9002C07D080F817
:10033000009069FA07F900F10100013CF5E74FF080
:1003400000060F46091A88460911914614461546BB
:10035000B14206D018BFA0E8340206F10106B1424E
:10036000F8D108F00F08B8F1000F07D002704FEA7B
:10037000322200F10100B8F10108F4E77047FEE70E
:10038000FEE7FEE7FEE7FEE7FEE7FEE7FEE7FEE745
:10039000FEE7FEE7FEE7FEE7FEE7FEE7FEE7FEE735
:1003A000FEE7FEE7FEE7FEE7FEE7FEE7FEE7FEE725
:1003B000FEE7FEE7FEE7FEE7FEE7FEE7FEE7FEE715
:1003C000FEE7FEE7FEE7FEE7FEE7FEE7FEE7FEE705
:1003D000FEE7FEE7FEE7FEE7FEE7FEE7FEE7FEE7F5
:1003E000FEE7FEE7FEE7FEE7FEE7FEE7FEE7FEE7E5
:1003F000FEE7FEE7FEE7FEE7FEE7FEE7FEE7FEE7D5
:10040000FEE7FEE7FEE7FEE7FEE7FEE7FEE7FEE7C4
:10041000FEE7FEE7FEE7FEE7FEE7FEE7FEE7FEE7B4
:10042000FEE7FEE7FEE7FEE7FEE7FEE7FEE7FEE7A4
:10043000FEE7FEE7704700000000A2A2A2A2008033
:100440000340088003401080034030800340348024
:1004500003403880034018080240000000F00020EC
:1004600000000120512200200000000000000000D8
:10047000000000200000002090010020B0040020B7
:10048000B0040020D0450020D0450020D0450020F9
:100490006046002060460020F0480020F048002020
:1004A00000F00020D1300020712600200000000064
:1004B00010B5054C237833B9044B13B10448AFF39E
:1004C00000800123237010BD604600200000000062
:1004D000A84500200C4B43B10C4810B50C49AFF3B4
:1004E00000800C48036823B910BD0A48036833B97B
:1004F0007047094B002BF7D0BDE810401847064B5A
:10050000002BF5D0184700BF00000000A8450020D0
:1005100064460020D04500200000000080B586B071
:1005200000AF03463960FB710F4B7B61FB791B0108
:1005300043F47C633B610A235B005AB240235BB205
:1005400013435BB2FB730A233A687969184600F0DB
:100550004DF80A233A683969184600F047F800BF99
:100560001837BD4680BD00BFD00FFC0080B586B0F7
:1005700000AF03463960FB71FB795B005AB2402340
:100580005BB213435BB243F001035BB2FB75002324
:100590003B610023FB600021386801F0C9F9FB7D55
:1005A0001946386801F058FAF8600021386801F0FF
:1005B00053FA03461B043B610021386801F04CFAF2
:1005C00003461B023A6913433B610021386801F07E
:1005D00043FA02463B6913433B610021386801F04E
:1005E000F0F93B6918461837BD4680BD80B586B026
:1005F00000AF0346B9607A60FB73FB7B5B005AB2C5
:1006000040235BB213435BB2FB75BB681B0CBB752D
:10061000BB681B0A7B75BB683B750021786801F0DD
:1006200087F9FB7D1946786801F016FA3861BB7DC1
:100630001946786801F010FA38617B7D19467868B0
:1006400001F00AFA38613B7D1946786801F004FA36
:1006500038610021786801F0B4F900BF1837BD4651
:1006600080BD000090B585B000AF03463960FB71D6
:10067000FB7939681846FFF779FFF860FB68B3F536
:10068000000F03D3FB6803F17F43FB60F86802F0BF
:1006900097FA4FF00002094B02F032FC03460C4679
:1006A000184621464FF00002054B02F029FC034694
:1006B0000C46184621461437BD4690BD00006041E7
:1006C0000000084080B582B000AF03463A60FB717D
:1006D0000B46BB71B979F8793B68002200F004F849
:1006E00000BF0837BD4680BD80B586B000AF3B6017
:1006F0000346FB710B46BB7113467B7108233968B7
:100700001846FFF733FF3861FB799B00FB7300232A
:100710007B61FB7903F00103DBB2002B05D17B7910
:10072000DA00BB7913437B6104E07A79BB795B0023
:1007300013437B61FB7B0F2202FA03F3DB431A4670
:100740003B6913403B61FB7B7A6902FA03F33A6928
:1007500013433B6108233A6839691846FFF746FF9F
:1007600000BF1837BD4680BD016070470068704704
:100770000EB503FA01F303EA020301686FEA02020D
:1007800001EA020141EA030101600EBD006800EACE
:10079000020020FA01F0704701807047008870471E
:1007A0000EB503FA01F303EA020301886FEA0202BD
:1007B00001EA020141EA030101800EBD008800EA5E
:1007C000020020FA01F0704701707047007870470E
:1007D0000EB503FA01F303EA020301786FEA02029D
:1007E00001EA020141EA030101700EBD007800EA4E
:1007F000020020FA01F0704780B582B000AF0F4BC5
:100800005B68FB710D4B9B68DAB2FB791340FB719F
:10081000FB7903F00203BB71BB79002B01D000F020
:10082000E5F8FB7903F001037B717B79002B01D0A4
:1008300000F006F800BF0837BD4680BD00600140EB
:1008400080B584B000AF624B1B78022B3DD0052BE6
:1008500068D0012B40F0AA805E4B1B889BB2002B16
:100860002FD05D4B1A685B4B1B889BB21946104614
:1008700000F00AFAF860574B1B889BB21A46FB68D7
:100880009A420FD9534B1B889AB2FB689BB2D31A7A
:100890009AB2504B1A80504B1A68FB6813444E4A68
:1008A000136090E04B4B00221A804C4B1B68002BCE
:1008B00003D0474B02221A7085E0454B03221A7081
:1008C00081E000BE00F0BAF97DE0444B1B68002BCC
:1008D00024D0434B1A68414B1B681946104600F060
:1008E000D3F9B8603D4B1B68BA689A420CD23B4BB7
:1008F0001A68BB68D31A394A1360394B1A68BB6847
:100900001344374A13605EE0364A364B9B6823F047
:10091000010393602E4B03221A7054E000BE00F0D6
:100920008DF950E02D4B1B68002B1BD12E4B1B6803
:10093000002B14D02C4B1B68294898470246274BA4
:100940001A60264B1B68002B0CD1264A254B9B684E
:1009500023F0010393601E4B03221A7002E000BED5
:1009600000F06CF91D4B1B68002B09D11D4A1D4B73
:100970009B6823F001039360154B03221A7022E059
:10098000174B1A68154B1B681946104600F07CF986
:100990007860124B1A687B68D31A104A1360104BA8
:1009A0001A687B6813440E4A13600CE00D4A0D4B25
:1009B0009B6823F001039360002000F01FF9044BB3
:1009C00000221A7000BF00BF1037BD4680BD00BFB7
:1009D000A146002084460020804600208C4600204E
:1009E00088460020006001409C46002080B584B00D
:1009F00000AF7C4B1B69FB81FB8923F4FF4323F091
:100A00007F03BB81FB89FB72774B1B78052B00F2C0
:100A1000D68001A252F823F0310A0020AB0B00204F
:100A2000AB0B0020890A0020D70A00207F0B002092
:100A3000BB89002B00F0CA80FB7AF12B06D0FB7A31
:100A4000BB72BB7A184600F04FF9BFE0674B00223B
:100A50001A80674B1B68654A128892B21344FA7A6F
:100A60001A70624B1B889BB201339AB25F4B1A809B
:100A70005F4B1B685D4A128892B2134400221A70C1
:100A8000594B04221A70A1E0BB89002B00F0A08012
:100A9000FB7A7B72574B1B78DBB27A7A9A4215D17C
:100AA000524B00221A80524B1B68504A128892B255
:100AB00013447A7A1A704D4B1B889BB201339AB259
:100AC0004A4B1A80484B04221A7081E07B7A184600
:100AD00000F00AF97CE0BB89002B06D0FB7A3B7260
:100AE0003B7A184600F000F974E0414B1A683F4B1E
:100AF0001B889BB2013B13441B78F12B16D13C4B56
:100B00001B683A4A128892B21344FA7A1A70384B28
:100B10001A68364B1B889BB2013B13441B7818465E
:100B200000F0E2F8304B00221A7053E02F4B1B8884
:100B30009AB2314B1B889A4210D2FB7AFB712C4B34
:100B40001B682A4A128892B21344FA791A70274B0A
:100B50001B889BB201339AB2244B1A80234B1B880B
:100B60009AB2254B1B889A4234D1204B1B889BB2EA
:100B7000184600F043F81C4B00221A702AE0BB898B
:100B8000002B0BD11A4B1B680133FA7A1A70022022
:100B900000F034F8144B00221A701EE0FB7ABB718F
:100BA000BB79184600F0A0F817E0BB89002B13D0E2
:100BB000FB7A7B717B79184600F096F80CE00020F8
:100BC00000F01CF8084B00221A7006E000BF04E099
:100BD00000BF02E000BF00E000BF00BF1037BD460D
:100BE00080BD00BF00600140A14600209646002065
:100BF000904600207C4600209446002080B582B0BC
:100C000000AF0346FB800A4B1B68002B0CD0084B3F
:100C10001B68084A1268F98810469847044B00225E
:100C20001A60054B00221A7000BF0837BD4680BD10
:100C30009846002090460020A046002080B582B053
:100C400000AF0E4B1B78DBB2002B13D00C4B1B8874
:100C50009BB21846FFF7D2FF0A4A0A4B1B6843F0C3
:100C600001031360074B1B6803F001037B607B6883
:100C7000002BF7D100BF0837BD4680BDA04600203D
:100C8000964600200060014080B485B000AF7860D7
:100C90003960144A134B1B6823F0040313600023CC
:100CA000FB60104B5B6803F00103BB600DE00D4976
:100CB0007A68FB6813441B780B61FB680133FB60A7
:100CC000084B5B6803F00103BB60BB68002B03D0DB
:100CD000FA683B689A42EAD3FB6818461437BD4667
:100CE00080BC70470060014080B582B000AF034611
:100CF000FB71064B1B68002B04D0044B1B68FA7970
:100D00001046984700BF0837BD4680BDA446002066
:100D100080B483B000AF0346FB71094997F90730EF
:100D20005B09FA7902F01F02012000FA02F2603337
:100D300041F8232000BF0C37BD4680BC704700BF80
:100D400000E100E080B58AB000AF78607B681B6886
:100D50001B687B627B681B689B693B627B681B68C6
:100D60005B68FB617B681B689B6ABB617B681B6877
:100D70001B6B7B617B681B685B6B3B617B681B68E3
:100D8000DB69FB607B68354A93421DD17B68344A3E
:100D90001A607B6802221A71324A324B9B6C43F410
:100DA000007393640220FFF7B3FF2E4A2D4B9B6C18
:100DB00023F4007393647B681B687A681268126876
:100DC00022F000421A601CE07B68274A1A607B68A8
:100DD00003221A71234A234B9B6C43F48063936470
:100DE0000320FFF795FF1F4A1E4B9B6C23F4806383
:100DF00093647B681B687A681268126822F000426C
:100E00001A607B6A23F001037B627B681B687A6A45
:100E10001A607B681B683A6A9A617B681B68FA698A
:100E20005A607B681B687A681268126842F0010297
:100E30001A607B681B68BA699A627B681B687A696A
:100E40001A637B681B683A695A637B681B68FA6897
:100E5000DA6100BF2837BD4680BD00BF4C48002086
:100E600000100040008003400010014080B485B0B5
:100E700000AF78600023FB600DE07B681B687A6838
:100E800091687A6812690A4412785A617B681B6912
:100E90005A1C7B681A617B681B689B6803F480732B
:100EA000002B05D17B681A697B68DB689A42E4D322
:100EB0007B681A697B68DB689A421BD30DE07B680C
:100EC0001B687A6851697A68D2690A4412785A6153
:100ED0007B68DB695A1C7B68DA617B681B689B68EE
:100EE00003F48073002B05D17B68DA697B689B690A
:100EF0009A42E4D37B685B6A002B1DD07B681A6939
:100F00007B68DB689A4217D37B68DA697B689B69E8
:100F10009A4211D306E07B681B6800225A61FB6885
:100F20000133FB607B681B689B6803F48073002BB4
:100F300002D1FB681F2BEED900BF1437BD4680BC21
:100F4000704780B584B000AF78607B6893F88030DC
:100F5000022B15D10CE07B681B681B69FB607B686A
:100F60005B6F002B04D07B685B6FFA681046984774
:100F70007B681B689B6803F04003002BEBD02FE0DD
:100F80007B6893F88030012B23D116E07B681B68C7
:100F90001B69FB607B681A6B7B68DB6A9A4207D22D
:100FA0007B689A6A7B681B6B1344FA68D2B21A702A
:100FB0007B681B6B5A1C7B681A637B681B689B6889
:100FC00003F04003002BE1D00AE07B681B681B693B
:100FD000FB607B681B689B6803F04003002BF4D028
:100FE00000BF1037BD4680BD80B586B000AF7860C9
:100FF0007B681B6820337B617B686B4A934204D01B
:101000007B686A4A934200D000BE7B691B6803F08C
:101010000203002B4ED07B6893F88030022B15D151
:101020000CE07B681B681B69FB607B685B6F002BB7
:1010300004D07B685B6FFA68104698477B681B6832
:101040009B6803F04003002BEBD02FE07B6893F804
:101050008030012B23D116E07B681B681B69FB6085
:101060007B681A6B7B68DB6A9A4207D27B689A6A54
:101070007B681B6B1344FA68D2B21A707B681B6BD7
:101080005A1C7B681A637B681B689B6803F04003EB
:10109000002BE1D00AE07B681B681B69FB607B6862
:1010A0001B689B6803F04003002BF4D07B681B682F
:1010B0000222DA607B691B6803F00103002B11D068
:1010C0007B6893F88030022B05D17B681B687A68B7
:1010D000926F5A6102E07868FFF7C8FE7B681B6870
:1010E0000122DA607B691B6803F01003002B20D01B
:1010F0007868FFF726FF7B681B6A002B0AD07B68A5
:101100001B6A7A68906A7A68126B11469847786809
:10111000FFF7ACFE7B6801225A627B681B687A6825
:101120001268926A22F010029A627B681B68102291
:10113000DA607B691B6803F00403002B0ED07B6828
:101140001B687A681268D26A42F00402DA62786830
:10115000FFF7F8FD7B681B680422DA607B691B6877
:1011600003F00803002B32D07B681B687A68126892
:10117000D26A42F00802DA627B6893F88030022B70
:1011800016D17B681A687B681B681B6823F47F0391
:1011900023F47F4343F4807313607B681B687A6891
:1011A000926F5A610FE000BF4C480020C8470020F2
:1011B0007B6893F88030012B05D17B6800221A618F
:1011C0007868FFF753FE7B681B680822DA607B694A
:1011D0001B6803F02003002B41D07868FFF7B1FEB5
:1011E0007B681B6B3B617B681B6A002B17D07B689D
:1011F00000225A627B6800225A617B6800229A6151
:101200007B680022DA617B681B681022DA607B68E9
:101210001B687A681268926A42F010029A627B68D0
:1012200000221A617B681B687A681268D26A42F0F1
:101230000C02DA627868FFF719FE7B6800221A63F5
:101240007B68DB6F002B06D07B68DB6F7A68926A65
:101250003969104698477B681B682022DA6000BF16
:101260001837BD4680BD00BF684620F007018D4697
:1012700089B500AF0448FFF7B7FE00BFBD46BDE823
:1012800089408546704700BF4C480020684620F0E2
:1012900007018D4689B500AF0448FFF7A5FE00BFE2
:1012A000BD46BDE889408546704700BFC84700205D
:1012B00090B484B000AFF860B9607A60FB704C48BD
:1012C0004C4B1A68F97813469B001344DB01034426
:1012D00003F5E27319604849464B1A6813469B00B0
:1012E00013449B000B440433FA681A604249414B93
:1012F0001A6813469B0013449B000B440833BA68DA
:101300001A603D483B4B19683B4C3A4B1A681346F0
:101310009B0013449B0023440C331B681A0C1204DB
:101320000B469B000B449B0003440C331A607B6804
:10133000B3F5803F0FD97B68A3F580332F4A136143
:10134000BB6803F580332D4AD360FB6803F5803317
:101350002A4A936019E02848264B1A68264C254BE8
:1013600019680B469B000B449B0023440C331B68FD
:10137000796889B2194313469B0013449B000344C8
:101380000C3319601D4B00221A611B48194B1A6857
:10139000194C184B19680B469B000B449B002344C7
:1013A0000C331B6843F4E00113469B0013449B007D
:1013B00003440C3319600E490E4B1A6813469B0008
:1013C0001344DB010B4403F5E07301221A60084962
:1013D000084B1A6813469B001344DB010B4403F5CA
:1013E000E67300221A6000BF1037BD4690BC7047FC
:1013F00000002842C046002000400140A8460020CE
:10140000684620F007018D4691B500AF354A364B4E
:101410001B6803F52873012142F823103348324B2F
:101420001A68324C304B19680B469B000B449B00EA
:1014300023440C331B6823F4E00113469B00134440
:101440009B0003440C331960274B1B680133264A69
:101450001360254B1B68042B02D1234B00221A601A
:10146000234B1B69002B17D0224B1B68042B03D185
:10147000204B00221A6004E01E4B1B6801331D4AFA
:1014800013601B4B98681A4BD968194B1A69184B93
:101490001B7DFFF70DFF1EE01449134B1A6813461E
:1014A0009B0013449B000B440C331B6803F4E003C4
:1014B000002B10D10C4B00221A600E4B00221A6038
:1014C0000B4B01221A700A4B5B68002B03D0084BB0
:1014D0005B680120984700BFBD46BDE89140854646
:1014E000704700BF00002842C44600200040014071
:1014F000A8460020C0460020684620F007018D461F
:1015000081B583B000AF384B1B683B603B6803F488
:1015100070633B603B68002B2FD03449344B1A6812
:1015200013469B001344DB010B4403F502731B6855
:10153000002B0AD02F4B02221A702E4B5B68002B17
:1015400003D02C4B5B68022098472849284B1A6827
:1015500013469B001344DB010B4403F503731B6824
:10156000002B0AD0234B03221A70224B5B68002BFE
:1015700003D0204B5B68032098471B4B1B683B60E4
:101580003B6803F470433B603B68002B0AD0194B67
:1015900004221A70174B5B68002B03D0154B5B6855
:1015A0000420984700237B6014E010497A681346B2
:1015B0009B001344DB010B4403F5E47301221A6022
:1015C0000A4A7B6803F52873012142F823107B68DF
:1015D00001337B607B68032BE7D900BF0C37BD4626
:1015E000BDE8814085467047004001400000284228
:1015F000C4460020A846002080B586B000AFF86041
:10160000B96011461A460B46FB8013467B71FB6896
:10161000002B00D100BE7B79072B00D900BEFB88D0
:10162000B3F5005F00D300BEFB68002B69D07B7967
:10163000072B66D8FB88B3F5005F62D2BB6808331E
:10164000FA88D2B211461846FFF7BEF8BB6803F11C
:101650000C007A79FB885B1103F4FF63134319468E
:10166000FFF7B2F8FB68BA681A60FB681B680833BA
:101670001846FFF7ABF80346BB82FB681B680C33C8
:101680001846FFF7A3F80346FB74FB7C23F007031F
:10169000BB74BB7C9BB25B019AB2BB8A1343BB8217
:1016A000FB7C03F00703FB74BA8AFB889A4200D0E4
:1016B00000BEFA7C7B799A4200D000BEFB681B68B2
:1016C00010331846FFF782F8034603F00203FB7558
:1016D00011E0FB681B6804331846FFF777F80346F0
:1016E0007B74FB681B6810331846FFF76FF80346DE
:1016F00003F00203FB75FB7D002BEAD1FB6800229F
:101700001A7100BF1837BD4680BD90B589B000AFD3
:10171000F860B9607A600023BB61FB68002B00D1E0
:1017200000BEBB68002B00D100BE7B68002B00D13F
:1017300000BEFB68002B43D0BB68002B40D07B6809
:10174000002B3DD00023BB61FB681B68103318469B
:10175000FFF73CF80346FB75FB681A79FB7D1343E2
:10176000DAB2FB681A71FB7D03F00203FB7720E01D
:10177000BA68BB69D418FB681B6804331846FFF7C6
:1017800025F803462370BB690133BB61FB681B6806
:1017900010331846FFF71AF80346FB75FB681A79F1
:1017A000FB7D1343DAB2FB681A71FB7D03F0020381
:1017B000FB77FB7F002B03D0BA697B689A42D7D3B3
:1017C000BB6918462437BD4690BD80B485B000AFD4
:1017D0007860FF23FB737B68002B00D100BE7B6821
:1017E000002B09D07B681B799B10DBB203F0070349
:1017F000FB737B6800221A71FB7B18461437BD46C9
:1018000080BC704780B584B000AFF860B960134603
:10181000FB80FB68002B00D100BEBB68002B00D111
:1018200000BEFB88202B00D900BEFB88002B00D116
:1018300000BEFB68002B42D0BB68002B3FD0482283
:101840000021F86801F068FCFB68BA681A60FB8840
:10185000202B07D8FB88002B04D0FB68FA88A3F85C
:10186000442003E0FB680122A3F84420FB681868C9
:10187000002301220021FEF7ABFFFB681B68243325
:1018800000211846FEF7A0FFFB681B681C330321EC
:101890001846FEF799FFFB681B680433FF211846C2
:1018A000FEF792FFFB681B68183300211846FEF70D
:1018B0008BFFFB681B6803211846FEF785FF00BFFE
:1018C0001037BD4680BD80B582B000AF78607B68C0
:1018D000002B00D100BE7B68002B25D07B681868E8
:1018E000002301220021FEF773FF7B68002283F8AA
:1018F00046207B681B681C3303211846FEF764FFF3
:101900007B681B680433FF211846FEF75DFF7B6888
:101910001B68183300211846FEF756FF7B681B68CA
:1019200003211846FEF750FF00BF0837BD4680BDB3
:1019300080B584B000AF78600B46FB700023FB736A
:101940007B68002B00D100BEFB78072B00D900BEBE
:101950007B68002B31D0FB78072B2ED87B681B6867
:10196000022201211846FEF741FF0346002B24D036
:101970007B681B682033102204211846FEF736FFCF
:101980000346012B02D1786800F0A5F87B681B683C
:1019900024331846FEF71AFF03461946FB78012246
:1019A00002FA03F3DBB20B43FB737B681B6824333F
:1019B000FA7B11461846FEF707FF00BF1037BD46F9
:1019C00080BD80B584B000AF78600B46FB7000230B
:1019D000FB737B68002B00D100BEFB78072B00D97E
:1019E00000BE7B68002B33D0FB78072B30D87B6898
:1019F0001B68022201211846FEF7F8FE0346002B61
:101A000026D07B681B682033102204211846FEF77D
:101A1000EDFE0346012B02D1786800F05CF87B688C
:101A20001B6824331846FEF7D1FE03461946FB789F
:101A3000012202FA03F3DBB2DB43DBB20B40FB73A0
:101A40007B681B682433FA7B11461846FEF7BCFE00
:101A500000BF1037BD4680BD80B584B000AF786050
:101A600039600023FB607B68002B00D100BE7B68DF
:101A7000002B2BD07B681B68022201211846FEF741
:101A8000B5FE0346002B21D07B681B681C33032165
:101A90001846FEF799FE7B681B682833396818469C
:101AA000FEF762FE00BF7B681B6820330222012123
:101AB0001846FEF79BFE0346012BF4D17B681B689A
:101AC00008331846FEF752FE0346FB60FB681846D3
:101AD0001037BD4680BD80B582B000AF78607B68AE
:101AE0001868002301220021FEF772FE7B681B6844
:101AF0001C3303211846FEF767FE7B681B6804331E
:101B0000FF211846FEF760FE7B681868012301225A
:101B10000021FEF75DFE00BF0837BD4680BD80B5E1
:101B200084B000AFF860B9607A603B60FB68BA6867
:101B30001A60FB681B68083300211846FEF744FE54
:101B4000FB681B680C3300211846FEF73DFEFB685E
:101B50001B6879681846FEF707FE3B68002B00D12A
:101B600000BEFB681B68043339681846FEF7FCFDAD
:101B7000FB681B68103300211846FEF7F5FDFB6873
:101B80001B68183300211846FEF7EEFDFB681B6842
:101B9000203300211846FEF7E7FDFB681B68283359
:101BA00000211846FEF7E0FDFB681B68303300217A
:101BB0001846FEF7D9FDFB681B683833002118462C
:101BC000FEF7D2FDFB681B68403300211846FEF784
:101BD000CBFDFB681B68483300211846FEF7C4FDA7
:101BE000FB681B68503300211846FEF7BDFDFB68FB
:101BF0001B68583300211846FEF7B6FDFB681B68CA
:101C0000603300211846FEF7AFFDFB681B686833A0
:101C100000211846FEF7A8FDFB681B687033002101
:101C20001846FEF7A1FDFB681B68783300211846B3
:101C3000FEF79AFDFB681B68803300211846FEF70B
:101C400093FDFB681B68883300211846FEF78CFD66
:101C500000BF1037BD4680BD80B584B000AF78604E
:101C60000B46FB70FB78002B00D100BEFB78102BDD
:101C700000D900BEFB78002B32D0FB78102B2FD878
:101C8000FB78194AD35CFB73FB78082B14D87B686C
:101C90001B6808331846FEF799FD0346BB73BA7BF1
:101CA000FB7B1343BB737B681B680833BA7B11460D
:101CB0001846FEF789FD13E07B681B680C33184655
:101CC000FEF784FD0346BB73BA7BFB7B1343BB73F8
:101CD0007B681B680C33BA7B11461846FEF774FD0F
:101CE00000BF1037BD4680BDC842002080B584B01B
:101CF00000AF78600B46FB70FB78002B00D100BE74
:101D0000FB78102B00D900BEFB78002B36D0FB7877
:101D1000102B33D8FB781B4AD35CFB73FB78082B62
:101D200016D87B681B6808331846FEF74FFD03463C
:101D3000BB73FB7BDB43DAB2BB7B1340BB737B68BB
:101D40001B680833BA7B11461846FEF73DFD15E0C7
:101D50007B681B680C331846FEF738FD0346BB73DF
:101D6000FB7BDB43DAB2BB7B1340BB737B681B6836
:101D70000C33BA7B11461846FEF726FD00BF10371C
:101D8000BD4680BDC842002080B588B000AFF86075
:101D90000B467A60FB72FB7A002B00D100BEFB7A07
:101DA000102B00D900BEFB681B6804331846FEF7F1
:101DB000DDFCF8617A68FB699A4200D900BEFB7AC3
:101DC000002B3AD0FB7A102B37D87B68002B05D13B
:101DD000FB7A1946F868FFF789FF2EE0FB681A685E
:101DE000FB7A184951F82330134400211846FEF7B6
:101DF000BBFCFB681A68FB7A134951F82330134483
:101E000079681846FEF7B0FCFB7A0F4A52F8233087
:101E1000BB61FB681A68BB6913441846FEF7D6FC21
:101E20000346FB757B68DBB2FA7D9A4200D000BEA8
:101E3000FB7A1946F868FFF70FFF00BF2037BD4651
:101E400080BD00BFDC4200202043002080B586B06A
:101E500000AFF860B9601346FB710023FB75BB68E7
:101E60003B61FB68BA681A60FB68FA791A71002353
:101E7000FB75BB683B6109E000213869FEF7A4FCF3
:101E80003B6904333B61FB7D0133FB75FB7D1F2BFD
:101E9000F2D9FB681B79012B0DD0022B02D0002B4D
:101EA0001AD036E0FB681B6880334FF0FF311846CC
:101EB000FEF75AFC2FE0FB681B6880334FF6FF717A
:101EC0001846FEF769FCFB681B6884334FF6FF7108
:101ED0001846FEF761FC1EE0FB681B688033FF219B
:101EE0001846FEF771FCFB681B688433FF21184617
:101EF000FEF76AFCFB681B688833FF211846FEF773
:101F000063FCFB681B688C33FF211846FEF75CFC02
:101F100001E000BE00BF00BF1837BD4680BD80B5E0
:101F200086B000AFF8600B467A60FB72FB7A1F2B1D
:101F300000D900BEFB7A1F2B14D8FB681B687B619D
:101F4000FB7A9B001A467B6913447B617968786948
:101F5000FEF70AFC7869FEF709FC02467B689A42A4
:101F600000D000BE00BF1837BD4680BD80B582B02E
:101F700000AF786039607B681B79012B0CD0022B95
:101F800002D0002B1DD047E07B681B68A033396866
:101F90001846FEF7E9FB41E07B681B68A0333A680E
:101FA00092B211461846FEF7F7FB7B681B6803F1F7
:101FB000A4023B681B0C9BB219461046FEF7ECFBD3
:101FC0002CE07B681B68A0333A68D2B211461846F1
:101FD000FEF7FAFB7B681B6803F1A4023B681B0A4F
:101FE000DBB219461046FEF7EFFB7B681B6803F176
:101FF000A8023B681B0CDBB219461046FEF7E4FB57
:102000007B681B6803F1AC023B681B0EDBB2194610
:102010001046FEF7D9FB01E000BE00BF786800F073
:1020200009F802463B689A4200D000BE00BF08375C
:10203000BD4680BD80B584B000AF78600023FB60F2
:102040007B681B79012B0CD0022B02D0002B20D0F7
:102050004FE07B681B68A0331846FEF787FBF860EB
:1020600049E07B681B68A0331846FEF797FB0346E0
:102070001A46FB681343FB607B681B68A433184651
:10208000FEF78CFB03461B041A46FB681343FB60F8
:1020900031E07B681B68A0331846FEF77FFB0346E0
:1020A0001A46FB681343FB607B681B68A433184621
:1020B000FEF774FB03461B021A46FB681343FB60E2
:1020C0007B681B68A8331846FEF768FB03461B04B1
:1020D0001A46FB681343FB607B681B68AC331846E9
:1020E000FEF75CFB03461B061A46FB681343FB60C6
:1020F00001E000BE00BFFB6818461037BD4680BD3A
:1021000080B584B000AF78600B46FB707B681B68BD
:10211000FB60FB781F2B00D900BEFB781F2B12D869
:10212000FB789B001A46FB681344FB60F868FEF7D7
:102130004DFB0346BB60BB6843F00803BB60B96856
:10214000F868FEF741FB00BF1037BD4680BD80B583
:1021500084B000AF78600B46FB707B681B68FB6047
:10216000FB781F2B00D900BEFB781F2B12D8FB7801
:102170009B001A46FB681344FB60F868FEF726FBD9
:102180000346BB60BB6823F00803BB60B968F8680E
:10219000FEF71AFB00BF1037BD4680BD80B584B086
:1021A00000AF78600B46FB70FB78012202FA03F364
:1021B000FB607B681B79012B0CD0022B02D0002B1B
:1021C0001AD03FE07B681B688033F9681846FEF739
:1021D000CBFA39E07B681B688033F9681846FEF754
:1021E000DBFA7B681B6803F18402FB681B0C194651
:1021F0001046FEF7D1FA27E07B681B688033F96848
:102200001846FEF7E1FA7B681B6803F18402FB685D
:102210001B0A19461046FEF7D7FA7B681B6803F1C4
:102220008802FB681B0C19461046FEF7CDFA7B6846
:102230001B6803F18C02FB681B0E19461046FEF763
:10224000C3FA01E000BE00BF00BF1037BD4680BD2D
:1022500080B500AF00F0FAF8044A044B5B6943F420
:1022600000735361FEF7E6F800BF80BD00ED00E0AB
:1022700080B588B000AF304BD3F8983003F080635E
:10228000FB61FB69002B4CD12B4BD3F8983003F446
:102290008053BB61BB69002B15D1284B284A1A60BB
:1022A000284B274A1A60284B254A1A60274B284A90
:1022B0001A60284B284A1A60284B214A1A60284B7A
:1022C0001F4A1A6034E0274A3B1D92E8030083E866
:1022D0000300194BD3F89C309B0903F007037B6183
:1022E0003A1D7B6913441B78FB74FB7C012B0AD0DD
:1022F000022B0DD0002B0FD100F038F8F860F868F1
:1023000000F052F814E04FF4004000F04DF80FE0F8
:10231000154800F049F80BE0134800F045F800BFFD
:1023200006E000F023F8F860F86800F03DF8FFE7F9
:1023300000BF2037BD4680BD00800340D44500204B
:10234000003B5808D8450020DC450020E04500202F
:10235000C00E1602E4450020801D2C04E845002034
:10236000EC4500206443002040420F0080B483B05D
:1023700000AF0A4BD3F8503103F004033B603B68D5
:10238000002B02D1064B7B6001E0064B7B607B6833
:1023900018460C37BD4680BC704700BF0080034024
:1023A00040787D0180F0FA0280B483B000AF78609D
:1023B0000C4A7B6813600C4A7B6813600B4A7B688D
:1023C00013600B4B0B4A1A600B4A7B6813600B4A75
:1023D0007B6813600A4A7B68136000BF0C37BD46F8
:1023E00080BC7047D4450020D8450020DC45002043
:1023F000E0450020C00E1602E4450020E84500201C
:10240000EC45002080B483B000AF0E4BD3F84C31C4
:102410003B603B684FF60202934203D00A4A934264
:1024200003D005E001237B6005E002237B6002E02E
:1024300000237B6000BF7B6818460C37BD4680BC1C
:10244000704700BF0080034002F8010080B582B0F1
:1024500000AFFFF7D7FF78607B68012B00D002E068
:1024600000F006F800BF00BF0837BD4680BD000081
:1024700080B400AF094A094BD3F8983043F4807315
:10248000C2F89830054A054BD3F8983023F08063A2
:10249000C2F8983000BFBD4680BC70470080034042
:1024A00080B483B000AF0346FB71084997F9073049
:1024B0005B09FA7902F01F02012000FA02F241F8EA
:1024C000232000BF0C37BD4680BC704700E100E010
:1024D00080B483B000AF0346FB71094997F9073018
:1024E0005B09FA7902F01F02012000FA02F22033A0
:1024F00041F8232000BF0C37BD4680BC704700BFA9
:1025000000E100E080B483B000AF0346FB710949ED
:1025100097F907305B09FA7902F01F02012000FAEF
:1025200002F2603341F8232000BF0C37BD4680BC67
:10253000704700BF00E100E080B483B000AF034605
:102540003960FB7197F90730002B0BDA0D49FB79E5
:1025500003F00F03043B3A68D2B21201D2B20B442B
:102560001A7609E0084997F907303A68D2B21201A1
:10257000D2B20B4483F8002300BF0C37BD4680BCA9
:10258000704700BF00ED00E000E100E080B582B0E0
:1025900000AF0346FB710E20FFF79AFF104A104B65
:1025A0009B6C23F0400393644FF0402300225A6554
:1025B0000C4B0022C3F880210A4B0022C3F888216B
:1025C000084AFB79C2F884314FF0402301221A6196
:1025D0000E20FFF797FF00BF0837BD4680BD00BF44
:1025E000008003400000084280B400AF034B01228A
:1025F000C3F8802100BFBD4680BC70470000084280
:1026000080B483B000AF78604FF040227B685360A5
:1026100000BF0C37BD4680BC7047000080B500AFDE
:10262000044B0122C3F888210E20FFF739FF00BFB9
:1026300080BD00BF0000084280B500AF044B0022FF
:10264000C3F888210E20FFF743FF00BF80BD00BF05
:102650000000084280B400AF4FF0402301221A610D
:10266000BFF34F8F00BFBD4680BC70470000000025
:1026700090B58BB000AF01F093FC614800F054FDC1
:1026800040F69F7304224FF0A0415E48FFF747FADF
:10269000C82000F03BF95C4800F046FD4FF4FA70AA
:1026A00000F034F9082259495948FFF7ABF8584867
:1026B000FFF709F956490320FDF730FF544A03217B
:1026C0000120FDF7FFFF3B4620220021184600F0C5
:1026D00023FD012325224F494F48FEF78DFF4F4828
:1026E00000F022FDFFF7C4FD02224D494D48FFF7DF
:1026F000ADFB052200214B48FFF711FC052201210B
:102700004848FFF70CFC052202214648FFF707FC6A
:10271000454B1B6819464348FFF728FC432200211C
:102720004048FFF7FCFB432201213E48FFF7F7FB3F
:10273000052202213B48FFF7F2FB3C4800F0F4FC85
:1027400000213848FFF7DCFC01213648FFF7D8FCB0
:102750002320FFF7A5FE2420FFF7A2FE0621232059
:10276000FFF7EAFE05212420FFF7E6FE304B1A684A
:1027700013469B0013443B620020FFF707FF386AB3
:10278000FFF73EFFFFF730FFFFF748FF294800F053
:10279000CBFC2148FFF719F80346002B06D13B4636
:1027A000202219461C48FEF7B0FF78627B6A002B96
:1027B00011D03B78412B0ED11F4800F0B5FC00230F
:1027C0003B70012201210F48FFF7DEFA00220121B0
:1027D0000C48FFF7D9FA0E490120FDF743FF06A385
:1027E000D3E9002300F062FA03460C461A4623465A
:1027F000124800F099FCCCE7E17A14AE47E10240C0
:102800006C430020E04800209C4300200040005022
:102810008047002000200050D8480020D4430020EA
:1028200000100030D0480020F0450020F043002088
:10283000D8450020084400202844002048440020B7
:1028400098B500AF01F0ACFB0B490120FDF70AFF82
:1028500007A3D3E9002300F029FA03460C461A46E1
:102860002346064800F060FCFFF7F4FE00BF98BD69
:10287000E17A14AE47E10240804700206444002022
:1028800080B500AF00211248FFF761FC012110481C
:10289000FFF75DFC01F084FB0E4800F045FC0021D1
:1028A0000B48FFF77BFC01210948FFF777FC00216B
:1028B0000748FFF725FC01210548FFF721FC0648E2
:1028C00000F032FC4FF47A6000F020F8F7E700BF28
:1028D000D0480020804400209844002080B500AFFC
:1028E000FFF7AAFE00210648FFF731FC01F058FB74
:1028F000044800F019FC044800F016FC00BF80BD3D
:10290000D0480020AC440020F844002080B485B0BA
:1029100000AF78600023FB6002E0FB680133FB60DE
:102920007B6841F6641202FB03F2FB689A42F4DC16
:1029300000BF1437BD4680BC7047000081F00041E5
:1029400002E000BF83F0004330B54FEA41044FEA94
:10295000430594EA050F08BF90EA020F1FBF54EA2F
:10296000000C55EA020C7FEA645C7FEA655C00F0CB
:10297000E2804FEA5454D4EB5555B8BF6D420CDD9C
:102980002C4480EA020281EA030382EA000083EA1F
:10299000010180EA020281EA0303362D88BF30BDBF
:1029A00011F0004F4FEA01314FF4801C4CEA113115
:1029B00002D0404261EB410113F0004F4FEA033374
:1029C0004CEA133302D0524263EB430394EA050FFF
:1029D00000F0A780A4F10104D5F1200E0DDB02FA6E
:1029E0000EFC22FA05F2801841F1000103FA0EF202
:1029F000801843FA05F359410EE0A5F120050EF1C8
:102A0000200E012A03FA0EFC28BF4CF0020C43FAF8
:102A100005F3C01851EBE37101F0004507D54FF005
:102A2000000EDCF1000C7EEB00006EEB0101B1F555
:102A3000801F1BD3B1F5001F0CD349085FEA30009B
:102A40004FEA3C0C04F101044FEA445212F5800FA6
:102A500080F09A80BCF1004F08BF5FEA500C50F143
:102A6000000041EB045141EA050130BD5FEA4C0C26
:102A7000404141EB010111F4801FA4F10104E9D1AF
:102A800091F0000F04BF01460020B1FA81F308BFA6
:102A90002033A3F10B03B3F120020CDA0C3208DD72
:102AA00002F1140CC2F10C0201FA0CF021FA02F14D
:102AB0000CE002F11402D8BFC2F1200C01FA02F1BD
:102AC00020FA0CFCDCBF41EA0C019040E41AA2BFE2
:102AD00001EB0451294330BD6FEA04041F3C1CDAAA
:102AE0000C340EDC04F11404C4F1200220FA04F0CA
:102AF00001FA02F340EA030021FA04F345EA030174
:102B000030BDC4F10C04C4F1200220FA02F001FA35
:102B100004F340EA0300294630BD21FA04F02946B7
:102B200030BD94F0000F83F4801306BF81F4801150
:102B30000134013D4EE77FEA645C18BF7FEA655CC3
:102B400029D094EA050F08BF90EA020F05D054EA95
:102B5000000C04BF1946104630BD91EA030F1EBF9A
:102B60000021002030BD5FEA545C05D1400049419E
:102B700028BF41F0004130BD14F580043CBF01F591
:102B8000801130BD01F0004545F0FE4141F4700177
:102B90004FF0000030BD7FEA645C1ABF1946104652
:102BA0007FEA655C1CBF0B46024650EA013406BF53
:102BB00052EA033591EA030F41F4002130BD00BF12
:102BC00090F0000F04BF0021704730B54FF48064CF
:102BD00004F132044FF000054FF0000150E700BF50
:102BE00090F0000F04BF0021704730B54FF48064AF
:102BF00004F1320410F0004548BF40424FF000019C
:102C00003EE700BF42004FEAE2014FEA31014FEADE
:102C100002701FBF12F07F4393F07F4F81F060512D
:102C2000704792F0000F14BF93F07F4F704730B59C
:102C30004FF4607401F0004521F0004120E700BF2F
:102C400050EA010208BF704730B54FF000050AE0B6
:102C500050EA010208BF704730B511F0004502D5B7
:102C6000404261EB41014FF4806404F132045FEAB9
:102C7000915C3FF4DCAE4FF003025FEADC0C18BF5E
:102C800003325FEADC0C18BF033202EBDC02C2F154
:102C9000200300FA03FC20FA02F001FA03FE40EAE6
:102CA0000E0021FA02F11444C1E600BF70B54FF0E6
:102CB000FF0C4CF4E06C1CEA11541DBF1CEA1355C8
:102CC00094EA0C0F95EA0C0F00F0DEF82C4481EA30
:102CD000030621EA4C5123EA4C5350EA013518BF50
:102CE00052EA033541F4801143F4801338D0A0FB3D
:102CF00002CE4FF00005E1FB02E506F00042E0FBEA
:102D000003E54FF00006E1FB03569CF0000F18BFEF
:102D10004EF0010EA4F1FF04B6F5007F64F5407497
:102D200004D25FEA4E0E6D4146EB060642EAC6212A
:102D300041EA55514FEAC52040EA5E504FEACE2E97
:102D4000B4F1FD0C88BFBCF5E06F1ED8BEF1004F9A
:102D500008BF5FEA500E50F1000041EB045170BD16
:102D600006F0004646EA010140EA020081EA03015A
:102D7000B4EB5C04C2BFD4EB0C0541EA045170BD56
:102D800041F480114FF0000E013C00F3AB8014F1D0
:102D9000360FDEBF002001F0004170BDC4F1000419
:102DA000203C35DA0C341BDC04F11404C4F120059A
:102DB00000FA05F320FA04F001FA05F240EA0200F5
:102DC00001F0004221F0004110EBD37021FA04F62B
:102DD00042EB06015EEA430E08BF20EAD37070BDE5
:102DE000C4F10C04C4F1200500FA04F320FA05F044
:102DF00001FA04F240EA020001F0004110EBD37046
:102E000041F100015EEA430E08BF20EAD37070BDB5
:102E1000C4F1200500FA05F24EEA020E20FA04F38E
:102E200001FA05F243EA020321FA04F001F000413D
:102E300021FA04F220EA020000EBD3705EEA430EAE
:102E400008BF20EAD37070BD94F0000F0FD101F0DD
:102E50000046400041EB010111F4801F08BF013C16
:102E6000F7D041EA060195F0000F18BF704703F054
:102E70000046520043EB030313F4801F08BF013DDB
:102E8000F7D043EA0603704794EA0C0F0CEA135597
:102E900018BF95EA0C0F0CD050EA410618BF52EA51
:102EA0004306D1D181EA030101F000414FF0000057
:102EB00070BD50EA410606BF1046194652EA430665
:102EC00019D094EA0C0F02D150EA013613D195EAD9
:102ED0000C0F05D152EA03361CBF104619460AD121
:102EE00081EA030101F0004141F0FE4141F470012B
:102EF0004FF0000070BD41F0FE4141F4780170BD1B
:102F000070B54FF0FF0C4CF4E06C1CEA11541DBF7F
:102F10001CEA135594EA0C0F95EA0C0F00F0A7F881
:102F2000A4EB050481EA030E52EA03354FEA0131AE
:102F300000F088804FEA03334FF0805545EA1313C1
:102F400043EA12634FEA022245EA111545EA106589
:102F50004FEA00260EF000419D4208BF964244F120
:102F6000FD0404F5407402D25B084FEA3202B61A3F
:102F700065EB03055B084FEA32024FF480104FF413
:102F8000002CB6EB020E75EB030E22BFB61A754687
:102F900040EA0C005B084FEA3202B6EB020E75EB1A
:102FA000030E22BFB61A754640EA5C005B084FEA82
:102FB0003202B6EB020E75EB030E22BFB61A75464F
:102FC00040EA9C005B084FEA3202B6EB020E75EB5A
:102FD000030E22BFB61A754640EADC0055EA060E1B
:102FE00018D04FEA051545EA16754FEA06164FEA5E
:102FF000C30343EA52734FEAC2025FEA1C1CC0D10A
:1030000011F4801F0BD141EA00014FF000004FF096
:10301000004CB6E711F4801F04BF01430020B4F157
:10302000FD0C88BFBCF5E06F3FF6AFAEB5EB030C0F
:1030300004BFB6EB020C5FEA500C50F1000041EB0C
:10304000045170BD0EF0004E4EEA113114EB5C04D9
:10305000C2BFD4EB0C0541EA045170BD41F48011AC
:103060004FF0000E013C90E645EA060E8DE60CEAB4
:10307000135594EA0C0F08BF95EA0C0F3FF43BAFD1
:1030800094EA0C0F0AD150EA01347FF434AF95EA88
:103090000C0F7FF425AF104619462CE795EA0C0F6C
:1030A00006D152EA03353FF4FDAE1046194622E739
:1030B00050EA410618BF52EA43067FF4C5AE50EA13
:1030C00041047FF40DAF52EA43057FF4EBAE12E703
:1030D00070B500250C4E0D4CA41BA410A54209D1BF
:1030E00001F062FA00250A4E0A4CA41BA410A54266
:1030F00005D170BD56F8253098470135EEE756F8F2
:10310000253098470135F2E7C0450020C045002032
:10311000C0450020C445002003460244934200D12C
:10312000704703F8011BF9E70FB40A4B13B51C688D
:1031300024B1A36913B9204600F04EF805AB049AF8
:10314000A1682046019300F057F902B0BDE8104095
:1031500004B07047F4450020014900F0A9B800BF51
:10316000D13C0020002310B5044603604360836017
:1031700081814366C28103614361836119460822EC
:103180005C30FFF7C9FF054B24626362044BA36206
:10319000044BE362044B236310BD00BF753900206C
:1031A00097390020CF390020F339002070B5682509
:1031B0004A1E55430E4605F1740100F097F8044687
:1031C00040B1002180E842000C30A06005F16802A7
:1031D000FFF7A2FF204670BD836910B5044633BBDC
:1031E0008364C3640365124B124A1B68826298426F
:1031F00004BF0123836100F01FF86060204600F0E7
:103200001BF8A060204600F017F80022E0600421BF
:103210006068FFF7A7FF01220921A068FFF7A2FF5E
:1032200002221221E068FFF79DFF0123A36110BD78
:103230000C45002059310020F8B51C4B07461E688C
:10324000B36913B93046FFF7C7FF4836B4687368EF
:10325000013B03D5336833B13668F7E7B4F90C5056
:103260006DB16834F4E704213846FFF79FFF306002
:103270000028F1D10C2304463B602046F8BD4FF6F0
:10328000FF73E38101236566A3812560A560656006
:1032900025616561A5610822294604F15C00FFF7FC
:1032A0003BFF6563A563A564E564E6E70C45002084
:1032B0002DE9F84380468946002600F1480414B9F8
:1032C0003046BDE8F883A5686768013F01D52468EA
:1032D000F5E7AB89012B07D9B5F90E30013303D0DF
:1032E00029464046C84706436835EEE770B5CD1C11
:1032F00025F0030508350C2D38BF0C25002D06469A
:1033000001DBA94203D90C233360002070BD00F01B
:103310008DFD234A1468214691B9224C23681BB9BC
:10332000304600F017FB20602946304600F012FBC3
:10333000431C26D10C233046336000F078FDE4E7CF
:103340000B685B1B1AD40B2B0FD90B60CC18CD501C
:10335000304600F06CFD04F10B00231D20F0070047
:10336000C31A1BD05A42E25070BD8C420BBF636837
:103370004B681360636018BF0C46E9E70C46496868
:10338000CAE7C41C24F00304A04205D0211A304629
:1033900000F0E0FA0130CDD02560D9E770BD00BF64
:1033A000C8460020CC460020936810B4013B002B97
:1033B000936008DA9469A34202DBCBB20A2B02D1F4
:1033C00010BC00F01BBB1368581C10601970C8B209
:1033D00010BC7047F8B506460F461446D518AC42E7
:1033E00001D1002007E03A4614F8011B3046FFF7F0
:1033F000DBFF431CF3D1F8BD2DE9F04F9DB00C4627
:1034000017460393064618B183690BB9FFF7E4FE2C
:103410007C4B9C4257D17468A38918075DD52369FA
:10342000002B5AD00023099320238DF82930302314
:103430004FF0010B8DF82A30B846454615F8013B90
:10344000002B55D1B8EB070A0BD053463A4621461C
:103450003046FFF7BFFF013000F0C480099B5344A2
:10346000099398F80030002B00F0BC8000234FF047
:10347000FF3204930793059206938DF853301A9305
:1034800005222978604800F0C3FC05F10108049B7F
:10349000002831D1D90644BF20228DF853201A07C5
:1034A00044BF2B228DF853202A782A2A2CD00021C1
:1034B0000A20079AA84698F800300135303B092BBE
:1034C0006DD971B326E0514B9C4201D1B468A3E79A
:1034D0004F4B9C4208BFF4689EE72146304600F0FF
:1034E000F1FA00289ED04FF0FF301DB0BDE8F08FFC
:1034F000252BA7D0A846A0E7434A4546801A0BFAD9
:1035000000F018430490BBE7039A111D1268039161
:10351000002A01DB079204E0524243F002030792C3
:10352000049398F800302E2B10D198F8013008F150
:1035300001012A2B37D1039B08F102081A1D1B68D1
:103540000392002BB8BF4FF0FF330593314D032298
:1035500098F80010284600F05BFC40B14023401B67
:1035600003FA00F0049B08F101080343049398F860
:1035700000100622284808F101078DF8281000F0F5
:1035800047FC002834D0254B03BB039B073323F0B3
:10359000070308330393099B4B4409934CE700FB53
:1035A0000232012186E700230A2518460593884642
:1035B00098F800200131303A092A03D9002BC5D0F0
:1035C0000590C3E705FB00200123F0E703AB009360
:1035D0002246134B04A93046AFF30080B0F1FF3F01
:1035E0008146D8D1A3895B063FF57DAF09987CE77A
:1035F00003AB009322460A4B04A9304600F08AF838
:10360000ECE700BF30450020704500205045002009
:1036100010450020764500207A450020000000007B
:10362000D53300202DE9F04791461F468A680B6983
:1036300006469342B8BF1346C9F8003091F84320BC
:103640000C46DDF8208012B10133C9F80030236840
:10365000990642BFD9F800300233C9F80030256816
:1036600015F0060507D104F1190AE368D9F800201E
:103670009B1A9D422ADB94F843302268003318BF1E
:10368000012392062FD404F1430239463046C04745
:10369000013022D02368E56803F00603042B18BF2D
:1036A0000025D9F800204FF0000908BFAD1AA36823
:1036B000226908BF25EAE5759342C4BF9B1AED183D
:1036C0001A344D451BD10020BDE8F0870123524636
:1036D00039463046C047013003D14FF0FF30BDE8D6
:1036E000F0870135C1E73020E11881F843005A1C0A
:1036F00094F845102244023382F84310C3E70123B3
:10370000224639463046C0470130E6D009F101096A
:10371000D7E700002DE9F04317460A7E85B06E2AF0
:10372000984606460C460C9B01F1430E00F0BC8007
:103730001AD8632A2ED00AD8002A00F0C880582A46
:1037400000F08A8004F1420584F842202AE0642ACD
:1037500001D0692AF6D121681A6811F0800F23D0B0
:10376000111D1960136827E0732A00F0B48008D88F
:103770006F2A2AD0702AE5D10A6842F020020A6036
:1037800003E0752A21D0782ADCD178226F4984F8A9
:10379000452064E01A6801F14205111D19601368A3
:1037A00084F842300123A3E011F0400F02F104013C
:1037B0001960D7D0B2F90030002B03DA2D225B421A
:1037C00084F8432062490A2217E02068196810F043
:1037D000800F03D0081D18600B6806E010F0400F42
:1037E00001F104001860F7D00B886F2A14BF0A2279
:1037F00008225749002084F843006568002DA56021
:10380000C0F29C80206820F004002060002B3FD193
:10381000002D40F095807546082A0BD12368DA0701
:1038200008D5236962689A42DEBF302305F8013C5F
:1038300005F1FF35AEEB05032361CDF800803B4673
:1038400003AA21463046FFF7EDFE013055D14FF077
:10385000FF3005B0BDE8F08381F845203C4922687F
:10386000186812F0800F00F104051D6001D0036894
:1038700002E05506FBD50388D00744BF42F0200282
:1038800022601BB9226822F0200222601022B1E7D8
:103890007546B3FBF2F002FB1033CB5C05F8013D3B
:1038A00003460028F5D1B7E708681A6810F0800FC2
:1038B000496904D0101D18601368196007E010F002
:1038C000400F02F1040018601368F6D0198000233D
:1038D00075462361B1E71A68111D1960156800214A
:1038E0006268284600F094FA08B1401B6060636883
:1038F0002361002384F843309FE723692A46394631
:103900003046C0470130A2D023689B0707D5002569
:1039100004F11909E368039A9B1A9D4205DBE068EC
:10392000039B9842B8BF184693E701234A4639469D
:103930003046C04701308AD00135EBE7002BA7D1D4
:103940000B7804F1420584F8423065E79245002087
:103950008145002038B50023054C05460846236004
:1039600000F03CFC431C02D1236803B12B6038BD3E
:10397000E448002010B50C46B1F90E1000F0A4FA8E
:103980000028ABBF636DA3891B1823F48053ACBF21
:103990006365A38110BD2DE9F0411F468B89054663
:1039A000DB050C46164605D502230022B1F90E10A0
:1039B00000F0B8F9A389324623F48053A381B4F907
:1039C0000E103B462846BDE8F04100F069B810B53E
:1039D0000C46B1F90E1000F0A5F9431CA38915BFE0
:1039E000606523F4805343F48053A38118BFA381FF
:1039F00010BDB1F90E1000F0D3B80000F8B50E46B6
:103A00001446054618B183690BB9FFF7E5FB214B56
:103A10009C422AD16C68A369A360A3891A072ED59A
:103A2000236963B323692068F6B2C01A6369374615
:103A3000984204DB2146284600F04AF928BBA368D7
:103A40000130013BA36023685A1C22601E70636929
:103A5000984204D0A389DB0719D50A2E17D1214635
:103A6000284600F035F990B10FE00B4B9C4201D194
:103A7000AC68D0E7094B9C4208BFEC68CBE7214615
:103A8000284600F01FF80028CCD04FF0FF3738460A
:103A9000F8BD00BF304500205045002010450020F3
:103AA00038B50546084611460022054C22601A46E4
:103AB00000F041FB431C02D1236803B12B6038BDE9
:103AC000E4480020324B70B51D6806460C4625B10F
:103AD000AB6913B92846FFF77FFB2E4B9C420FD1F1
:103AE0006C68B4F90C309AB215072CD4D00611D4F6
:103AF0000922326043F04003A3814FF0FF3070BDD4
:103B0000254B9C4201D1AC68EBE7244B9C4208BF9B
:103B1000EC68E6E7510712D5616B41B104F144034B
:103B2000994202D0304600F083F900236363A389F1
:103B300023F02403A3810023636023692360A38906
:103B400043F00803A38123694BB9A38903F42073CD
:103B5000B3F5007F03D02146304600F019F9A28961
:103B600012F001030CD00023A36063695B42A361E0
:103B7000236953B9B4F90C3013F08000BAD170BD89
:103B8000920758BF6369A360F2E70020F7E700BF20
:103B9000F44500203045002050450020104500200D
:103BA00038B50023054C05460846236000F0F2FABC
:103BB000431C02D1236803B12B6038BDE4480020C8
:103BC0008A892DE9F041054610070C465AD44B6806
:103BD000002B05DC0B6C002B02DC0020BDE8F08123
:103BE000E66A002EF9D0002312F480522F682B6071
:103BF00033D0606DA3895A0705D56368C01A636B1B
:103C00000BB1236CC01A00230246E66A216A2846DB
:103C1000B047431CA38906D129681D294BD82B4ADC
:103C2000CA40D60747D5002262602269D9042260C3
:103C300004D5421C01D12B6803B96065616B2F600C
:103C40000029CAD004F14403994202D0284600F06A
:103C5000EFF800206063BDE8F081216A0123284667
:103C6000B047411CC6D12B68002BC3D01D2B01D0FF
:103C7000162B01D12F60B0E7A38943F04003A38145
:103C8000BDE8F0810F69002FA7D0930718BF00236C
:103C90000E6808BF4B69A6EB07080F608B60B8F190
:103CA000000F9ADD43463A46216A2846A66AB04785
:103CB000002807DCA38943F04003A3814FF0FF30C5
:103CC000BDE8F0810744A8EB0008E8E701004020C8
:103CD00038B50B6905460C46DBB118B183690BB9E1
:103CE000FFF77AFA0C4B9C4209D16C68B4F90C309E
:103CF0007BB121462846BDE83840FFF761BF074B3E
:103D00009C4201D1AC68F1E7054B9C4208BFEC68CE
:103D1000ECE7002038BD00BF3045002050450020B2
:103D20001045002038B50546084611460022054CCE
:103D300022601A4600F0EDF9431C02D1236803B15A
:103D40002B6038BDE448002070B50E46B1F90E1066
:103D500090B0002914461D4607DA00232B60B38972
:103D60001A0610D44FF480630EE001AA00F0BEF8EA
:103D70000028F2DB029A02F47042A2F500535A4284
:103D80005A412A60EEE740230020236010B070BD46
:103D90008B8973B59D0706460C4607D504F147038A
:103DA000236023610123636102B070BD01AB6A46E9
:103DB000FFF7CAFF009905463046FFF797FA48B962
:103DC000B4F90C309A05EFD423F0030343F0020357
:103DD000A381E3E70D4BB362A389206043F0800326
:103DE000A381009B20616361019B5BB1B4F90E105C
:103DF000304600F08DF828B1A38923F0030343F087
:103E00000103A381A3891D43A581CDE7593100207A
:103E100010B5C9B202449042034601D1002010BD42
:103E20001C7801308C42F6D1184610BD704770479F
:103E300038B50546002943D051F8043C0C1F002B2F
:103E4000B8BFE418FFF7F2FF1E4A1368104633B9F3
:103E5000636014602846BDE83840FFF7E8BFA3421E
:103E60000BD921686218934201BF1A685B68521827
:103E7000226063600460EDE713465A680AB1A2420B
:103E8000FAD919685818A0420BD120680144581873
:103E900082421960DED110685268014419605A608C
:103EA000D8E702D90C232B60D4E7206821188A4276
:103EB00001BF116852680918216062605C60C9E73F
:103EC00038BD00BFC846002038B505460846114633
:103ED0000022054C22601A4600F0C4F8431C02D1AF
:103EE000236803B12B6038BDE448002038B50023B7
:103EF000064C054608461146236000F0B4F9431C01
:103F000002D1236803B12B6038BD00BFE448002014
:103F100038B50023054C05460846236000F0B1F98A
:103F2000431C02D1236803B12B6038BDE448002054
:103F30000A4B10B50446186818B183690BB9FFF72E
:103F40004BF9132C07D8064850F83430013302D00F
:103F500000EBC40010BD002010BD00BFF4450020E0
:103F6000E0460020F8B5431C054609D100F0A6F94B
:103F700000270646132420463946ABBE044634606B
:103F80002846F8BDF8B5054600F098F90027064622
:103F9000132420463946ABBE044634602846F8BD9B
:103FA0002DE9FF474FF003080023DFF89490012428
:103FB000CDF8049001AFCDF80C800293204639462D
:103FC000ABBE054604231A4ECDF804903560CDF8FB
:103FD0000C80029320463946ABBE82460823154D1D
:103FE000CDF80490C5F800A0CDF80C8002932046CF
:103FF0003946ABBE044600214FF0FF300E4A146034
:10400000013404BF2B6813600C4B43F831000131BD
:104010001429FAD1316828681960002112685960A2
:104020009860D9601A61596104B0BDE8F08700BF9B
:10403000D8460020DC460020D4460020E046002080
:10404000A345002030B585B001900291039201ADE7
:10405000062420462946ABBE04462046FFF782FFD1
:1040600005B030BD70B50E461546FFF761FF04463A
:1040700030B900F023F9092303604FF0FF3070BD21
:104080002A4631460068FFF7DDFF431C1FBF636807
:10409000281A1B18636070BDF7B50C461646FFF76B
:1040A00047FF054640B900F009F9092303604FF0C6
:1040B000FF34204603B0F0BD022E03D900F0FEF815
:1040C0001623F3E7012E12D14368E418F6D42B68C7
:1040D0006F468DE818000A2630463946ABBE0646C4
:1040E0003046FFF73FFF0028E1DB6C60E1E7022E7E
:1040F000EDD1036802AF47F8083D0C26304639463B
:10410000ABBE06463046FFF72DFF431CCFD004441C
:10411000DDE7FFF7C1BF30B585B001900291039292
:1041200001AD052420462946ABBE04462046FFF7D4
:1041300019FF05B030BD70B50E461546FFF7F8FE05
:10414000044630B900F0BAF8092303604FF0FF309D
:1041500070BD2A4631460068FFF7DDFF021EF5DB21
:104160006368A81A034495426360F1D1BDE87040CA
:104170000020FFF707BF37B502AD45F8040D022454
:1041800020462946ABBE04462046FFF7EBFE03B0AF
:1041900030BD000038B50546FFF7CAFE044630B909
:1041A00000F08CF8092303604FF0FF3038BD013D6B
:1041B000012D09D8084B9A681B699A4204D14FF027
:1041C000FF330360002038BD2068FFF7D4FF10B92B
:1041D0004FF0FF33236038BDE04600200D4B10B593
:1041E0001968024609B90C49196069461868024401
:1041F0008A4206D809490A4C0968A14208D08A4275
:1042000006D900F05BF80C2303604FF0FF3010BDBF
:104210001A6010BDD0460020F0480020584600200B
:10422000ADDEFECA70B50C46FFF782FE064630B919
:1042300000F044F8092303604FF0FF3070BD63685D
:104240000C2543F4005363604FF48063E362284617
:104250003146ABBE05462846FFF784FE431C1CBF13
:104260002061002070BD38B50C460546002120466F
:104270003C22FEF751FF21462846BDE83840FFF7B3
:10428000D1BF70B5FFF754FE0925044620B900F0F0
:1042900015F80560204670BD28462146ABBE044691
:1042A000012CF7D000F00AF8002406461325284612
:1042B0002146ABBE05463560ECE70000014B1868AF
:1042C000704700BFF44500200001020408102040A0
:1042D000800102040810204080000000000000005F
:1042E000100000001800000020000000280000005E
:1042F00030000000380000004000000048000000CE
:10430000500000005800000060000000680000003D
:1043100070000000780000008000000088000000AD
:1043200000000000140000001C0000002400000039
:104330002C000000340000003C000000440000009D
:104340004C000000540000005C000000640000000D
:104350006C000000740000007C000000840000007D
:104360008C00000000010001020203034465627535
:1043700067206D657373616765732076696120419D
:10438000524D2053656D69686F7374696E6720695B
:104390006E697469616C697A65640A00436F6D7057
:1043A0006C6574652050574D20496E697469616C65
:1043B000697A6174696F6E20616E6420696E6974D8
:1043C00069616C20706F736974696F6E20737461BA
:1043D00072740A00436F72655541525461706220D5
:1043E000696E697469616C697A65640A000000002D
:1043F000436F72654750494F20636F6E66696775FA
:104400007265640A0000000054696D657220696E6F
:10441000697469616C697A656420616E6420737483
:1044200061727465640A0000526F7574696E65206C
:10443000274127205265636569766564202D204CED
:104440004544310A000000004144432056616C7528
:104450006520666F7220436820313A20252E33662E
:10446000000000004144432056616C756520666F72
:104470007220436820313A2025382E336600000030
:104480005377697463682031207072657373656453
:10449000202D200A00000000427574746F6E2031D8
:1044A00020507265737365640A0000005377697465
:1044B000636820322070726573736564202D204616
:1044C0006162726963495271323B20526573746153
:1044D0007274207468652064656275676765722010
:1044E000746F2072756E20746865206170706C69DD
:1044F000636174696F6E0A00427574746F6E203266
:1045000020707265737365640A000000F84500202E
:10451000000000000000000000000000000000009B
:10452000000000000000000000000000000000008B
:10453000000000000000000000000000000000007B
:10454000000000000000000000000000000000006B
:10455000000000000000000000000000000000005B
:10456000000000000000000000000000000000004B
:10457000232D302B2000686C4C006566674546474C
:1045800000303132333435363738394142434445CF
:10459000460030313233343536373839616263643E
:1045A0006566003A74740000F8B500BFF8BC08BC3A
:1045B0009E467047F8B500BFF8BC08BC9E467047E1
:1045C000D5040020B104002000000000000000001D
:1045D00000000000003B5808003B5808003B58080A
:1045E000C00E1602801D2C04003B5808003B5808E2
:1045F00002000000F84500200000000030450020C7
:104600005045002010450020000000000000000080
:10461000000000000000000000000000000000009A
:10462000000000000000000000000000000000008A
:10463000000000000000000000000000000000007A
:10464000000000000000000000000000000000006A
:104650000000000000000000ADDEFECA0000000007
:040000052000019145
:00000001FF
