:1000000000000120910100007F0300008103000037
:100010008303000085030000870300000000000048
:100020000000000000000000000000008903000044
:100030008B030000000000008D0300008F03000010
:100040009103000093030000E10C0000FD0C000090
:10005000990300009B0300009D0300009F03000024
:10006000A1030000A3030000A5030000A7030000F4
:10007000A9030000AB0300002D150000AF03000032
:10008000B1030000B3030000B5030000F105000058
:10009000B9030000BB030000BD030000BF03000064
:1000A000C1030000C3030000C5030000BD0D000034
:1000B000650E0000CB030000CD030000CF0300005D
:1000C000D1030000D3030000D5030000DD1B0000B6
:1000D00075150000DB030000DD030000DF030000F6
:1000E000E1030000E3030000E5030000E703000074
:1000F000E9030000EB030000ED030000EF03000044
:10010000F1030000F3030000F5030000F703000013
:10011000F9030000FB030000FD030000FF030000E3
:1001200001040000030400000504000007040000AF
:10013000090400000B0400000D0400000F0400007F
:10014000110400001304000015040000170400004F
:10015000190400001B0400001D0400001F0400001F
:1001600021040000230400002504000027040000EF
:10017000290400002B0400002D0400002F040000BF
:100180003104000033040000000000000000000003
:100190004FF0000BDFF8BE020068DFF8B612096806
:1001A00001F0030100F01C00142801D14BF0020BF8
:1001B000002901D04BF0010BBBF1000F05D0A7487F
:1001C000A749DFF8722200F09FF8A64880470BF09D
:1001D000020ABAF1000F0CD0DFF86E02DFF86E12DF
:1001E00002680B680FB44FF000024FF0FF0302608B
:1001F0000B609D4800220123022808D1DFF83E123F
:100200000A60DFF842120A60DFF836120B6001283C
:1002100008D1DFF82E120A60DFF82A120A60DFF830
:100220001E120B609148002809D191489149924AC9
:1002300000F032F891489249924A00F02DF8924825
:100240009249934A00F028F892489349DFF8E62152
:1002500000F05AF8BBF1000F12D090489049DFF837
:10026000DA2100F051F80BF0020ABAF1000F07D0C2
:100270000FBC02600B6000BFAFF30080AFF30080E3
:10028000DFF820020FF2030E00474FF000004FF09E
:100290000001DFF814F2FEE72DE9F841884225D08D
:1002A000B2EB010200D5FEE740EA010313F00303BD
:1002B00002D000F01DF819E04FF000039046121133
:1002C000F7D09A421CBFF0C8F0C103F10103F8D186
:1002D00008F00F08B8F1000F08D004780C7000F196
:1002E000010001F10101B8F10108F6D1BDE8F88182
:1002F00008B54FF0000303780B7000F1010001F125
:100300000101013AF7D108BD884237D000F0030659
:10031000002E14D04FF00405A5EB06044FF008079B
:1003200007FB06F8914669FA08F9002C07D080F817
:10033000009069FA07F900F10100013CF5E74FF080
:1003400000060F46091A88460911914614461546BB
:10035000B14206D018BFA0E8340206F10106B1424E
:10036000F8D108F00F08B8F1000F07D002704FEA7B
:10037000322200F10100B8F10108F4E77047FEE70E
:10038000FEE7FEE7FEE7FEE7FEE7FEE7FEE7FEE745
:10039000FEE7FEE7FEE7FEE7FEE7FEE7FEE7FEE735
:1003A000FEE7FEE7FEE7FEE7FEE7FEE7FEE7FEE725
:1003B000FEE7FEE7FEE7FEE7FEE7FEE7FEE7FEE715
:1003C000FEE7FEE7FEE7FEE7FEE7FEE7FEE7FEE705
:1003D000FEE7FEE7FEE7FEE7FEE7FEE7FEE7FEE7F5
:1003E000FEE7FEE7FEE7FEE7FEE7FEE7FEE7FEE7E5
:1003F000FEE7FEE7FEE7FEE7FEE7FEE7FEE7FEE7D5
:10040000FEE7FEE7FEE7FEE7FEE7FEE7FEE7FEE7C4
:10041000FEE7FEE7FEE7FEE7FEE7FEE7FEE7FEE7B4
:10042000FEE7FEE7FEE7FEE7FEE7FEE7FEE7FEE7A4
:10043000FEE7FEE7704700000000A2A2A2A2008033
:100440000340088003401080034030800340348024
:1004500003403880034018080240000000F00020EC
:1004600000000120FD13000000000000000000005B
:10047000000000000000000090010000B004000037
:10048000B0040000E0420000E04200000000002054
:1004900060040020600400201006002010060020E8
:1004A00000F0002005400000E130000000000000E6
:1004B00010B5054C237833B9044B13B10448AFF39E
:1004C00000800123237010BD6004002000000000A4
:1004D000B04200000C4B43B10C4810B50C49AFF3CF
:1004E00000800C48036823B910BD0A48036833B97B
:1004F0007047094B002BF7D0BDE810401847064B5A
:10050000002BF5D0184700BF00000000B0420000EB
:10051000640400200000002000000000016070471B
:10052000006870470EB503FA01F303EA020301689D
:100530006FEA020201EA020141EA030101600EBD15
:10054000006800EA020020FA01F07047018070475D
:10055000008870470EB503FA01F303EA020301882D
:100560006FEA020201EA020141EA030101800EBDC5
:10057000008800EA020020FA01F07047017070471D
:10058000007870470EB503FA01F303EA020301781D
:100590006FEA020201EA020141EA030101700EBDA5
:1005A000007800EA020020FA01F070470B4B10B50A
:1005B0000B4C198823683BB10A4A89B210689847E6
:1005C0000023094A23601370084B1A46196841F04A
:1005D000010119601368DB07FCD410BD9C040020E6
:1005E0008404002094040020A10400200060014045
:1005F000924BF0B55C689A68E4B21440A10785B0EC
:100600001FD4E10701D405B0F0BD8D4D2B78022B2E
:1006100000F09480052B2AD0012B57D0874A894CB3
:10062000936823F00103936023683BB1864A00215D
:10063000106898470023854A2360137000232B70AD
:10064000E1E77F4D1A692B78D0B2052B00F250817B
:10065000DFE813F0CB00D700D700DF00A00089004F
:100660007B4B1A68002A40F0C980E207CBD5794C51
:100670002368002B00F0FC802368002B6BD06F49AF
:1006800026680B68744823F0040307680B604B6806
:1006900003F001030393039A92B1002E00F06781E7
:1006A00000227D1E01E096420AD015F8013F01327A
:1006B0000B614B6803F001030393039B002BF2D102
:1006C000236817449A1A076022609CE7634E3388B8
:1006D0009BB2002B37D0594934880B68DFF88CE186
:1006E00023F00403DEF800700B604B68A4B203F043
:1006F00001030193019A92B1002C00F03C81002289
:10070000781E01E094420AD010F8013F01320B61DB
:100710004B6803F001030193019B002BF2D1338856
:100720009BB2934200F2ED8000224A4B32801B685C
:10073000002B00F0EE8002232B7064E7454C236809
:10074000002B40F0A880414B1B78002B3FF45BAF9F
:10075000FFF72CFF57E70321384A936823F0010382
:10076000936029704FE716043FF57AAF364B354E4C
:100770001A683368507033B110460221984700233D
:10078000324A3360137000232B70E3073FF546AF06
:1007900005B0F0BD17042DD4314A2B4913880E68DB
:1007A0009BB2334413F8013CF12B00F0BD802D497E
:1007B000138809889BB28B4206D217881388BFB270
:1007C00001339BB2F055138013889BB29942DCD160
:1007D0001C4F13883A6899B2002AD4D0304690470B
:1007E00000231A4A3B601370CDE71204CDD5F128DF
:1007F00000F0AB80164B1A68002AC6D01B689847D9
:10080000FFE615047FF5FDAE114B1A68002AF5D1FD
:10081000F7E61304B9D5144B1B789842EAD10023AC
:1008200004210F4A297013801188074E13883668F7
:10083000013389B29BB213807054A6E70060014077
:10084000A00400208404002094040020A1040020BF
:100850007C040020880400209004002082040020F2
:100860009C0400209E040020800400208C040020B2
:10087000424B1B68002B4FD04148984720602368AB
:10088000002B7FF4F9AE03213E4A936823F0010365
:1008900093602970F0E63B4927680B68384823F0DD
:1008A0000403D0F800E00B604B6803F001030293EF
:1008B000029A92B1002F5CD000220EF1FF3601E0C7
:1008C00097420AD016F8013F01320B614B6803F0E2
:1008D00001030293029B002BF2D1236893427FF61F
:1008E0003AAF21680EEB02038A1A036022608AE69F
:1008F000254E3368002B3FF446AF244A0021106890
:100900003CE7338817449A1A92B2CEF800703280CE
:1009100079E603232B7076E61D4B1B78002B3FF402
:10092000ABAEFFF743FEA7E61A4F11881388D7F83E
:1009300000E08AB29BB2B054013BBEF1000F3FF41D
:1009400022AF3A68F05C90471DE700260422124B64
:100950002A701E8019881A8889B2013292B21A80D0
:100960000A4A1B8812689BB25054D6540DE732468F
:10097000A6E63A46B1E72246D1E600BF9804002039
:1009800090040020006001408404002094040020B2
:10099000A10400207C0400209C0400202A4A036853
:1009A00090422DE9F04F1C68D3F81880D3F804C0AA
:1009B000D3F828E01F6B5E6BDD692CD04FF0030B82
:1009C0004FF0080A214A22491346D1F8489080F88E
:1009D00004B002601F4849F48069C1F84890C0F82B
:1009E00080A1886C20F480608864116821F0004147
:1009F000116024F001041C60C3F81880C3F804C01F
:100A00001A6842F001021A60C3F828E01F635E63AF
:100A1000DD61BDE8F08F02234FF004090C490E4A56
:100A200003718B6C02600B4843F400738B64C0F855
:100A30008091886C134620F400708864116821F05E
:100A400000411160D5E700BF4805002000100140BB
:100A50000080034000E100E0001000400268F0B4B4
:100A60009368DD053FD40369C768BB4211D285682E
:100A70002B44EE1901E09E420BD013F8011B51618B
:100A80009468591BE4050161F5D58F4201D9F0BC8A
:100A900070479368DB0511D4C3698569AB4225D2E1
:100AA00046693344354401E09D4207D013F8011BE9
:100AB000516191689C1BC461CC05F5D5436A002B3C
:100AC000E5D0C16983699942E1D3906810F48070E0
:100AD000DDD1202301E0013BD9D050619168C905E7
:100AE000F9D5F0BC70470169C768CEE7436A002BAF
:100AF000EBD1CCE710B590F8803082B0022B0CD04F
:100B0000012B18D003689A68520604D41A6900921F
:100B10009A685206FAD502B010BD0446236803E075
:100B20001969626F00911AB99A685106F8D5F2E70F
:100B300000989047F2E7026893685C06EBD4036B79
:100B4000C16A14699942019404D9826A0199D15405
:100B5000036B02689168013349060363F0D502B064
:100B600010BD00BF70B5036882B01A6A04469207D0
:100B70001D460ED590F88020022A36D0012A9A68A8
:100B800003D190E01A6901929A685206FAD50222BE
:100B9000DA602A6AD60709D594F88020022A28D07C
:100BA0002046FFF75BFF23680122DA602A6AD0063D
:100BB00048D42A6A51075CD42A6A12070BD5DA6A2C
:100BC00094F8801042F008020229DA625CD0012910
:100BD0007FD00822DA602B6A9B060DD402B070BD6C
:100BE0001969626F0191002A59D19A685606F7D5A2
:100BF000CDE7A26F5A61D7E72046FFF77BFF236A54
:100C0000256B002B63D00022102123686262626191
:100C1000A261E261D9609A6A0A439A620026DA6A9E
:100C2000204642F00C022661DA62FFF717FFE36FFD
:100C3000266313B12946A06A984720222368DA6008
:100C400002B070BD2046FFF755FF236A2BB1A06AA2
:100C5000216B98472046FFF701FF012210212368EE
:100C600062629A6A22F010029A62D9602A6A510777
:100C7000A2D5DA6A204642F00402DA62FFF78EFE5D
:100C800004222368DA6097E71A68A16F22F47F02D2
:100C900022F47F4242F480721A60596199E7019808
:100CA00090472368A1E750063FF571AF226BE16AD8
:100CB00018699142019004D9A36A01999954226B51
:100CC00023689968013249062263F0D55FE72368FB
:100CD000A4E7002320462361FFF7C0FE236878E7DE
:100CE000684620F007018D4601B50348FFF73AFF3B
:100CF000BDE801408546704748050020684620F061
:100D000007018D4601B50348FFF72CFFBDE8014000
:100D100085467047C4040020F0B5264CB2F5803FEC
:100D200027684FEA870404EB07054FEAC5164FEA28
:100D3000850506F1844605F1402E0EF5803E06F548
:100D40002016C6F8C431CEF80400CEF80810DEF83C
:100D50000C604FEA16464FEA0646CEF80C601ED8E5
:100D60000021DEF80C0092B2134B0243CEF80C20A7
:100D7000196101250020E3199A0002F1402202F5D1
:100D80008032D168DB0103F1844303F5201341F481
:100D9000E001D160C3F8C051C3F8CC01F0BD064BEF
:100DA000A2F5803201F5803100F580301A61D960FA
:100DB0009860DEE7A8040020AC040020684620F01C
:100DC00007018D4631B50124224D23492A6802EBE3
:100DD00082039B0002F5287003F1402341F8204074
:100DE00003F58033D9682244042A21F4E001D96054
:100DF00008BF0023194C18BF2A60226908BF2B6066
:100E00007AB11749A0680B68042B0CBF002301338B
:100E10000B60237DE168FFF77FFFBDE83140854629
:100E200070472B6803EB83039B0003F1402303F51A
:100E30008033DB6813F4E003EFD1012008496268D6
:100E40002B6020700B60002AE7D09047BDE831404E
:100E500085467047A404002000002842AC0400200E
:100E6000A8040020684620F007018D46264B31B5C6
:100E70001B6813F4706F1CD0244C21688B005A1827
:100E8000D20102F1844202F52012D2F808223AB1CE
:100E900002201F4A5568107015B1A84721688B00C1
:100EA0000B44DB0103F1844303F52013D3F80C3228
:100EB0000BBB154B1B6813F4704F05D00420144B6B
:100EC0005A68187002B19047BDE831400123114AB9
:100ED0001149C2F8C8318546C2F8803AC2F8483490
:100EE000C1F8803AC2F8C836C1F8843AC2F8483925
:100EF000C1F8883A70470320054B5A681870002AD9
:100F0000D7D09047D5E700BF00400140A40400209F
:100F1000AC040020000028420400284220B1072B26
:100F200002D8B2F5005F00D37047F0B50F46154602
:100F30001E46044683B0D1B207F10800FFF71EFB3E
:100F40006A1102F4FF6242EA060107F10C00FFF7A2
:100F500015FB276007F11000FFF712FB82070CD585
:100F600020680430FFF70CFB23688DF8070003F1BD
:100F70001000FFF705FB8307F2D40023237103B0B1
:100F8000F0BD00BF98B191B18AB170B504460D466D
:100F90008E1820681030FFF7F3FAC307F9D515F85B
:100FA000011B2068FFF7EAFAB542F2D170BD704725
:100FB000F8B508B101B112B900252846F8BD0446BC
:100FC0000068174610300E46FFF7DAFA23798207D9
:100FD00043EA00032371EFD50025013E01E0AF4253
:100FE000EBD0206801350430FFF7CAFA06F8010F8C
:100FF00020681030FFF7C4FA237903432371830775
:10100000EDD42846F8BD00BF28B100220379027153
:10101000C3F382007047FF20704700BF38B5104B04
:10102000082905465C5C00680CD90C30FFF7A8FA6B
:101030002B6844EA0001C9B203F10C00BDE8384056
:10104000FFF79CBA0830FFF79BFA2B6844EA0001CF
:10105000C9B203F10800BDE83840FFF78FBA00BFFE
:101060001042000038B5104B082905465C5C00684A
:101070000CD90C30FFF784FA2B6820EA0401C9B2BE
:1010800003F10C00BDE83840FFF778BA0830FFF7ED
:1010900077FA2B6820EA0401C9B203F10800BDE821
:1010A0003840FFF76BBA00BF1042000070B504462D
:1010B00016461D46016001F108000021FFF75EFAA7
:1010C000206800210C30FFF759FA31462068FFF7FD
:1010D00025FA206829460430FFF720FA206800210D
:1010E0001030FFF71BFA206800211830FFF716FABE
:1010F000206800212030FFF711FA206800212830F5
:10110000FFF70CFA206800213030FFF707FA20685B
:1011100000213830FFF702FA206800214030FFF745
:10112000FDF9206800214830FFF7F8F92068002118
:101130005030FFF7F3F9206800215830FFF7EEF93F
:10114000206800216030FFF7E9F92068002168304D
:10115000FFF7E4F9206800217030FFF7DFF920681D
:1011600000217830FFF7DAF9206800218030FFF79E
:10117000D5F920680021BDE870408830FFF7CEB96E
:101180004B1E0F2B01D8FFF76DBF704770B54C1E7B
:101190000F2C1DD8C2B105460C4616460D4B0068F3
:1011A00053F8213000211844FFF7B8F90A4B28689A
:1011B00053F8243031461844FFF7B0F92146284649
:1011C000BDE87040FFF72ABFBDE87040FFF74ABF97
:1011D00070BD00BF684200002442000070B50646A2
:1011E0000C46027101F18005316020460021043473
:1011F000FFF7C4F9AC42F8D13379012B21D00AD3DF
:10120000022B07D130684FF0FF31BDE870408030CD
:10121000FFF784B970BD3068FF218030FFF7AEF969
:101220003068FF218430FFF7A9F93068FF2188304A
:10123000FFF7A4F93068FF21BDE870408C30FFF75C
:101240009DB930684FF6FF718030FFF77FF9306845
:101250004FF6FF71BDE870408430FFF777B900BFEB
:101260001F290B4600D970470068114600EB830028
:10127000FFF754B938B503790446012B0D4621D048
:1012800008D3022B05D1BDE838400068A030FFF735
:1012900045B938BD0068C9B2A030FFF76FF92068C2
:1012A000C5F30721A430FFF769F92068C5F30741AA
:1012B000A830FFF763F92068290EAC30BDE838404C
:1012C000FFF75CB9006889B2A030FFF73FF92068EA
:1012D000290CA430BDE83840FFF738B9037970B560
:1012E000012B044624D009D3022B05D1BDE8704060
:1012F0000068A030FFF714B9002070BD0068A0306E
:10130000FFF726F905462068A430FFF721F90646C5
:101310002068A830FFF71CF92368000440EA06247F
:1013200003F1AC00FFF714F92C4344EA006070BDF0
:101330000068A030FFF70CF905462068A430FFF7DD
:1013400007F945EA004070BD1F2900D9704710B564
:10135000046804EB81042046FFF712F940F008010D
:10136000C9B22046BDE81040FFF708B91F2900D9CF
:10137000704710B5046804EB81042046FFF700F9BC
:1013800020F008012046BDE81040FFF7F7B800BF85
:1013900038B5012403790546012B04FA01F420D065
:1013A00009D3022B06D100682146BDE838408030C1
:1013B000FFF7B4B838BD006821468030FFF7DEF88B
:1013C0002868210A8430FFF7D9F82868210C883072
:1013D000FFF7D4F82868210E8C30BDE83840FFF7BD
:1013E000CDB8006821468030FFF7B0F82868210C9E
:1013F0008430BDE83840FFF7A9B800BF4FF60202BD
:101400000B4BD3F84C1191420BD1D3F8982042F4F6
:101410008072C3F89820D3F8982022F08062C3F835
:101420009820044A536943F400735361FFF702B8EC
:101430000080034000ED00E0F0B42E4A82B0D2F804
:10144000983013F0806324D1D2F89810C9043AD5AB
:101450000124032102208DF806108DF807108DF865
:1014600000308DF802308DF801408DF803408DF882
:1014700004008DF80500D2F89C3002A9C3F3821352
:101480000B4413F8083CA34231D002D31A491B4B3A
:1014900008E0D2F850111A4A11F0040F194B18BF86
:1014A000134615490B60184F184E194D194C1A4820
:1014B0001A4A1B493B6033602B6023600360116054
:1014C00002B0F0BC7047174B0B4A0F4913600B601A
:1014D0000E4F104E104D1148114C0D4A12493B60F1
:1014E00033602B600460116002B0F0BC70474FF4B1
:1014F0000043D6E7008003400400002040420F0074
:1015000080F0FA0240787D011400002018000020CD
:10151000080000200C000020100000201C0000200B
:10152000C00E1602003B5808801D2C0410B50D4C4F
:101530002046FFF7D3FE02460B4B20461A601A687E
:1015400082F007021A601968FFF794FE0222074929
:101550000748FFF717FD4FF0402301221A61BFF340
:101560004F8F10BDCC05002020000020240000205B
:10157000D40500204FF48042002108B51648174BCF
:10158000C0F88811C3F880201548FFF7EFFE052149
:101590001348FFF76FFE01211248FFF7F1FD02210A
:1015A0001048FFF7EDFD03210E48FFF7E9FD042188
:1015B0000C48FFF7E5FD05210A48FFF7E1FD06218C
:1015C0000848FFF7DDFD07210648FFF7D9FD082190
:1015D0000448FFF7D5FDFEE70000084200E100E007
:1015E000CC050020DC050020012910B50C460ED0EA
:1015F00002290CD0032924D0042908D0052932D08F
:1016000006293ED0072902D0082900D010BD02F0DB
:1016100099F80022002301F037FF21A3D3E900232A
:1016200002F0E4F80022264B01F02EFF02F0F0FA5F
:1016300002F0C2FC2146BDE8104002462148FFF7F7
:10164000A5BD02F07FF800221F4B01F01DFF002214
:10165000002301F019FF14A3D3E9002302F0C6F818
:1016600000221A4BE0E702F06DF80022002301F09F
:101670000BFF0FA3D3E9002302F0B8F80022144BAC
:10168000D2E702F05FF80022002301F0FDFE0AA37A
:10169000D3E9002302F0AAF800220E4BC4E700BFF2
:1016A0002A2A2A2A2A2A02405A5A5A5A5A5A02409E
:1016B0004E4E4E4E4E4E024036363636363602408E
:1016C00000405940DC050020008044400040584064
:1016D000008058400000594010B5144C40F20312ED
:1016E00020460621FFF752FD20464FF48D7204215B
:1016F000FFF74CFD20464FF4A3720521FFF746FD8E
:10170000204640F231120221FFF740FD2046BF2261
:101710000321FFF73BFD20460721F822FFF736FDA6
:10172000BDE8104008210248FFF75EBFDC0500203D
:101730000000C84200B583B0A0B1012819D002282A
:101740001ED0032815D000230193019B0F4A93421A
:1017500005DC019B01330193019B9342F9DD03B04A
:101760005DF804FB40F2031206210948FFF70EFD65
:10177000E9E74FF4AF7206210548FFF707FDE2E7FE
:10178000EC2206210248FFF701FDDCE787F50400A3
:10179000DC0500202DE9F043012A83B00546894687
:1017A0001E462BD090462ABB0146484602F0F0FB6D
:1017B00000B341F664174C460A9B07FB03F70B99ED
:1017C0002046FFF711FFCDF80480019B9F4205DD05
:1017D000019B01330193019B9F42F9DC3146204676
:1017E00002F06AFA81460146284602F0C7FB08B1BA
:1017F0004C46E4E7204603B0BDE8F0830146484686
:1018000002F0BCFB0028F5D041F664174C464FF0BF
:1018100000080A9B07FB03F70B992046FFF7E4FE3D
:10182000CDF80080009B9F4205DD009B01330093B3
:10183000009BBB42F9DB2146304602F03FFA81466D
:101840000146284602F0A4FB0028D3D04C46E3E72B
:1018500010B502230A24304986B0019308464FF0A0
:101860007E5301220094FFF795FF03230122019389
:1018700000944FF07E5300212848FFF78BFF002390
:101880000593059B264A934205DC059B013305938E
:10189000059B9342F9DD0A22042322498DE80C00BE
:1018A0001E484FF07E530022FFF774FF002304937D
:1018B000049B1B4A934205DC049B01330493049B65
:1018C0009342F9DD0A22082317498DE80C001748D6
:1018D0004FF07E530022FFF75DFF00230393039B2D
:1018E0000F4A934205DC039B01330393039B93420E
:1018F000F9DD0120FFF71EFF00230293029B084A37
:10190000934205DC029B01330293029B9342F9DD73
:10191000FFF7E2FE06B010BD0000B4420000204216
:101920009F2E63000000A0420000C84200007042E9
:1019300030B54FF4AF728DB006219A48FFF726FC00
:10194000052404230022019397494FF07E5300940D
:101950009648FFF71FFF02250A2301228DE8280081
:1019600093494FF07E539348FFF714FF4FF07E5397
:1019700001229049019400948F48FFF70BFF2846FD
:10198000FFF7D8FE00230B930B9B8C4A934205DC98
:101990000B9B01330B930B9B9342F9DD0A2202232D
:1019A00084498DE80C0086484FF07E530122FFF7F2
:1019B000F1FE0822032300218DE80C007A484FF045
:1019C0007E530122FFF7E6FE0522042377498DE8C6
:1019D0000C007C484FF07E530122FFF7DBFE002312
:1019E0000A930A9B754A934205DC0A9B01330A93CA
:1019F0000A9B9342F9DD0320FFF79CFE05224FF07E
:101A00007E53019200926C4900220020FFF7C2FE33
:101A100000230993099B694A934205DC099B013322
:101A20000993099B9342F9DD05224FF07E53019201
:101A30000092002101226048FFF7ACFE00230893CA
:101A4000089B5E4A934205DC089B01330893089B80
:101A50009342F9DD0822032353498DE80C005A48CC
:101A60004FF07E530022FFF795FE052204235549CF
:101A70008DE80C0050484FF07E530122FFF78AFE9C
:101A80000220FFF757FE00230793079B4B4A934220
:101A900005DC079B01330793079B9342F9DD0A227C
:101AA00002234A498DE80C0000204FF07E530022AB
:101AB000FFF770FE00230693069B404A934205DC25
:101AC000069B01330693069B9342F9DD0320FFF743
:101AD00031FE05224FF07E53019200920021012237
:101AE0003B48FFF757FE00230593059B334A93427B
:101AF00005DC059B01330593059B9342F9DD052227
:101B00004FF07E5301920092314900220020FFF7EE
:101B100041FE00230493049B284A934205DC049B66
:101B200001330493049B9342F9DD0220FFF702FE88
:101B3000052404230022019326494FF07E5300948C
:101B40001948FFF727FE4FF07E5301220021019430
:101B500000941848FFF71EFE0A22022300218DE898
:101B60000C0013484FF07E530122FFF713FE0822AA
:101B7000032315498DE80C000B484FF07E530122DA
:101B8000FFF708FEFFF7A8FD00230393039B124A0B
:101B9000934205DC039B01330393039B9342F9DDDE
:101BA0000DB030BDDC0500200000A042000048421E
:101BB0000000B4420000C842000016431FD61300C4
:101BC00000000C430000F0420000F0410000204300
:101BD00000003443000002434F97310000B500215C
:101BE00083B01548FFF7C2FB01211348FFF7BEFB86
:101BF00004211148FFF73EFB00210F48FFF7C8FB07
:101C000001210D48FFF7C4FB00210B48FFF79CFBA7
:101C100001210948FFF798FB0025084CFFF788FED3
:101C20000195019BA342F9DC019B01330193019BC8
:101C3000A342F9DDF2E700BFCC0500207FBA8C019A
:101C400030B50324062595B04FF07E530022B149EC
:101C50008DE83000B048FFF79DFD4FF07E53012224
:101C60008DE83000AC49AD48FFF794FD0023139395
:101C7000139BAB4A934205DC139B01331393139BD5
:101C80009342F9DD03220623A4498DE80C00A24803
:101C90004FF07E530022FFF77DFD00231293129B2D
:101CA0009F4A934205DC129B01331293129B93428D
:101CB000F9DD0322062398498DE80C0095484FF082
:101CC0007E530122FFF766FD00231193119B944A76
:101CD000934205DC119B01331193119B9342F9DD73
:101CE00008219048FFF780FC0424032300228DE89C
:101CF00018008D494FF07E538C48FFF74BFD0523AC
:101D000001228DE8180089494FF07E538848FFF77B
:101D100041FD00231093109B814A934205DC109BE8
:101D200001331093109B9342F9DD0522042380496F
:101D30008DE80C007C484FF07E530022FFF72AFD0F
:101D400000230F930F9B764A934205DC0F9B0133D0
:101D50000F930F9B9342F9DD08217248FFF744FC73
:101D60000524032300228DE818006E494FF07E53AE
:101D70007048FFF70FFD4FF07E530122019400944D
:101D800068496D48FFF706FD00230E930E9B644AD9
:101D9000934205DC0E9B01330E930E9B9342F9DDBB
:101DA00005224FF07E5301920092634900225D4864
:101DB000FFF7F0FC00230D930D9B594A934205DC7D
:101DC0000D9B01330D930D9B9342F9DD4FF4A372EC
:101DD00005215A48FFF7DAF900230C930C9B504A6F
:101DE000934205DC0C9B01330C930C9B9342F9DD71
:101DF00008214C48FFF7F8FB0224032300228DE85A
:101E000018004F494FF07E534E48FFF7C3FC0A239A
:101E100001228DE818004B494FF07E534A48FFF7E6
:101E2000B9FC00230B930B9B3D4A934205DC0B9BB3
:101E300001330B930B9B9342F9DD0A2202234249A3
:101E40008DE80C003E484FF07E530022FFF7A2FCC5
:101E500000230A930A9B324A934205DC0A9B013312
:101E60000A930A9B9342F9DD40F231120221334872
:101E7000FFF78CF900230993099B294A934205DC5B
:101E8000099B01330993099B9342F9DD08212548F9
:101E9000FFF7AAFB0822032300218DE80C0022484B
:101EA0004FF07E530122FFF775FC00230893089B37
:101EB0001B4A934205DC089B01330893089B93421D
:101EC000F9DD0822032318498DE80C0000204FF0AB
:101ED0007E530022FFF75EFC00230793079B104A06
:101EE000934205DC079B01330793079B9342F9DD7F
:101EF000BF2203211148FFF749F900230693069BEF
:101F0000074A934222DC069B01330693069B9342C9
:101F1000F9DD1BE000008C42000020420000DC42A2
:101F20001FD613000000C8420000A0420000F0418C
:101F30000000F0420000484200002043DC05002081
:101F40000000B4420000204100002A4308224FF064
:101F50007E53019200921B4901221B48FFF71AFC95
:101F600000230593059B194A934205DC059B013329
:101F70000593059B9342F9DD0B22082312498DE856
:101F80000C0010484FF07C530022FFF703FC0023A5
:101F90000493049B0D4A934205DC049B0133049394
:101FA000049B9342F9DD00230393039B084A934269
:101FB00005DC039B01330393039B9342F9DD15B0CA
:101FC00030BD00BF0000C842000020434F973100E1
:101FD0009F2E630010B502230A24994990B0019303
:101FE00008464FF07E5301220094FFF7D3FB0323F2
:101FF0000122019300944FF07E5300219148FFF796
:10200000C9FB00230F930F9B8F4A934205DC0F9B64
:1020100001330F930F9B9342F9DD0A2204238B496E
:102020008DE80C0087484FF07E530022FFF7B2FB8B
:1020300000230E930E9B844A934205DC0E9B0133D2
:102040000E930E9B9342F9DD0A22082380498DE806
:102050000C0080484FF07E530022FFF79BFB0023CB
:102060000D930D9B784A934205DC0D9B01330D9334
:102070000D9B9342F9DD0120FFF75CFB00230C93DD
:102080000C9B714A934205DC0C9B01330C930C9B17
:102090009342F9DD08230A24019301224FF07E5375
:1020A0006C4900946948FFF775FB032300220193F4
:1020B00000944FF07E5363496748FFF76BFB0023A2
:1020C0000B930B9B604A934205DC0B9B01330B93F4
:1020D0000B9B9342F9DD0A22022359498DE80C003B
:1020E0005C484FF07E530022FFF754FB00230A9315
:1020F0000A9B5A4A934205DC0A9B01330A930A9BC6
:102100009342F9DD0A22082350498DE80C0051481A
:102110004FF07E530022FFF73DFB00230993099BFC
:102120004E4A934205DC099B01330993099B934274
:10213000F9DD0A22032348498DE80C0041484FF09D
:102140007E530122FFF726FB00230893089B434A96
:10215000934205DC089B01330893089B9342F9DD09
:102160000220FFF7E7FA00230793079B364A9342C2
:1021700005DC079B01330793079B9342F9DD0020A1
:10218000FFF7D8FA0A22082332498DE80C003048BC
:102190004FF07E530122FFF7FDFA00230693069BC2
:1021A0002E4A934205DC069B01330693069B93421D
:1021B000F9DD0A22032323498DE80C0000204FF0AB
:1021C0007E530022FFF7E6FA00230593059B234A7E
:1021D000934205DC059B01330593059B9342F9DD92
:1021E0000A2202231B498DE80C0015484FF07E534C
:1021F0000122FFF7CFFA00230493049B174A93426E
:1022000005DC049B01330493049B9342F9DD0A220D
:1022100004230C498DE80C000C484FF07E5301223A
:10222000FFF7B8FA00230393039B0D4A934205DCA2
:10223000039B01330393039B9342F9DD10B010BD60
:102240000000B442000020429F2E63000000A04224
:102250000000C842000070420000F0414F9731007A
:10226000DF8B29010A22022310B590B08DE80C0003
:102270009E494FF07E5300229D48FFF78BFA0023C2
:102280000F930F9B9B4A934205DC0F9B01330F93E7
:102290000F9B9342F9DD0A22042397498DE80C0035
:1022A00096484FF07E530022FFF774FA00230E93F6
:1022B0000E9B904A934205DC0E9B01330E930E9BBE
:1022C0009342F9DD0A22032300218DE80C008B489C
:1022D0004FF07E530122FFF75DFA00230D930D9B13
:1022E000844A934205DC0D9B01330D930D9B934271
:1022F000F9DD0A22082382498DE80C007C484FF062
:102300007E530022FFF746FA00230C930C9B7D4A74
:10231000934205DC0C9B01330C930C9B9342F9DD3B
:102320000120FFF707FA00230B930B9B754A93429A
:1023300005DC0B9B01330B930B9B9342F9DD0823C8
:102340000A24019301224FF07E53694900946A48A0
:10235000FFF720FA03230022019300944FF07E53ED
:1023600066496948FFF716FA00230A930A9B614AF7
:10237000934205DC0A9B01330A930A9B9342F9DDE1
:102380000A2202235A498DE80C0058484FF07E5328
:102390000122FFF7FFF900230993099B554A934255
:1023A00005DC099B01330993099B9342F9DD0A225D
:1023B000082351498DE80C004D484FF07E53002210
:1023C000FFF7E8F900230893089B4A4A934205DC8B
:1023D000089B01330893089B9342F9DD0A220323EB
:1023E00049498DE80C0045484FF07E530122FFF724
:1023F000D1F900230793079B3E4A934205DC079BD4
:1024000001330793079B9342F9DD0220FFF792F90E
:1024100000230693069B3B4A934205DC069B01334F
:102420000693069B9342F9DD0020FFF783F90A2209
:1024300008232F498DE80C0031484FF07E530122CC
:10244000FFF7A8F900230593059B2A4A934205DC70
:10245000059B01330593059B9342F9DD0A22032373
:1024600026498DE80C0000204FF07E530022FFF734
:1024700091F900230493049B1E4A934205DC049BBC
:1024800001330493049B9342F9DD02220A23174986
:102490000192009301224FF07E530846FFF77AF92C
:1024A00000230393039B134A934205DC039B0133F0
:1024B0000393039B9342F9DD0A2204230F498DE81D
:1024C0000C000D484FF07E530122FFF763F9002303
:1024D0000293029B0D4A934205DC029B0133029357
:1024E000029B9342F9DD10B010BD00BF0000B44262
:1024F000000070424F9731000000A04200002042CF
:102500000000C8429F2E63000000F041DF8B2901CC
:102510000A22022310B590B08DE80C009E494FF0BE
:102520007E5300229D48FFF735F900230F930F9B40
:102530009B4A934205DC0F9B01330F930F9B934201
:10254000F9DD0A22042397498DE80C0096484FF0E4
:102550007E530122FFF71EF900230E930E9B904A33
:10256000934205DC0E9B01330E930E9B9342F9DDE3
:102570000A22032300218DE80C008C484FF07E5383
:102580000122FFF707F900230D930D9B844A934224
:1025900005DC0D9B01330D930D9B9342F9DD0A225F
:1025A000082383498DE80C0082484FF07E530022B7
:1025B000FFF7F0F800230C930C9B7F4A934205DC55
:1025C0000C9B01330C930C9B9342F9DD0120FFF728
:1025D000B1F800230B930B9B774A934205DC0B9BCE
:1025E00001330B930B9B9342F9DD08230A240193DB
:1025F00001224FF07E536F4900946D48FFF7CAF8EF
:1026000003230022019300944FF07E5367496B48E7
:10261000FFF7C0F800230A930A9B614A934205DC46
:102620000A9B01330A930A9B9342F9DD0A22022393
:102630005A498DE80C005E484FF07E530122FFF7A7
:10264000A9F800230993099B554A934205DC099B8D
:1026500001330993099B9342F9DD0A220823544967
:102660008DE80C004F484FF07E530022FFF792F8A0
:1026700000230893089B4A4A934205DC089B0133D8
:102680000893089B9342F9DD0A2203234B498DE806
:102690000C004B484FF07E530122FFF77BF80023DC
:1026A0000793079B3E4A934205DC079B0133079340
:1026B000079B9342F9DD0220FFF73CF800230693C5
:1026C000069B3D4A934205DC069B01330693069B1D
:1026D0009342F9DD0020FFF72DF80A220823314943
:1026E0008DE80C0032484FF07E530122FFF752F87C
:1026F00000230593059B2A4A934205DC059B013381
:102700000593059B9342F9DD0A2203232C498DE8AA
:102710000C0000204FF07E530022FFF73BF800230F
:102720000493049B1E4A934205DC049B01330493EB
:10273000049B9342F9DD0A2202231D498DE80C0017
:1027400015484FF07E530022FFF724F8002303932F
:10275000039B134A934205DC039B01330393039BC2
:102760009342F9DD0A2204230F498DE80C000D483D
:102770004FF07E530022FFF70DF800230293029BD7
:10278000104A934205DC029B01330293029B934261
:10279000F9DD10B010BD00BF0000B44200005C4283
:1027A0004F9731000000A0420000AA420000704292
:1027B0000000C84200008C429F2E63000000F041E0
:1027C00000002042DF8B29010A22022300B593B0CA
:1027D0008DE80C00A5494FF07E530122A448FEF776
:1027E000D9FF00231193119BA24A934205DC119B50
:1027F00001331193119B9342F9DD0A2204239E4970
:102800008DE80C009D484FF07E530122FEF7C2FF79
:1028100000231093109B974A934205DC109B0133D1
:102820001093109B9342F9DD0A22032300218DE8C7
:102830000C0093484FF07E530122FEF7ABFF0023BC
:102840000F930F9B8B4A934205DC0F9B01330F9331
:102850000F9B9342F9DD0A22082385498DE80C007D
:1028600085484FF07E530022FEF794FF00230E931D
:102870000E9B844A934205DC0E9B01330E930E9B04
:102880009342F9DD0120FEF755FF00230D930D9BC8
:102890007C4A934205DC0D9B01330D930D9B9342C3
:1028A000F9DD0A22082374498DE80C0070484FF0C6
:1028B0007E530122FEF76EFF00230C930C9B6D4AA2
:1028C000934205DC0C9B01330C930C9B9342F9DD86
:1028D0000A2203236A498DE80C006B484FF07E53AF
:1028E0000022FEF757FF00230B930B9B614A934294
:1028F00005DC0B9B01330B930B9B9342F9DD0A2202
:1029000002235B498DE80C0060484FF07E530022A3
:10291000FEF740FF00230A930A9B564A934205DCC8
:102920000A9B01330A930A9B9342F9DD0A2203238F
:1029300055498DE80C0052484FF07E530122FEF7B6
:1029400029FF00230993099B4A4A934205DC099B0E
:1029500001330993099B9342F9DD0A220823444974
:102960008DE80C0044484FF07E530022FEF712FF22
:1029700000230893089B3F4A934205DC089B0133E0
:102980000893089B9342F9DD0220FEF7D3FE002353
:102990000793079B3B4A934205DC079B0133079350
:1029A000079B9342F9DD0020FEF7C4FE0A220823AC
:1029B00031498DE80C002E484FF07E530122FEF77E
:1029C000E9FE00230693069B2E4A934205DC069BF4
:1029D00001330693069B9342F9DD0A22032328491B
:1029E0008DE80C0000204FF07E530022FEF7D2FE4F
:1029F00000230593059B1F4A934205DC059B013389
:102A00000593059B9342F9DD0A2202231F498DE8B5
:102A10000C0016484FF07E530122FEF7BBFE002348
:102A20000493049B134A934205DC049B01330493F3
:102A3000049B9342F9DD0A22042310498DE80C001F
:102A40000D484FF07E530022FEF7A4FE00230393AF
:102A5000039B0F4A934205DC039B01330393039BC3
:102A60009342F9DD13B05DF804FB00BF0000B442EF
:102A70000000C8424F9731000000A0420000AA4267
:102A8000000020429F2E63000000F04100005C42E5
:102A9000DF8B290110B502230A24B04992B00193BB
:102AA00008464FF07E5301220094FEF773FE032385
:102AB0000122019300944FF07E530021A848FEF7B5
:102AC00069FE00231193119BA64A934205DC119BDA
:102AD00001331193119B9342F9DD0A220423A24989
:102AE0008DE80C009E484FF07E530022FEF752FE08
:102AF00000231093109B9B4A934205DC109B0133EB
:102B00001093109B9342F9DD0A22082397498DE820
:102B10000C0097484FF07E530022FEF73BFE002347
:102B20000F930F9B8F4A934205DC0F9B01330F934A
:102B30000F9B9342F9DD0120FEF7FCFD00230E936D
:102B40000E9B884A934205DC0E9B01330E930E9B2D
:102B50009342F9DD08230A24019301224FF07E53AA
:102B6000834900947D48FEF715FE0323002201935C
:102B700000944FF07E537A497E48FEF70BFE002307
:102B80000D930D9B774A934205DC0D9B01330D930A
:102B90000D9B9342F9DD0A22052374498DE80C0050
:102BA00075484FF07E530022FEF7F4FD00230C938E
:102BB0000C9B724A934205DC0C9B01330C930C9BDB
:102BC0009342F9DD0A2205236B498DE80C006C481D
:102BD0004FF07E530122FEF7DDFD00230B930B9B8C
:102BE000664A934205DC0B9B01330B930B9B93428C
:102BF000F9DD0A22052362498DE80C005E484FF09A
:102C00007E530022FEF7C6FD00230A930A9B5B4A0F
:102C1000934205DC0A9B01330A930A9B9342F9DD38
:102C20000A22052354498DE80C0050484FF07E538A
:102C30000122FEF7AFFD00230993099B4F4A9342FF
:102C400005DC099B01330993099B9342F9DD0A22B4
:102C5000032348498DE80C0041484FF07E53012280
:102C6000FEF798FD00230893089B444A934205DC35
:102C7000089B01330893089B9342F9DD0A2208233D
:102C800036498DE80C003A484FF07E530022FEF79B
:102C900081FD00230793079B384A934205DC079B7D
:102CA00001330793079B9342F9DD0220FEF742FDB3
:102CB00000230693069B314A934205DC069B0133B1
:102CC0000693069B9342F9DD0020FEF733FD0A22AE
:102CD000082327498DE80C0024484FF07E53012239
:102CE000FEF758FD00230593059B1E4A934205DC21
:102CF000059B01330593059B9342F9DD0A220323CB
:102D000017498DE80C0000204FF07E530022FEF79B
:102D100041FD00230493049B184A934205DC049B65
:102D200001330493049B9342F9DD0A2204230C49E6
:102D30008DE80C000C484FF07E530122FEF72AFD6F
:102D400000230393039B0F4A93421DDC039B013333
:102D50000393039B9342F9DD16E000BF0000B442E9
:102D6000000020429F2E63000000A0420000C842E5
:102D7000000070420000A041000048424F9731001F
:102D800000002043DF8B290112B010BD0A2202236C
:102D900010B594B08DE80C00B0494FF07E5300227E
:102DA000AF48FEF7F7FC00231393139BAD4A934201
:102DB00005DC139B01331393139B9342F9DD0A2225
:102DC0000423A9498DE80C00A8484FF07E53012246
:102DD000FEF7E0FC00231293129BA24A934205DC0B
:102DE000129B01331293129B9342F9DD0A220323B3
:102DF00000218DE80C009E484FF07E530122FEF723
:102E0000C9FC00231193119B964A934205DC119B48
:102E100001331193119B9342F9DD0A22082395494E
:102E20008DE80C0094484FF07E530022FEF7B2FC70
:102E300000231093109B914A934205DC109B0133B1
:102E40001093109B9342F9DD0120FEF773FC0023E1
:102E50000F930F9B894A934205DC0F9B01330F931D
:102E60000F9B9342F9DD08230A24019301224FF0BE
:102E70007E53814900947F48FEF78CFC0323002297
:102E8000019300944FF07E5379497D48FEF782FC10
:102E900000230E930E9B734A934205DC0E9B013375
:102EA0000E930E9B9342F9DD0A22052371498DE8AA
:102EB0000C0074484FF07E530022FEF76BFC002399
:102EC0000D930D9B674A934205DC0D9B01330D93D7
:102ED0000D9B9342F9DD0A2205236A498DE80C0017
:102EE00069484FF07E530122FEF754FC00230C93F7
:102EF0000C9B5C4A934205DC0C9B01330C930C9BAE
:102F00009342F9DD0A2205235F498DE80C005D48F4
:102F10004FF07E530022FEF73DFC00230B930B9BEA
:102F2000504A934205DC0B9B01330B930B9B93425E
:102F3000F9DD0A22052353498DE80C004D484FF076
:102F40007E530122FEF726FC00230A930A9B454A82
:102F5000934205DC0A9B01330A930A9B9342F9DDF5
:102F60000A22032346498DE80C0041484FF07E5366
:102F70000122FEF70FFC00230993099B394A934273
:102F800005DC099B01330993099B9342F9DD0A2271
:102F9000082338498DE80C0037484FF07E53002253
:102FA000FEF7F8FB00230893089B2E4A934205DCAA
:102FB000089B01330893089B9342F9DD0220FEF73A
:102FC000B9FB00230793079B264A934205DC079B26
:102FD00001330793079B9342F9DD0020FEF7AAFB1C
:102FE0000A22082324498DE80C0022484FF07E5322
:102FF0000122FEF7CFFB00230693069B1F4A934254
:1030000005DC069B01330693069B9342F9DD0A22F9
:10301000032317498DE80C0000204FF07E53002257
:10302000FEF7B8FB00230593059B0E4A934205DC8F
:10303000059B01330593059B9342F9DD0A22042386
:103040000A498DE80C0008484FF07E530022FEF735
:10305000A1FB00230493049B18E000BF0000B442CE
:1030600000005C424F9731000000A0420000AA42DD
:10307000000070420000C84200008C429F2E630096
:103080000000F0410000484200002043104A9342F3
:1030900005DC049B01330493049B9342F9DD0A226F
:1030A00002230C498DE80C000B484FF07E530022A0
:1030B000FEF770FB00230393039B084A934205DC51
:1030C000039B01330393039B9342F9DD14B010BDBE
:1030D0004F97310000005C420000B442DF8B2901B1
:1030E000F0B540F28F138FB004224FF0A041C448D6
:1030F000FDF7DCFF00230593059AC24B9A4205DCDD
:10310000059A01320592059A9A42F9DD40F20312BE
:103110000621BB48FEF73AF84FF48D720421B848F7
:10312000FEF734F84FF4A3720521B548FEF72EF8E8
:1031300040F231120221B248FEF728F8BF220321E3
:10314000AF48FEF723F8F8220721AD48FEF71EF836
:103150000821AD48FEF748FA00230493049AAB4BCC
:103160009A4205DC049A01320492049A9A42F9DDEB
:1031700040F205120621A248FEF708F84FF48E72BD
:1031800004219F48FEF702F840F2491205219C48AD
:10319000FDF7FCFF40F2331202219948FDF7F6FFDC
:1031A000C12203219648FDF7F1FFFA220721944836
:1031B000FDF7ECFF08219648FEF716FA002303936B
:1031C000039A924B9A4205DC039A01320392039AC6
:1031D0009A42F9DD40F2031206218948FDF7D6FF35
:1031E0004FF48D7204218648FDF7D0FF4FF4A3728F
:1031F00005218348FDF7CAFF40F2311202218048C1
:10320000FDF7C4FFBF2203217D48FDF7BFFFF82271
:1032100007217B48FDF7BAFF08217B48FEF7E4F958
:1032200000230293029A794B9A4205DC029A0132FA
:103230000292029A9A42F9DDFEF70AFB00230193FB
:10324000019A744B9A4205DC019A01320192019A6B
:103250009A42F9DD2022002106A800F0FBFE01239E
:1032600025226D496D48FDF759FE02226C496B48D5
:10327000FDF788FEFEF7E0F802226A496A48FDF78A
:10328000ADFF052200216848FDF7EAFF674E0522E1
:1032900001216548FDF7E4FF052202216248FDF7A0
:1032A000DFFF31686048FDF7E5FF432200215E48FB
:1032B000FDF7D6FF432201215B48FDF7D1FF052230
:1032C00002215948FDF7CCFF00215748FEF73CF892
:1032D00001215548FEF738F84FF0080C1022602500
:1032E00050214FF480474FF0402400204FF0010E52
:1032F0004F4BC3F804C05A604E4A83F82353DFF89B
:103300003CC183F824131168C3F88070DCF848507E
:10331000494A25F0400501EB8101CCF84850606531
:103320003E4DC2F88001C2F88801C2F88401C4F899
:1033300010E0C3F8807161603B4CC2F880E1C2F8D4
:1033400088E11F6020463168FDF794FF2846FDF7AD
:103350005BFED8B19DF81830412B28D0422B30D0DD
:10336000432B38D0442B40D0452B69D0472B71D00C
:10337000492B79D04A2BE5D10023052120468DF831
:103380001830FDF777FFFEF763FADBE7202206A986
:103390002846FDF70DFE0028DCD120463168FDF7F8
:1033A00069FF2846FDF730FE0028F6D1EEE700233E
:1033B000032120468DF81830FDF75CFFFEF70AFE6A
:1033C000C0E70023032120468DF81830FDF752FF97
:1033D000FEF748FFB6E70023032120468DF818309A
:1033E000FDF748FFFFF794F8ACE7002303212046E0
:1033F0008DF81830FDF73EFFFFF7E6F9A2E700BFB2
:10340000DC0500201FD613000000C8429F2E630079
:103410000000CA424F97310000200050D405002020
:103420002400002000100030CC05002020000020E7
:1034300000E100E01400002000000842008003408A
:1034400001212046FDF716FF00238DF81830FFF705
:1034500021FB77E70023012120468DF81830FDF786
:1034600009FFFFF793FC6DE706212046FDF702FFF9
:1034700000238DF81830FEF7E3FB63E781F000418D
:1034800002E000BF83F0004330B54FEA41044FEA49
:10349000430594EA050F08BF90EA020F1FBF54EAE4
:1034A000000C55EA020C7FEA645C7FEA655C00F080
:1034B000E2804FEA5454D4EB5555B8BF6D420CDD51
:1034C0002C4480EA020281EA030382EA000083EAD4
:1034D000010180EA020281EA0303362D88BF30BD74
:1034E00011F0004F4FEA01314FF4801C4CEA1131CA
:1034F00002D0404261EB410113F0004F4FEA033329
:103500004CEA133302D0524263EB430394EA050FB3
:1035100000F0A780A4F10104D5F1200E0DDB02FA22
:103520000EFC22FA05F2801841F1000103FA0EF2B6
:10353000801843FA05F359410EE0A5F120050EF17C
:10354000200E012A03FA0EFC28BF4CF0020C43FAAD
:1035500005F3C01851EBE37101F0004507D54FF0BA
:10356000000EDCF1000C7EEB00006EEB0101B1F50A
:10357000801F1BD3B1F5001F0CD349085FEA300050
:103580004FEA3C0C04F101044FEA445212F5800F5B
:1035900080F09A80BCF1004F08BF5FEA500C50F1F8
:1035A000000041EB045141EA050130BD5FEA4C0CDB
:1035B000404141EB010111F4801FA4F10104E9D164
:1035C00091F0000F04BF01460020B1FA81F308BF5B
:1035D0002033A3F10B03B3F120020CDA0C3208DD27
:1035E00002F1140CC2F10C0201FA0CF021FA02F102
:1035F0000CE002F11402D8BFC2F1200C01FA02F172
:1036000020FA0CFCDCBF41EA0C019040E41AA2BF96
:1036100001EB0451294330BD6FEA04041F3C1CDA5E
:103620000C340EDC04F11404C4F1200220FA04F07E
:1036300001FA02F340EA030021FA04F345EA030128
:1036400030BDC4F10C04C4F1200220FA02F001FAEA
:1036500004F340EA0300294630BD21FA04F029466C
:1036600030BD94F0000F83F4801306BF81F4801105
:103670000134013D4EE77FEA645C18BF7FEA655C78
:1036800029D094EA050F08BF90EA020F05D054EA4A
:10369000000C04BF1946104630BD91EA030F1EBF4F
:1036A0000021002030BD5FEA545C05D14000494153
:1036B00028BF41F0004130BD14F580043CBF01F546
:1036C000801130BD01F0004545F0FE4141F470012C
:1036D0004FF0000030BD7FEA645C1ABF1946104607
:1036E0007FEA655C1CBF0B46024650EA013406BF08
:1036F00052EA033591EA030F41F4002130BD00BFC7
:1037000090F0000F04BF0021704730B54FF4806483
:1037100004F132044FF000054FF0000150E700BF04
:1037200090F0000F04BF0021704730B54FF4806463
:1037300004F1320410F0004548BF40424FF0000150
:103740003EE700BF42004FEAE2014FEA31014FEA93
:1037500002701FBF12F07F4393F07F4F81F06051E2
:10376000704792F0000F14BF93F07F4F704730B551
:103770004FF4607401F0004521F0004120E700BFE4
:1037800050EA010208BF704730B54FF000050AE06B
:1037900050EA010208BF704730B511F0004502D56C
:1037A000404261EB41014FF4806404F132045FEA6E
:1037B000915C3FF4DCAE4FF003025FEADC0C18BF13
:1037C00003325FEADC0C18BF033202EBDC02C2F109
:1037D000200300FA03FC20FA02F001FA03FE40EA9B
:1037E0000E0021FA02F11444C1E600BF70B54FF09B
:1037F000FF0C4CF4E06C1CEA11541DBF1CEA13557D
:1038000094EA0C0F95EA0C0F00F0DEF82C4481EAE4
:10381000030621EA4C5123EA4C5350EA013518BF04
:1038200052EA033541F4801143F4801338D0A0FBF1
:1038300002CE4FF00005E1FB02E506F00042E0FB9E
:1038400003E54FF00006E1FB03569CF0000F18BFA4
:103850004EF0010EA4F1FF04B6F5007F64F540744C
:1038600004D25FEA4E0E6D4146EB060642EAC621DF
:1038700041EA55514FEAC52040EA5E504FEACE2E4C
:10388000B4F1FD0C88BFBCF5E06F1ED8BEF1004F4F
:1038900008BF5FEA500E50F1000041EB045170BDCB
:1038A00006F0004646EA010140EA020081EA03010F
:1038B000B4EB5C04C2BFD4EB0C0541EA045170BD0B
:1038C00041F480114FF0000E013C00F3AB8014F185
:1038D000360FDEBF002001F0004170BDC4F10004CE
:1038E000203C35DA0C341BDC04F11404C4F120054F
:1038F00000FA05F320FA04F001FA05F240EA0200AA
:1039000001F0004221F0004110EBD37021FA04F6DF
:1039100042EB06015EEA430E08BF20EAD37070BD99
:10392000C4F10C04C4F1200500FA04F320FA05F0F8
:1039300001FA04F240EA020001F0004110EBD370FA
:1039400041F100015EEA430E08BF20EAD37070BD6A
:10395000C4F1200500FA05F24EEA020E20FA04F343
:1039600001FA05F243EA020321FA04F001F00041F2
:1039700021FA04F220EA020000EBD3705EEA430E63
:1039800008BF20EAD37070BD94F0000F0FD101F092
:103990000046400041EB010111F4801F08BF013CCB
:1039A000F7D041EA060195F0000F18BF704703F009
:1039B0000046520043EB030313F4801F08BF013D90
:1039C000F7D043EA0603704794EA0C0F0CEA13554C
:1039D00018BF95EA0C0F0CD050EA410618BF52EA06
:1039E0004306D1D181EA030101F000414FF000000C
:1039F00070BD50EA410606BF1046194652EA43061A
:103A000019D094EA0C0F02D150EA013613D195EA8D
:103A10000C0F05D152EA03361CBF104619460AD1D5
:103A200081EA030101F0004141F0FE4141F47001DF
:103A30004FF0000070BD41F0FE4141F4780170BDCF
:103A400070B54FF0FF0C4CF4E06C1CEA11541DBF34
:103A50001CEA135594EA0C0F95EA0C0F00F0A7F836
:103A6000A4EB050481EA030E52EA03354FEA013163
:103A700000F088804FEA03334FF0805545EA131376
:103A800043EA12634FEA022245EA111545EA10653E
:103A90004FEA00260EF000419D4208BF964244F1D5
:103AA000FD0404F5407402D25B084FEA3202B61AF4
:103AB00065EB03055B084FEA32024FF480104FF4C8
:103AC000002CB6EB020E75EB030E22BFB61A75463C
:103AD00040EA0C005B084FEA3202B6EB020E75EBCF
:103AE000030E22BFB61A754640EA5C005B084FEA37
:103AF0003202B6EB020E75EB030E22BFB61A754604
:103B000040EA9C005B084FEA3202B6EB020E75EB0E
:103B1000030E22BFB61A754640EADC0055EA060ECF
:103B200018D04FEA051545EA16754FEA06164FEA12
:103B3000C30343EA52734FEAC2025FEA1C1CC0D1BE
:103B400011F4801F0BD141EA00014FF000004FF04B
:103B5000004CB6E711F4801F04BF01430020B4F10C
:103B6000FD0C88BFBCF5E06F3FF6AFAEB5EB030CC4
:103B700004BFB6EB020C5FEA500C50F1000041EBC1
:103B8000045170BD0EF0004E4EEA113114EB5C048E
:103B9000C2BFD4EB0C0541EA045170BD41F4801161
:103BA0004FF0000E013C90E645EA060E8DE60CEA69
:103BB000135594EA0C0F08BF95EA0C0F3FF43BAF86
:103BC00094EA0C0F0AD150EA01347FF434AF95EA3D
:103BD0000C0F7FF425AF104619462CE795EA0C0F21
:103BE00006D152EA03353FF4FDAE1046194622E7EE
:103BF00050EA410618BF52EA43067FF4C5AE50EAC8
:103C000041047FF40DAF52EA43057FF4EBAE12E7B7
:103C10004FEA4102B2F1E04324BFB3F5001CDCF1EE
:103C2000FE5C0DD901F0004C4FEAC0024CEA507026
:103C3000B2F1004F40EB830008BF20F00100704755
:103C400011F0804F21D113F13872BCBF01F0004058
:103C5000704741F480114FEA5252C2F11802C2F18A
:103C6000200C10FA0CF320FA02F018BF40F001000B
:103C70004FEAC1234FEAD32303FA0CFC40EA0C00BD
:103C800023FA02F34FEA4303CCE77FEA625307D1FA
:103C900050EA01331EBF4FF0FE4040F44000704731
:103CA00001F0004040F0FE4040F40000704700BFCB
:103CB00080F0004002E000BF81F0004142001FBFE1
:103CC0005FEA410392EA030F7FEA226C7FEA236CEA
:103CD0006AD04FEA1262D2EB1363C1BFD2184140DF
:103CE00048404140B8BF5B42192B88BF704710F075
:103CF000004F40F4000020F07F4018BF404211F018
:103D0000004F41F4000121F07F4118BF494292EA7F
:103D1000030F3FD0A2F1010241FA03FC10EB0C00AB
:103D2000C3F1200301FA03F100F0004302D5494238
:103D300060EB4000B0F5000F13D3B0F1807F06D3E5
:103D400040084FEA310102F10102FE2A51D2B1F1DD
:103D5000004F40EBC25008BF20F0010040EA0300D2
:103D60007047490040EB000010F4000FA2F101027F
:103D7000EDD1B0FA80FCACF1080CB2EB0C0200FA09
:103D80000CF0AABF00EBC25052421843BCBFD04057
:103D90001843704792F0000F81F4000106BF80F4D1
:103DA00000000132013BB5E74FEA41037FEA226C94
:103DB00018BF7FEA236C21D092EA030F04D092F05F
:103DC000000F08BF0846704790EA010F1CBF002093
:103DD000704712F07F4F04D1400028BF40F00040F0
:103DE000704712F100723CBF00F50000704700F010
:103DF000004343F0FE4040F4000070477FEA226237
:103E000016BF08467FEA23630146420206BF5FEA07
:103E1000412390EA010F40F4800070474FF0000307
:103E200004E000BF10F0004348BF40425FEA000CCE
:103E300008BF704743F0964301464FF000001CE076
:103E400050EA010208BF70474FF000030AE000BFCC
:103E500050EA010208BF704711F0004302D540420A
:103E600061EB41015FEA010C02BF8446014600207C
:103E700043F0B64308BFA3F18053A3F50003BCFA97
:103E80008CF2083AA3EBC25310DB01FA02FC634444
:103E900000FA02FCC2F12002BCF1004F20FA02F24B
:103EA00043EB020008BF20F00100704702F120023E
:103EB00001FA02FCC2F1200250EA4C0021FA02F29F
:103EC00043EB020008BF20EADC7070474FF0FF3C74
:103ED00006E000BF4FF0010C02E000BF4FF0010C04
:103EE0004DF804CD4FEA40024FEA41037FEA226CCD
:103EF00018BF7FEA236C11D001B052EA530C18BFEF
:103F000090EA010F58BFB2EB030088BFC81738BF53
:103F10006FEAE17018BF40F0010070477FEA226C41
:103F200002D15FEA402C05D17FEA236CE4D15FEA3D
:103F3000412CE1D05DF8040B704700BF8446084671
:103F40006146FFE70FB5FFF7C9FF002848BF10F132
:103F5000000F0FBD4DF808EDFFF7F4FF0CBF012077
:103F600000205DF808FB00BF4DF808EDFFF7EAFF01
:103F700034BF012000205DF808FB00BF4DF808EDBC
:103F8000FFF7E0FF94BF012000205DF808FB00BFB1
:103F90004DF808EDFFF7D2FF94BF012000205DF837
:103FA00008FB00BF4DF808EDFFF7C8FF34BF012044
:103FB00000205DF808FB00BF4FEA4002B2F1FE4F5F
:103FC0000FD34FF09E03B3EB12620DD94FEA0023DB
:103FD00043F0004310F0004F23FA02F018BF4042B4
:103FE00070474FF00000704712F1610F01D142029B
:103FF00005D110F0004008BF6FF0004070474FF04F
:104000000000704770B50F4E0F4D761BB61018BFED
:10401000002405D0013455F8043B9847A642F9D155
:104020000A4E0B4D00F044F9761BB61018BF002461
:1040300006D0013455F8043B9847A642F9D170BD2B
:1040400070BD00BFC8420000C8420000D04200005E
:10405000C842000070B4860746D0541E002A41D0E2
:10406000CAB2034602E014F1FF343BD303F8012B3C
:104070009D07F8D1032C2ED9CDB245EA05250F2C8A
:1040800045EA054519D9264603F11002103E0F2EC8
:1040900042F8105C42F80C5C42F8085C42F8045CA0
:1040A00002F11002F2D8A4F1100222F00F0204F083
:1040B0000F041032032C13440DD91E462246043A35
:1040C000032A46F8045BFAD8221F22F003020432C6
:1040D000134404F003042CB1C9B21C4403F8011BBF
:1040E0009C42FBD170BC704714460346C2E700BF38
:1040F000024B13B1024800F005B870470000000001
:1041000011410000002301461A46184600F01EB86F
:1041100038B50A4C0A4D641BA4100AD004F1804340
:10412000013B05EB8305013C55F804399847002C09
:10413000F9D1BDE8384000F0C1B800BFD44200005A
:10414000D0420000704700BF704700BF2DE9F84320
:104150002C4D0646286898460F469146FFF7F2FF19
:10416000294B1C68D4F84831002B3ED05A681F2ACE
:104170001CDC02F1010E76B1012103EB8204C4F8CC
:104180008890D3F8880191400843022EC3F8880133
:10419000C4F8088123D00232C3F804E0286843F849
:1041A0002270FFF7D1FF0020BDE8F883174B0BB357
:1041B0004FF4C870AFF300800346D8B10020D4F8A4
:1041C00048114FF0010E586019600246C4F848319A
:1041D000C3F88801C3F88C01002EDCD0CCE7D3F8FB
:1041E0008C010143C3F88C11D5E704F5A673C4F81C
:1041F0004831BBE72868FFF7A7FF4FF0FF30BDE865
:10420000F88300BF50040020AC4200000000000012
:104210000001020408102040800102040810204020
:104220008000000000000000140000001C000000DE
:10423000240000002C000000340000003C000000BE
:10424000440000004C000000540000005C0000002E
:10425000640000006C000000740000007C0000009E
:10426000840000008C00000000000000100000002E
:1042700018000000200000002800000030000000AE
:10428000380000004000000048000000500000001E
:10429000580000006000000068000000700000008E
:1042A0007800000080000000880000002800002046
:1042B000F8B500BFF8BC08BC9E467047F8B500BF13
:1042C000F8BC08BC9E467047F1400000D5040000D1
:1042D000B104000000000000000000000000000029
:1042E00000000000003B5808801D2C04003B5808CB
:1042F000003B5808003B5808003B5808C00E160207
:10430000020000004B000000000000001403002029
:104310007C030020E40300200000000000000000F7
:10432000000000000000000000000000000000008D
:10433000000000000000000000000000000000007D
:10434000000000000000000000000000000000006D
:10435000000000000000000000000000000000005D
:10436000000000000000000000000000000000004D
:10437000000000000000000000000000000000003D
:10438000000000000000000000000000000000002D
:10439000000000000000000000000000000000001D
:1043A000000000000000000000000000000000000D
:1043B00001000000000000000E33CDAB34126DE6AA
:1043C000ECDE05000B000000000000000000000013
:1043D00000000000000000000000000000000000DD
:1043E00000000000000000000000000000000000CD
:1043F00000000000000000000000000000000000BD
:1044000000000000000000000000000000000000AC
:10473000E005002000000000000000000000000074
:040000030000019167
:00000001FF
