:020000042000DA
:1000000000000120910100207F03002081030020D7
:1000100083030020850300208703002000000000E8
:100020000000000000000000000000008903002024
:100030008B030020000000008D0300208F030020B0
:1000400091030020930300201D1000204110002088
:10005000990300209B0300209D0300209F030020A4
:10006000A1030020A3030020A5030020A703002074
:10007000A9030020AB03002099240020AF03002037
:10008000B1030020B3030020B5030020AD0500201C
:10009000B9030020BB030020BD030020BF030020E4
:1000A000C1030020C3030020C5030020B5110020B8
:1000B000AD120020CB030020CD030020CF03002091
:1000C000D1030020D3030020D5030020E524002025
:1000D00035250020DB030020DD030020DF030020A6
:1000E000E1030020E3030020E5030020E7030020F4
:1000F000E9030020EB030020ED030020EF030020C4
:10010000F1030020F3030020F5030020F703002093
:10011000F9030020FB030020FD030020FF03002063
:10012000010400200304002005040020070400202F
:10013000090400200B0400200D0400200F040020FF
:1001400011040020130400201504002017040020CF
:10015000190400201B0400201D0400201F0400209F
:10016000210400202304002025040020270400206F
:10017000290400202B0400202D0400202F0400203F
:1001800031040020330400200000000000000000C3
:100190004FF0000BDFF8BE020068DFF8B612096806
:1001A00001F0030100F01C00142801D14BF0020BF8
:1001B000002901D04BF0010BBBF1000F05D0A7487F
:1001C000A749DFF8722200F09FF8A64880470BF09D
:1001D000020ABAF1000F0CD0DFF86E02DFF86E12DF
:1001E00002680B680FB44FF000024FF0FF0302608B
:1001F0000B609D4800220123022808D1DFF83E123F
:100200000A60DFF842120A60DFF836120B6001283C
:1002100008D1DFF82E120A60DFF82A120A60DFF830
:100220001E120B609148002809D191489149924AC9
:1002300000F032F891489249924A00F02DF8924825
:100240009249934A00F028F892489349DFF8E62152
:1002500000F05AF8BBF1000F12D090489049DFF837
:10026000DA2100F051F80BF0020ABAF1000F07D0C2
:100270000FBC02600B6000BFAFF30080AFF30080E3
:10028000DFF820020FF2030E00474FF000004FF09E
:100290000001DFF814F2FEE72DE9F841884225D08D
:1002A000B2EB010200D5FEE740EA010313F00303BD
:1002B00002D000F01DF819E04FF000039046121133
:1002C000F7D09A421CBFF0C8F0C103F10103F8D186
:1002D00008F00F08B8F1000F08D004780C7000F196
:1002E000010001F10101B8F10108F6D1BDE8F88182
:1002F00008B54FF0000303780B7000F1010001F125
:100300000101013AF7D108BD884237D000F0030659
:10031000002E14D04FF00405A5EB06044FF008079B
:1003200007FB06F8914669FA08F9002C07D080F817
:10033000009069FA07F900F10100013CF5E74FF080
:1003400000060F46091A88460911914614461546BB
:10035000B14206D018BFA0E8340206F10106B1424E
:10036000F8D108F00F08B8F1000F07D002704FEA7B
:10037000322200F10100B8F10108F4E77047FEE70E
:10038000FEE7FEE7FEE7FEE7FEE7FEE7FEE7FEE745
:10039000FEE7FEE7FEE7FEE7FEE7FEE7FEE7FEE735
:1003A000FEE7FEE7FEE7FEE7FEE7FEE7FEE7FEE725
:1003B000FEE7FEE7FEE7FEE7FEE7FEE7FEE7FEE715
:1003C000FEE7FEE7FEE7FEE7FEE7FEE7FEE7FEE705
:1003D000FEE7FEE7FEE7FEE7FEE7FEE7FEE7FEE7F5
:1003E000FEE7FEE7FEE7FEE7FEE7FEE7FEE7FEE7E5
:1003F000FEE7FEE7FEE7FEE7FEE7FEE7FEE7FEE7D5
:10040000FEE7FEE7FEE7FEE7FEE7FEE7FEE7FEE7C4
:10041000FEE7FEE7FEE7FEE7FEE7FEE7FEE7FEE7B4
:10042000FEE7FEE7FEE7FEE7FEE7FEE7FEE7FEE7A4
:10043000FEE7FEE7704700000000A2A2A2A2008033
:100440000340088003401080034030800340348024
:1004500003403880034018080240000000F00020EC
:1004600000000120691D00200000000000000000C5
:10047000000000200000002090010020B0040020B7
:10048000B00400206049002060490020604900203D
:10049000C04D0020C04D0020704F0020704F002044
:1004A00000F000208146002085210020000000008F
:1004B00010B5054C237833B9044B13B10448AFF39E
:1004C00000800123237010BDC04D002000000000FB
:1004D000344900200C4B43B10C4810B50C49AFF324
:1004E00000800C48036823B910BD0A48036833B97B
:1004F0007047094B002BF7D0BDE810401847064B5A
:10050000002BF5D0184700BF000000003449002040
:10051000C44D0020604900200000000001607047C9
:10052000006870470EB503FA01F303EA020301689D
:100530006FEA020201EA020141EA030101600EBD15
:10054000006800EA020020FA01F07047018070475D
:10055000008870470EB503FA01F303EA020301882D
:100560006FEA020201EA020141EA030101800EBDC5
:10057000008800EA020020FA01F07047017070471D
:10058000007870470EB503FA01F303EA020301781D
:100590006FEA020201EA020141EA030101700EBDA5
:1005A000007800EA020020FA01F0704780B582B0BE
:1005B00000AF0F4B5B68FB710D4B9B68DAB2FB79A8
:1005C0001340FB71FB7903F00203BB71BB79002B75
:1005D00001D000F0E5F8FB7903F001037B717B7932
:1005E000002B01D000F006F800BF0837BD4680BDE3
:1005F0000060014080B584B000AF624B1B78022BD5
:100600003DD0052B68D0012B40F0AA805E4B1B88A3
:100610009BB2002B2FD05D4B1A685B4B1B889BB2A3
:100620001946104600F00AFAF860574B1B889BB237
:100630001A46FB689A420FD9534B1B889AB2FB6843
:100640009BB2D31A9AB2504B1A80504B1A68FB686F
:1006500013444E4A136090E04B4B00221A804C4BDF
:100660001B68002B03D0474B02221A7085E0454BD4
:1006700003221A7081E000BE00F0BAF97DE0444B1D
:100680001B68002B24D0434B1A68414B1B6819464A
:10069000104600F0D3F9B8603D4B1B68BA689A4227
:1006A0000CD23B4B1A68BB68D31A394A1360394BDA
:1006B0001A68BB681344374A13605EE0364A364B0B
:1006C0009B6823F0010393602E4B03221A7054E0C1
:1006D00000BE00F08DF950E02D4B1B68002B1BD1A4
:1006E0002E4B1B68002B14D02C4B1B6829489847B5
:1006F0000246274B1A60264B1B68002B0CD1264A5A
:10070000254B9B6823F0010393601E4B03221A7054
:1007100002E000BE00F06CF91D4B1B68002B09D1F4
:100720001D4A1D4B9B6823F001039360154B032268
:100730001A7022E0174B1A68154B1B6819461046B1
:1007400000F07CF97860124B1A687B68D31A104A63
:100750001360104B1A687B6813440E4A13600CE058
:100760000D4A0D4B9B6823F001039360002000F0BD
:100770001FF9044B00221A7000BF00BF1037BD469E
:1007800080BD00BF014E0020E44D0020E04D002060
:10079000EC4D0020E84D002000600140FC4D0020A1
:1007A00080B584B000AF7C4B1B69FB81FB8923F4CF
:1007B000FF4323F07F03BB81FB89FB72774B1B78E0
:1007C000052B00F2D68001A252F823F0E5070020A5
:1007D0005F0900205F0900203D0800208B080020F1
:1007E00033090020BB89002B00F0CA80FB7AF12B73
:1007F00006D0FB7ABB72BB7A184600F04FF9BFE017
:10080000674B00221A80674B1B68654A128892B2B8
:100810001344FA7A1A70624B1B889BB201339AB266
:100820005F4B1A805F4B1B685D4A128892B213447B
:1008300000221A70594B04221A70A1E0BB89002BC8
:1008400000F0A080FB7A7B72574B1B78DBB27A7A80
:100850009A4215D1524B00221A80524B1B68504AC3
:10086000128892B213447A7A1A704D4B1B889BB24D
:1008700001339AB24A4B1A80484B04221A7081E025
:100880007B7A184600F00AF97CE0BB89002B06D081
:10089000FB7A3B723B7A184600F000F974E0414B5A
:1008A0001A683F4B1B889BB2013B13441B78F12B0A
:1008B00016D13C4B1B683A4A128892B21344FA7A1A
:1008C0001A70384B1A68364B1B889BB2013B134495
:1008D0001B78184600F0E2F8304B00221A7053E003
:1008E0002F4B1B889AB2314B1B889A4210D2FB7A4D
:1008F000FB712C4B1B682A4A128892B21344FA7976
:100900001A70274B1B889BB201339AB2244B1A8072
:10091000234B1B889AB2254B1B889A4234D1204B1B
:100920001B889BB2184600F043F81C4B00221A703B
:100930002AE0BB89002B0BD11A4B1B680133FA7AD2
:100940001A70022000F034F8144B00221A701EE0D6
:10095000FB7ABB71BB79184600F0A0F817E0BB89A1
:10096000002B13D0FB7A7B717B79184600F096F848
:100970000CE0002000F01CF8084B00221A7006E082
:1009800000BF04E000BF02E000BF00E000BF00BF06
:100990001037BD4680BD00BF00600140014E002001
:1009A000F64D0020F04D0020DC4D0020F44D0020DD
:1009B00080B582B000AF0346FB800A4B1B68002B5A
:1009C0000CD0084B1B68084A1268F98810469847F3
:1009D000044B00221A60054B00221A7000BF083732
:1009E000BD4680BDF84D0020F04D0020004E002097
:1009F00080B582B000AF0E4B1B78DBB2002B13D05A
:100A00000C4B1B889BB21846FFF7D2FF0A4A0A4BD1
:100A10001B6843F001031360074B1B6803F00103DD
:100A20007B607B68002BF7D100BF0837BD4680BDD7
:100A3000004E0020F64D00200060014080B485B0DB
:100A400000AF78603960144A134B1B6823F004032D
:100A500013600023FB60104B5B6803F00103BB6075
:100A60000DE00D497A68FB6813441B780B61FB6845
:100A70000133FB60084B5B6803F00103BB60BB689C
:100A8000002B03D0FA683B689A42EAD3FB68184609
:100A90001437BD4680BC70470060014080B582B00D
:100AA00000AF0346FB71064B1B68002B04D0044BC0
:100AB0001B68FA791046984700BF0837BD4680BDCD
:100AC000044E002080B483B000AF0346FB71094997
:100AD00097F907305B09FA7902F01F02012000FA4A
:100AE00002F2603341F8232000BF0C37BD4680BCC2
:100AF000704700BF00E100E080B58AB000AF7860C9
:100B00007B681B681B687B627B681B689B693B6218
:100B10007B681B685B68FB617B681B689B6ABB61C9
:100B20007B681B681B6B7B617B681B685B6B3B6135
:100B30007B681B68DB69FB607B68354A93421DD18B
:100B40007B68344A1A607B6802221A71324A324B3F
:100B50009B6C43F4007393640220FFF7B3FF2E4AAB
:100B60002D4B9B6C23F4007393647B681B687A683D
:100B70001268126822F000421A601CE07B68274A63
:100B80001A607B6803221A71234A234B9B6C43F43F
:100B9000806393640320FFF795FF1F4A1E4B9B6CF5
:100BA00023F4806393647B681B687A681268126818
:100BB00022F000421A607B6A23F001037B627B68AB
:100BC0001B687A6A1A607B681B683A6A9A617B685C
:100BD0001B68FA695A607B681B687A681268126839
:100BE00042F001021A607B681B68BA699A627B68EE
:100BF0001B687A691A637B681B683A695A637B6869
:100C00001B68FA68DA6100BF2837BD4680BD00BFA7
:100C1000AC4E002000100040008003400010014056
:100C200080B485B000AF78600023FB600DE07B6886
:100C30001B687A6891687A6812690A4412785A6166
:100C40007B681B695A1C7B681A617B681B689B6800
:100C500003F48073002B05D17B681A697B68DB681D
:100C60009A42E4D37B681A697B68DB689A421BD39B
:100C70000DE07B681B687A6851697A68D2690A441A
:100C800012785A617B68DB695A1C7B68DA617B6881
:100C90001B689B6803F48073002B05D17B68DA69BD
:100CA0007B689B699A42E4D37B685B6A002B1DD00A
:100CB0007B681A697B68DB689A4217D37B68DA69BC
:100CC0007B689B699A4211D306E07B681B6800220F
:100CD0005A61FB680133FB607B681B689B6803F407
:100CE0008073002B02D1FB681F2BEED900BF143795
:100CF000BD4680BC704780B584B000AF78607B682B
:100D000093F88030022B15D10CE07B681B681B69BF
:100D1000FB607B685B6F002B04D07B685B6FFA68BD
:100D2000104698477B681B689B6803F04003002BC4
:100D3000EBD02FE07B6893F88030012B23D116E0B5
:100D40007B681B681B69FB607B681A6B7B68DB6ACE
:100D50009A4207D27B689A6A7B681B6B1344FA68D5
:100D6000D2B21A707B681B6B5A1C7B681A637B6853
:100D70001B689B6803F04003002BE1D00AE07B680E
:100D80001B681B69FB607B681B689B6803F0400362
:100D9000002BF4D000BF1037BD4680BD80B586B0B3
:100DA00000AF78607B681B6820337B617B686B4A8F
:100DB000934204D07B686A4A934200D000BE7B69AC
:100DC0001B6803F00203002B4ED07B6893F8803041
:100DD000022B15D10CE07B681B681B69FB607B68EC
:100DE0005B6F002B04D07B685B6FFA6810469847F6
:100DF0007B681B689B6803F04003002BEBD02FE05F
:100E00007B6893F88030012B23D116E07B681B6848
:100E10001B69FB607B681A6B7B68DB6A9A4207D2AE
:100E20007B689A6A7B681B6B1344FA68D2B21A70AB
:100E30007B681B6B5A1C7B681A637B681B689B680A
:100E400003F04003002BE1D00AE07B681B681B69BC
:100E5000FB607B681B689B6803F04003002BF4D0A9
:100E60007B681B680222DA607B691B6803F0010360
:100E7000002B11D07B6893F88030022B05D17B6862
:100E80001B687A68926F5A6102E07868FFF7C8FEC3
:100E90007B681B680122DA607B691B6803F0100322
:100EA000002B20D07868FFF726FF7B681B6A002B99
:100EB0000AD07B681B6A7A68906A7A68126B11465E
:100EC00098477868FFF7ACFE7B6801225A627B681E
:100ED0001B687A681268926A22F010029A627B6834
:100EE0001B681022DA607B691B6803F00403002B87
:100EF0000ED07B681B687A681268D26A42F00402DE
:100F0000DA627868FFF7F8FD7B681B680422DA6014
:100F10007B691B6803F00803002B32D07B681B68D9
:100F20007A681268D26A42F00802DA627B6893F843
:100F30008030022B16D17B681A687B681B681B689F
:100F400023F47F0323F47F4343F4807313607B68AF
:100F50001B687A68926F5A610FE000BFAC4E0020A8
:100F6000284E00207B6893F88030012B05D17B68E8
:100F700000221A617868FFF753FE7B681B6808221D
:100F8000DA607B691B6803F02003002B41D078688E
:100F9000FFF7B1FE7B681B6B3B617B681B6A002B14
:100FA00017D07B6800225A627B6800225A617B68F6
:100FB00000229A617B680022DA617B681B6810223C
:100FC000DA607B681B687A681268926A42F01002E5
:100FD0009A627B6800221A617B681B687A681268D3
:100FE000D26A42F00C02DA627868FFF719FE7B6879
:100FF00000221A637B68DB6F002B06D07B68DB6FF7
:101000007A68926A3969104698477B681B68202283
:10101000DA6000BF1837BD4680BD00BF684620F0CB
:1010200007018D4689B500AF0448FFF7B7FE00BF42
:10103000BD46BDE889408546704700BFAC4E0020E4
:10104000684620F007018D4689B500AF0448FFF7D8
:10105000A5FE00BFBD46BDE889408546704700BF7C
:10106000284E002090B484B000AFF860B9607A6078
:10107000FB704C484C4B1A68F97813469B0013449C
:10108000DB01034403F5E27319604849464B1A68D3
:1010900013469B0013449B000B440433FA681A6008
:1010A0004249414B1A6813469B0013449B000B4472
:1010B0000833BA681A603D483B4B19683B4C3A4BC1
:1010C0001A6813469B0013449B0023440C331B688F
:1010D0001A0C12040B469B000B449B0003440C3378
:1010E0001A607B68B3F5803F0FD97B68A3F5803326
:1010F0002F4A1361BB6803F580332D4AD360FB6828
:1011000003F580332A4A936019E02848264B1A6871
:10111000264C254B19680B469B000B449B0023442F
:101120000C331B68796889B2194313469B0013443A
:101130009B0003440C3319601D4B00221A611B48AD
:10114000194B1A68194C184B19680B469B000B4435
:101150009B0023440C331B6843F4E00113469B00BF
:1011600013449B0003440C3319600E490E4B1A685C
:1011700013469B001344DB010B4403F5E07301228B
:101180001A600849084B1A6813469B001344DB0198
:101190000B4403F5E67300221A6000BF1037BD460A
:1011A00090BC704700002842204E002000400140C3
:1011B000084E0020684620F007018D4691B500AF2B
:1011C000354A364B1B6803F52873012142F823107A
:1011D0003348324B1A68324C304B19680B469B002F
:1011E0000B449B0023440C331B6823F4E00113469B
:1011F0009B0013449B0003440C331960274B1B686E
:101200000133264A1360254B1B68042B02D1234B64
:1012100000221A60234B1B69002B17D0224B1B683E
:10122000042B03D1204B00221A6004E01E4B1B68E4
:1012300001331D4A13601B4B98681A4BD968194B30
:101240001A69184B1B7DFFF70DFF1EE01449134B65
:101250001A6813469B0013449B000B440C331B6815
:1012600003F4E003002B10D10C4B00221A600E4B4C
:1012700000221A600B4B01221A700A4B5B68002B8C
:1012800003D0084B5B680120984700BFBD46BDE80E
:1012900091408546704700BF00002842244E002040
:1012A00000400140084E0020204E0020684620F0FB
:1012B00007018D4681B583B000AF384B1B683B609A
:1012C0003B6803F470633B603B68002B2FD03449CC
:1012D000344B1A6813469B001344DB010B4403F59F
:1012E00002731B68002B0AD02F4B02221A702E4B60
:1012F0005B68002B03D02C4B5B6802209847284981
:10130000284B1A6813469B001344DB010B4403F57A
:1013100003731B68002B0AD0234B03221A70224B45
:101320005B68002B03D0204B5B68032098471B4B66
:101330001B683B603B6803F470433B603B68002BD9
:101340000AD0194B04221A70174B5B68002B03D08C
:10135000154B5B680420984700237B6014E010491C
:101360007A6813469B001344DB010B4403F5E473D6
:1013700001221A600A4A7B6803F52873012142F8AA
:1013800023107B6801337B607B68032BE7D900BFA8
:101390000C37BD46BDE8814085467047004001409E
:1013A00000002842244E0020084E002080B586B060
:1013B00000AFF860B96011461A460B46FB80134631
:1013C0007B71FB68002B00D100BE7B79072B00D915
:1013D00000BEFB88B3F5005F00D300BEFB68002BA6
:1013E00069D07B79072B66D8FB88B3F5005F62D2A2
:1013F000BB680833FA88D2B211461846FFF7BEF828
:10140000BB6803F10C007A79FB885B1103F4FF637E
:1014100013431946FFF7B2F8FB68BA681A60FB6815
:101420001B6808331846FFF7ABF80346BB82FB681E
:101430001B680C331846FFF7A3F80346FB74FB7CCC
:1014400023F00703BB74BB7C9BB25B019AB2BB8ADF
:101450001343BB82FB7C03F00703FB74BA8AFB884F
:101460009A4200D000BEFA7C7B799A4200D000BE3E
:10147000FB681B6810331846FFF782F8034603F039
:101480000203FB7511E0FB681B6804331846FFF785
:1014900077F803467B74FB681B6810331846FFF728
:1014A0006FF8034603F00203FB75FB7D002BEAD1C6
:1014B000FB6800221A7100BF1837BD4680BD80B599
:1014C00086B000AFF860B9607A60FB68002B00D18D
:1014D00000BEBB68002B00D100BE7B68002B00D192
:1014E00000BEFB68002B25D0BB68002B22D07B6898
:1014F000002B1FD000237B6118E0FB681B681033B2
:101500001846FFF73DF8034603F00103FB74FB7C2C
:10151000002BF2D0FB681868BA687B6913441B780B
:101520001946FFF72BF87B6901337B617A697B6889
:101530009A42E2D300BF1837BD4680BD90B589B04E
:1015400000AFF860B9607A600023BB61FB68002BD4
:1015500000D100BEBB68002B00D100BE7B68002B11
:1015600000D100BEFB68002B43D0BB68002B40D0ED
:101570007B68002B3DD00023BB61FB681B681033E8
:101580001846FEF7FDFF0346FB75FB681A79FB7DE5
:101590001343DAB2FB681A71FB7D03F00203FB7799
:1015A00020E0BA68BB69D418FB681B68043318468E
:1015B000FEF7E6FF03462370BB690133BB61FB689E
:1015C0001B6810331846FEF7DBFF0346FB75FB680C
:1015D0001A79FB7D1343DAB2FB681A71FB7D03F0C5
:1015E0000203FB77FB7F002B03D0BA697B689A422A
:1015F000D7D3BB6918462437BD4690BD80B485B0AB
:1016000000AF7860FF23FB737B68002B00D100BE26
:101610007B68002B09D07B681B799B10DBB203F041
:101620000703FB737B6800221A71FB7B1846143793
:10163000BD4680BC704780B584B000AFF860B9602B
:101640007A603B60FB68BA681A60FB681B68083305
:1016500000211846FEF792FFFB681B680C3300213F
:101660001846FEF78BFFFB681B6879681846FEF783
:1016700055FF3B68002B00D100BEFB681B6804339C
:1016800039681846FEF74AFFFB681B6810330021D3
:101690001846FEF743FFFB681B6818330021184605
:1016A000FEF73CFFFB681B68203300211846FEF75D
:1016B00035FFFB681B68283300211846FEF72EFF14
:1016C000FB681B68303300211846FEF727FFFB68D4
:1016D0001B68383300211846FEF720FFFB681B68A3
:1016E000403300211846FEF719FFFB681B6848339A
:1016F00000211846FEF712FFFB681B6850330021DB
:101700001846FEF70BFFFB681B685833002118468C
:10171000FEF704FFFB681B68603300211846FEF7E4
:10172000FDFEFB681B68683300211846FEF7F6FED5
:10173000FB681B68703300211846FEF7EFFEFB685C
:101740001B68783300211846FEF7E8FEFB681B682B
:10175000803300211846FEF7E1FEFB681B688833E2
:1017600000211846FEF7DAFE00BF1037BD4680BDE7
:1017700080B584B000AF78600B46FB70FB78002B1F
:1017800000D100BEFB78102B00D900BEFB78002BE7
:1017900032D0FB78102B2FD8FB78194AD35CFB731F
:1017A000FB78082B14D87B681B6808331846FEF7B3
:1017B000E7FE0346BB73BA7BFB7B1343BB737B68BB
:1017C0001B680833BA7B11461846FEF7D7FE13E0B4
:1017D0007B681B680C331846FEF7D2FE0346BB73CA
:1017E000BA7BFB7B1343BB737B681B680C33BA7BF0
:1017F00011461846FEF7C2FE00BF1037BD4680BD39
:101800008C48002080B584B000AF78600B46FB7038
:10181000FB78002B00D100BEFB78102B00D900BE56
:10182000FB78002B36D0FB78102B33D8FB781B4A83
:10183000D35CFB73FB78082B16D87B681B680833D6
:101840001846FEF79DFE0346BB73FB7BDB43DAB213
:10185000BB7B1340BB737B681B680833BA7B1146A4
:101860001846FEF78BFE15E07B681B680C331846A4
:10187000FEF786FE0346BB73FB7BDB43DAB2BB7B22
:101880001340BB737B681B680C33BA7B1146184648
:10189000FEF774FE00BF1037BD4680BD8C480020A7
:1018A00080B588B000AFF8600B467A60FB72FB7AB7
:1018B000002B00D100BEFB7A102B00D900BEFB68C4
:1018C0001B6804331846FEF72BFEF8617A68FB6943
:1018D0009A4200D900BEFB7A002B3AD0FB7A102B3B
:1018E00037D87B68002B05D1FB7A1946F868FFF7DB
:1018F00089FF2EE0FB681A68FB7A184951F82330FB
:10190000134400211846FEF709FEFB681A68FB7AAB
:10191000134951F82330134479681846FEF7FEFD49
:10192000FB7A0F4A52F82330BB61FB681A68BB6927
:1019300013441846FEF724FE0346FB757B68DBB2B2
:10194000FA7D9A4200D000BEFB7A1946F868FFF78C
:101950000FFF00BF2037BD4680BD00BFA04800205C
:10196000E448002080B586B000AFF860B960134647
:10197000FB710023FB75BB683B61FB68BA681A60AA
:10198000FB68FA791A710023FB75BB683B6109E0BB
:1019900000213869FEF7F2FD3B6904333B61FB7DB2
:1019A0000133FB75FB7D1F2BF2D9FB681B79012BE3
:1019B0000DD0022B02D0002B1AD036E0FB681B683A
:1019C00080334FF0FF311846FEF7A8FD2FE0FB688B
:1019D0001B6880334FF6FF711846FEF7B7FDFB68B2
:1019E0001B6884334FF6FF711846FEF7AFFD1EE00B
:1019F000FB681B688033FF211846FEF7BFFDFB68BC
:101A00001B688433FF211846FEF7B8FDFB681B688E
:101A10008833FF211846FEF7B1FDFB681B688C3345
:101A2000FF211846FEF7AAFD01E000BE00BF00BF7F
:101A30001837BD4680BD80B586B000AFF8600B4654
:101A40007A60FB72FB7A1F2B00D900BEFB7A1F2B3A
:101A500014D8FB681B687B61FB7A9B001A467B6984
:101A600013447B6179687869FEF758FD7869FEF761
:101A700057FD02467B689A4200D000BE00BF18376F
:101A8000BD4680BD80B582B000AF786039607B68AC
:101A90001B79012B0CD0022B02D0002B1DD047E06C
:101AA0007B681B68A03339681846FEF737FD41E0B4
:101AB0007B681B68A0333A6892B211461846FEF75D
:101AC00045FD7B681B6803F1A4023B681B0C9BB2BD
:101AD00019461046FEF73AFD2CE07B681B68A033E0
:101AE0003A68D2B211461846FEF748FD7B681B687B
:101AF00003F1A4023B681B0ADBB219461046FEF74D
:101B00003DFD7B681B6803F1A8023B681B0CDBB240
:101B100019461046FEF732FD7B681B6803F1AC02E4
:101B20003B681B0EDBB219461046FEF727FD01E0AD
:101B300000BE00BF786800F009F802463B689A4290
:101B400000D000BE00BF0837BD4680BD80B584B060
:101B500000AF78600023FB607B681B79012B0CD001
:101B6000022B02D0002B20D04FE07B681B68A033F3
:101B70001846FEF7D5FCF86049E07B681B68A03387
:101B80001846FEF7E5FC03461A46FB681343FB6064
:101B90007B681B68A4331846FEF7DAFC03461B0477
:101BA0001A46FB681343FB6031E07B681B68A03377
:101BB0001846FEF7CDFC03461A46FB681343FB604C
:101BC0007B681B68A4331846FEF7C2FC03461B0261
:101BD0001A46FB681343FB607B681B68A8331846F2
:101BE000FEF7B6FC03461B041A46FB681343FB6072
:101BF0007B681B68AC331846FEF7AAFC03461B063D
:101C00001A46FB681343FB6001E000BE00BFFB689F
:101C100018461037BD4680BD80B584B000AF7860EF
:101C20000B46FB707B681B68FB60FB781F2B00D9A1
:101C300000BEFB781F2B12D8FB789B001A46FB686E
:101C40001344FB60F868FEF79BFC0346BB60BB686F
:101C500043F00803BB60B968F868FEF78FFC00BF6B
:101C60001037BD4680BD80B584B000AF78600B46AC
:101C7000FB707B681B68FB60FB781F2B00D900BEE4
:101C8000FB781F2B12D8FB789B001A46FB68134485
:101C9000FB60F868FEF774FC0346BB60BB6823F08A
:101CA0000803BB60B968F868FEF768FC00BF10372E
:101CB000BD4680BD80B584B000AF78600B46FB7038
:101CC000FB78012202FA03F3FB607B681B79012B8E
:101CD0000CD0022B02D0002B1AD03FE07B681B688F
:101CE0008033F9681846FEF719FC39E07B681B68F9
:101CF0008033F9681846FEF729FC7B681B6803F1FE
:101D00008402FB681B0C19461046FEF71FFC27E0F7
:101D10007B681B688033F9681846FEF72FFC7B68E8
:101D20001B6803F18402FB681B0A19461046FEF784
:101D300025FC7B681B6803F18802FB681B0C1946B5
:101D40001046FEF71BFC7B681B6803F18C02FB68E6
:101D50001B0E19461046FEF711FC01E000BE00BF45
:101D600000BF1037BD4680BD80B500AF00F0FAF867
:101D7000044A044B5B6943F400735361FEF75AFB5A
:101D800000BF80BD00ED00E080B588B000AF304BF3
:101D9000D3F8983003F08063FB61FB69002B4CD1D2
:101DA0002B4BD3F8983003F48053BB61BB69002BF5
:101DB00015D1284B284A1A60284B274A1A60284B0D
:101DC000254A1A60274B284A1A60284B284A1A606D
:101DD000284B214A1A60284B1F4A1A6034E0274AD0
:101DE0003B1D92E8030083E80300194BD3F89C30B5
:101DF0009B0903F007037B613A1D7B6913441B7841
:101E0000FB74FB7C012B0AD0022B0DD0002B0FD1D1
:101E100000F038F8F860F86800F052F814E04FF479
:101E2000004000F04DF80FE0154800F049F80BE0D5
:101E3000134800F045F800BF06E000F023F8F86012
:101E4000F86800F03DF8FFE700BF2037BD4680BDD1
:101E50000080034064490020003B58086849002086
:101E60006C49002070490020C00E16027449002001
:101E7000801D2C04784900207C490020284900203E
:101E800040420F0080B483B000AF0A4BD3F850310A
:101E900003F004033B603B68002B02D1064B7B60E0
:101EA00001E0064B7B607B6818460C37BD4680BC62
:101EB000704700BF0080034040787D0180F0FA0247
:101EC00080B483B000AF78600C4A7B6813600C4A22
:101ED0007B6813600B4A7B6813600B4B0B4A1A60DC
:101EE0000B4A7B6813600B4A7B6813600A4A7B6865
:101EF000136000BF0C37BD4680BC704764490020AA
:101F0000684900206C49002070490020C00E16026C
:101F100074490020784900207C49002080B483B0B7
:101F200000AF0E4BD3F84C313B603B684FF60202DA
:101F3000934203D00A4A934203D005E001237B6019
:101F400005E002237B6002E000237B6000BF7B682A
:101F500018460C37BD4680BC704700BF0080034068
:101F600002F8010080B582B000AFFFF7D7FF7860BC
:101F70007B68012B00D002E000F006F800BF00BF34
:101F80000837BD4680BD000080B400AF094A094B48
:101F9000D3F8983043F48073C2F89830054A054B63
:101FA000D3F8983023F08063C2F8983000BFBD4664
:101FB00080BC70470080034080B483B000AF03460C
:101FC000FB71084997F907305B09FA7902F01F02A3
:101FD000012000FA02F241F8232000BF0C37BD4671
:101FE00080BC704700E100E080B483B000AF0346DE
:101FF000FB71094997F907305B09FA7902F01F0272
:10200000012000FA02F2203341F8232000BF0C37F0
:10201000BD4680BC704700BF00E100E080B483B0E3
:1020200000AF0346FB71094997F907305B09FA795C
:1020300002F01F02012000FA02F2603341F823206F
:1020400000BF0C37BD4680BC704700BF00E100E018
:1020500080B483B000AF03463960FB7197F9073055
:10206000002B0BDA0D49FB7903F00F03043B3A68B0
:10207000D2B21201D2B20B441A7609E0084997F99C
:1020800007303A68D2B21201D2B20B4483F800236F
:1020900000BF0C37BD4680BC704700BF00ED00E0BC
:1020A00000E100E080B582B000AF0346FB710E2076
:1020B000FFF79AFF104A104B9B6C23F04003936488
:1020C0004FF0402300225A650C4B0022C3F88021B8
:1020D0000A4B0022C3F88821084AFB79C2F88431F0
:1020E0004FF0402301221A610E20FFF797FF00BF37
:1020F0000837BD4680BD00BF008003400000084295
:1021000080B400AF034B0122C3F8802100BFBD465D
:1021100080BC70470000084280B483B000AF786094
:102120004FF040227B68536000BF0C37BD4680BC37
:102130007047000080B500AF044B0122C3F888212E
:102140000E20FFF739FF00BF80BD00BF000008422E
:1021500080B500AF044B0022C3F888210E20FFF7A2
:1021600043FF00BF80BD00BF0000084280B400AF45
:102170004FF0402301221A61BFF34F8F00BFBD46CD
:1021800080BC704780B58AB000AF40F28F13042244
:102190004FF0A041AE48FFF74EFAC82000F0FCF91E
:1021A0000621AC4800F010FA0421AB4800F00CFA0C
:1021B0000521AA4800F008FA0221A94800F004FA13
:1021C00003214FF0000000F0FFF90721A54800F0BF
:1021D000FBF90821A14800F0F7F94FF47A7000F0FC
:1021E000DBF90621A04800F0EFF904219F4800F038
:1021F000EBF905219E4800F0E7F902219D4800F027
:10220000E3F903214FF07E5000F0DEF907219A48F0
:1022100000F0DAF90821964800F0D6F94FF47A7008
:1022200000F0BAF906218B4800F0CEF904218A4863
:1022300000F0CAF90521894800F0C6F90221884852
:1022400000F0C2F903214FF0000000F0BDF90721B2
:10225000844800F0B9F90821804800F0B5F94FF43E
:102260007A7000F099F900F0BBFB4FF4FA7000F0BF
:1022700093F93B4620220021184602F029FA012357
:1022800025227E497E48FFF791F802227D497C484D
:10229000FFF715F9FFF778FD02227B497B48FFF72E
:1022A00061FB052200217948FFF7C5FB05220121CA
:1022B0007648FFF7C0FB052202217448FFF7BBFBFD
:1022C000734B1B6819467148FFF7DCFB4322002162
:1022D0006E48FFF7B0FB432201216C48FFF7ABFBD0
:1022E000052202216948FFF7A6FB00216748FFF796
:1022F00093FC01216548FFF78FFC2320FFF75CFE6C
:102300002420FFF759FE06212320FFF7A1FE052117
:102310002420FFF79DFE5F4B1A6813469B00134471
:102320003B620020FFF7BEFE386AFFF7F5FEFFF7BD
:10233000E7FEFFF7FFFE564B1B6819465348FFF7B1
:10234000A1FB4F48FFF75AF90346002B06D13B4645
:10235000202219464A48FFF7F1F878627B6A002B81
:102360000BD03B78412B08D100233B700321474819
:10237000FFF788FB00F00CFE68E07B6A002B0BD0B7
:102380003B78422B08D100233B7003213F48FFF7E5
:1023900079FB00F0DDFE59E07B6A002B0BD03B7827
:1023A000432B08D100233B7003213848FFF76AFB19
:1023B00000F0B2FF4AE07B6A002B0BD03B78442B45
:1023C00008D100233B7003213048FFF75BFB01F08D
:1023D0008DF83BE07B6A002B0BD03B78452B08D176
:1023E00001212A48FFF74EFB00233B7001F068F9FA
:1023F0002CE07B6A002B0BD03B78472B08D10023C5
:102400003B7001212148FFF73DFB01F05BFA1DE025
:102410007B6A002B0BD03B78492B08D106211B4847
:10242000FFF730FB00233B7000F084FC0EE07B6A7A
:10243000002B80D03B784A2B7FF47DAF00233B708C
:1024400005211248FFF71EFB00F0CAFA73E700BF30
:10245000404F002000008C420000A0420000C84213
:102460000000B4420000824200008E420000A242FE
:102470000000CA420000B642000084420020005022
:10248000384F00208049002000100030304F0020DD
:10249000844900206849002080B500AF0D48FFF74F
:1024A00055FB02460C4B1A600B4B1B6883F007036D
:1024B000094A1360084B1B6819460648FFF7E2FA01
:1024C000022206490648FEF7FAFFFFF74FFE00BF5B
:1024D00080BD00BF304F002084490020804900208B
:1024E000384F002080B500AF00211148FFF7BBFB3B
:1024F00001210F48FFF7B7FB04210D48FFF7C2FA8F
:1025000000210B48FFF7D6FB01210948FFF7D2FB5A
:1025100000210748FFF780FB01210548FFF77CFBFE
:1025200000F0F6FA4FF47A6000F036F8F8E700BFF2
:10253000304F002080B500AFFFF70AFE002114489D
:10254000FFF791FB05211248FFF79CFA0121114882
:10255000FFF758F902210F48FFF754F903210D48FE
:10256000FFF750F904210B48FFF74CF90521094802
:10257000FFF748F906210748FFF744F90721054806
:10258000FFF740F908210348FFF73CF9FEE700BFD9
:10259000304F0020404F002080B485B000AF7860FD
:1025A0000023FB6002E0FB680133FB607B6841F6BF
:1025B000641202FB03F2FB689A42F4DC00BF14379A
:1025C000BD4680BC7047000090B585B000AF786014
:1025D00039603B68012B2CD1786801F0F1FB4FF09A
:1025E00000024FF0000301F08DFA03460C46184636
:1025F0002146BFA3D3E9002301F036FC03460C4675
:10260000184621464FF00002C14B01F07BFA034609
:102610000C461846214601F039FE0346FB60F86877
:1026200002F008F803461A460121BA48FFF738F9C4
:1026300057E13B68022B2CD1786801F0C1FB4FF0C9
:1026400000024FF0000301F05DFA03460C46184605
:102650002146A7A3D3E9002301F006FC03460C465C
:10266000184621464FF00002A94B01F04BFA0346F1
:102670000C461846214601F009FE0346FB60F86847
:1026800001F0D8FF03461A460221A248FFF708F9D5
:1026900027E13B68032B35D1786801F091FB4FF0BF
:1026A00000029D4B01F02EFA03460C4618462146C7
:1026B0004FF000024FF0000301F024FA03460C46ED
:1026C000184621468CA3D3E9002301F0CDFB034635
:1026D0000C46184621464FF00002904B01F012FACA
:1026E00003460C461846214601F0D0FD0346FB6028
:1026F000F86801F09FFF03461A4603218548FFF75B
:10270000CFF8EEE03B68042B2CD1786801F058FB41
:102710004FF000024FF0000301F0F4F903460C46BD
:102720001846214672A3D3E9002301F09DFB03461E
:102730000C46184621464FF00002754B01F0E2F9B5
:1027400003460C461846214601F0A0FD0346FB60F7
:10275000F86801F06FFF03461A4604216D48FFF741
:102760009FF8BEE03B68052B2CD1786801F028FB70
:102770004FF000024FF0000301F0C4F903460C468D
:10278000184621465EA3D3E9002301F06DFB034602
:102790000C46184621464FF00002614B01F0B2F999
:1027A00003460C461846214601F070FD0346FB60C7
:1027B000F86801F03FFF03461A4605215548FFF728
:1027C0006FF88EE03B68062B2CD1786801F0F8FAA0
:1027D0004FF000024FF0000301F094F903460C465D
:1027E0001846214648A3D3E9002301F03DFB0346E8
:1027F0000C46184621464FF000024A4B01F082F980
:1028000003460C461846214601F040FD0346FB6096
:10281000F86801F00FFF03461A4606213D48FFF70E
:102820003FF85EE03B68072B2CD1786801F0C8FACE
:102830004FF000024FF0000301F064F903460C462C
:10284000184621462AA3D3E9002301F00DFB0346D5
:102850000C46184621464FF000022D4B01F052F96C
:1028600003460C461846214601F010FD0346FB6066
:10287000F86801F0DFFE03461A4607212548FFF7F6
:102880000FF82EE03B68082B2BD1786801F098FAFE
:102890004FF000024FF0000301F034F903460C46FC
:1028A0001846214612A3D3E9002301F0DDFA0346BE
:1028B0000C46184621464FF00002154B01F022F954
:1028C00003460C461846214601F0E0FC0346FB6037
:1028D000F86801F0AFFE03461A4608210D48FEF7DE
:1028E000DFFF00BF1437BD4690BD00BFAFF30080CF
:1028F0002A2A2A2A2A2A02405A5A5A5A5A5A02403C
:102900004E4E4E4E4E4E024036363636363602402B
:1029100000405940404F0020008044400040584053
:10292000008058400000594080B500AF06210F4894
:10293000FFF74AFE04210E48FFF746FE05210D4829
:10294000FFF742FE02210C48FFF73EFE03214FF045
:102950000000FFF739FE07210848FFF735FE082180
:102960000448FFF731FE00BF80BD00BF00008C426D
:102970000000A0420000C8420000B44200008242B1
:1029800080B582B000AF78607B68002B04D106214F
:102990001048FFF719FE16E07B68012B04D10621D1
:1029A0000D48FFF711FE0EE07B68022B04D10621D3
:1029B0000A48FFF709FE06E07B68032B03D10621D6
:1029C0000548FFF701FE3220FFF7E6FD00BF08379C
:1029D000BD4680BD00008C420000DC420000704219
:1029E00080B582B002AF022301930A2300934FF017
:1029F0007E5301221E491E4800F044F80323019330
:102A00000A2300934FF07E5301224FF00001194832
:102A100000F038F84FF47A70FFF7BEFD04230193FD
:102A20000A2300934FF07E5300221349114800F00F
:102A300029F84FF47A70FFF7AFFD082301930A23BA
:102A400000934FF07E5300220C490D4800F01AF815
:102A50004FF47A70FFF7A0FD0120FFF791FF4FF4CC
:102A60007A70FFF799FDFFF75FFF00BFBD4680BD9D
:102A70000000B442000020420000A0420000C84212
:102A80000000704280B588B000AFF860B9607A602D
:102A90003B607B68012B19D1BB68BB610EE0F96A12
:102AA000B869FFF791FDB86AFFF776FDBB69FB6176
:102AB0003968B86901F040FC0346BB61F968B86940
:102AC00001F09AFD0346002BE9D11BE07B68002B47
:102AD00018D1BB687B610EE0F96A7869FFF774FD75
:102AE000B86AFFF759FD7B69FB613968786901F0C5
:102AF00021FC03467B61F968786901F087FD034694
:102B0000002BE9D1FB6918462037BD4680BD000087
:102B100080B582B002AF06217A48FFF755FD042345
:102B20000193052300934FF07E53002276497748A6
:102B3000FFF7A8FF022301930A2300934FF07E536F
:102B4000012273497348FFF79DFF05230193052375
:102B500000934FF07E5301226E496F48FFF792FFBA
:102B60000220FFF70DFFC820FFF716FD0223019397
:102B70000A2300934FF07E53012266496748FFF70E
:102B800081FF03230193082300934FF07E5301221A
:102B90004FF000015C48FFF775FF04230193052304
:102BA00000934FF07E53012258495D48FFF76AFFBA
:102BB000C820FFF7F1FC0320FFF7E2FE0523019395
:102BC000052300934FF07E53002253494FF000003D
:102BD000FFF758FFC820FFF7DFFC0523019305230B
:102BE00000934FF07E5301224FF000014A48FFF757
:102BF00049FFC820FFF7D0FC03230193082300936B
:102C00004FF07E53002240494648FFF73BFF042324
:102C10000193052300934FF07E53012240493E4823
:102C2000FFF730FF0220FFF7ABFEC820FFF7B4FC30
:102C3000022301930A2300934FF07E5300223A4966
:102C40004FF00000FFF71EFFC820FFF7A5FC032090
:102C5000FFF796FE05230193052300934FF07E5363
:102C600001224FF000013148FFF70CFFC820FFF7A9
:102C700093FC05230193052300934FF07E5300221C
:102C80002A494FF00000FFF7FDFEC820FFF784FC43
:102C90000220FFF775FE04230193052300934FF0F4
:102CA0007E53002222491848FFF7ECFE05230193CA
:102CB000052300934FF07E5301224FF00001154889
:102CC000FFF7E0FE022301930A2300934FF07E53A7
:102CD00001224FF000010E48FFF7D4FE03230193B9
:102CE000082300934FF07E5301220E490648FFF758
:102CF000C9FEFFF719FE4FF4FA70FFF74DFC00BF55
:102D0000BD4680BD0000DC420000A04200004842F9
:102D10000000B4420000C8420000164300000C430B
:102D20000000F0420000F041000020430000344366
:102D30000000024380B582B002AF06230193032353
:102D400000934FF07E53002285498648FFF79AFE94
:102D500006230193032300934FF07E530122814900
:102D60008148FFF78FFEC820FFF716FC062301936A
:102D7000032300934FF07E5300227B497948FFF7ED
:102D800081FEC820FFF708FC06230193032300936C
:102D90004FF07E53012273497148FFF773FEC8203C
:102DA000FFF7FAFB08217148FFF70EFC042301939B
:102DB000032300934FF07E5300226D496D48FFF7C7
:102DC00061FE04230193052300934FF07E530122FB
:102DD00068496948FFF756FEC820FFF7DDFB04236A
:102DE0000193052300934FF07E530022624960480F
:102DF000FFF748FEC820FFF7CFFB08215B48FFF72D
:102E0000E3FB05230193032300934FF07E5300223D
:102E100056495A48FFF736FE0523019305230093D0
:102E20004FF07E53012251495548FFF72BFEC82031
:102E3000FFF7B2FB05230193052300934FF07E5368
:102E400000224F494948FFF71DFEC820FFF7A4FBA9
:102E500005214648FFF7B8FBC820FFF79DFB082176
:102E60004248FFF7B1FB02230193032300934FF085
:102E70007E53002243494448FFF704FE0223019396
:102E80000A2300934FF07E5301223F493F48FFF74A
:102E9000F9FDC820FFF780FB022301930A2300936A
:102EA0004FF07E53002239493648FFF7EBFDC8202A
:102EB000FFF772FB02213348FFF786FBC820FFF7BC
:102EC0006BFB08212948FFF77FFB032301930823AD
:102ED00000934FF07E5301224FF000012448FFF78A
:102EE000D1FDC820FFF758FB03230193082300936B
:102EF0004FF07E5300221E494FF00000FFF7C2FD45
:102F0000C820FFF749FB03214FF00000FFF75CFBEF
:102F1000C820FFF741FB08230193082300934FF0DB
:102F20007E53012211491648FFF7ACFD4FF4FA70A9
:102F3000FFF732FB082301930B2300934FF07C53E0
:102F400000220F490948FFF79DFD4FF4FA70FFF783
:102F500023FB4FF47A70FFF71FFB00BFBD4680BD17
:102F600000008C42000020420000DC420000C84209
:102F70000000A0420000F0410000F0420000484282
:102F8000000020430000B4420000204100002A431A
:102F900080B582B002AF022301930A2300934FF061
:102FA0007E53012264496448FFF76CFD03230193BB
:102FB0000A2300934FF07E5301224FF000015F4837
:102FC000FFF760FD4FF47A70FFF7E6FA04230193F0
:102FD0000A2300934FF07E53002259495748FFF7C8
:102FE00051FD4FF47A70FFF7D7FA082301930A23B3
:102FF00000934FF07E53002252495348FFF742FDA1
:103000004FF47A70FFF7C8FA0120FFF7B9FC4FF4CC
:103010007A70FFF7C1FA082301930A2300934FF057
:103020007E53012248494648FFF72CFD03230193B4
:103030000A2300934FF07E53002240494348FFF794
:1030400021FD4FF47A70FFF7A7FA022301930A23B8
:1030500000934FF07E53002237493B48FFF712FDA3
:103060004FF4FA70FFF798FA082301930A230093AC
:103070004FF07E53002232493348FFF703FD4FF4EF
:10308000FA70FFF789FA032301930A2300934FF0A4
:103090007E5301222D492948FFF7F4FC4FF4FA70C2
:1030A000FFF77AFA0220FFF76BFC4FF47A70FFF714
:1030B00073FA0020FFF764FC082301930A230093AE
:1030C0004FF07E53012220491E48FFF7DBFC4FF4EE
:1030D000FA70FFF761FA032301930A2300934FF07C
:1030E0007E53002215494FF00000FFF7CBFC4FF450
:1030F000FA70FFF751FA022301930A2300934FF06D
:103100007E53012210490C48FFF7BCFC4FF4FA70C3
:10311000FFF742FA042301930A2300934FF07E53F2
:10312000012206490648FFF7ADFC40F6B830FFF72C
:1031300033FA00BFBD4680BD0000B442000020420B
:103140000000A0420000C842000070420000F041B0
:1031500080B582B002AF022301930A2300934FF09F
:103160007E53002266496748FFF78CFC4FF4FA70E3
:10317000FFF712FA042301930A2300934FF07E53C2
:10318000002261496148FFF77DFC4FF4FA70FFF7B8
:1031900003FA032301930A2300934FF07E53012285
:1031A0004FF000015948FFF76DFC4FF4FA70FFF73C
:1031B000F3F9082301930A2300934FF07E53002272
:1031C00053495048FFF75EFC4FF47A70FFF7E4F97B
:1031D0000120FFF7D5FB4FF47A70FFF7DDF90823E4
:1031E00001930A2300934FF07E530122454946483C
:1031F000FFF748FC032301930A2300934FF07E530B
:10320000002242494348FFF73DFC4FF4FA70FFF7B4
:10321000C3F9022301930A2300934FF07E53012246
:1032200038493748FFF72EFC4FF4FA70FFF7B4F92E
:10323000082301930A2300934FF07E530022324962
:103240003048FFF71FFC4FF4FA70FFF7A5F903238E
:1032500001930A2300934FF07E5301222D492B48FE
:10326000FFF710FC4FF4FA70FFF796F90220FFF712
:1032700087FB4FF47A70FFF78FF90020FFF780FB90
:10328000082301930A2300934FF07E5301221D4926
:103290001F48FFF7F7FB4FF4FA70FFF77DF90323A0
:1032A00001930A2300934FF07E53002217494FF0F9
:1032B0000000FFF7E7FB4FF4FA70FFF76DF9022308
:1032C00001930A2300934FF07E5301220C490C48CE
:1032D000FFF7D8FB4FF4FA70FFF75EF90423019370
:1032E0000A2300934FF07E53012208490648FFF756
:1032F000C9FB40F6B830FFF74FF900BFBD4680BDAF
:103300000000B442000070420000A04200002042D1
:103310000000C8420000F04180B582B002AF022335
:1033200001930A2300934FF07E53002266496748B9
:10333000FFF7A8FB4FF4FA70FFF72EF9042301936F
:103340000A2300934FF07E53012261496148FFF741
:1033500099FB4FF4FA70FFF71FF9032301930A2337
:1033600000934FF07E5301224FF000015A48FFF7BF
:1033700089FB4FF4FA70FFF70FF9082301930A2332
:1033800000934FF07E53002254495548FFF77AFBD3
:103390004FF47A70FFF700F90120FFF7F1FA4FF4CC
:1033A0007A70FFF7F9F8082301930A2300934FF08E
:1033B0007E5301224A494948FFF764FB03230193E6
:1033C0000A2300934FF07E53002243494548FFF7FC
:1033D00059FB4FF4FA70FFF7DFF8022301930A2339
:1033E00000934FF07E53012238493C48FFF74AFBD7
:1033F0004FF4FA70FFF7D0F8082301930A230093E3
:103400004FF07E53002235493148FFF73BFB4FF424
:10341000FA70FFF7C1F8032301930A2300934FF0DA
:103420007E5301222F493048FFF72CFB4FF4FA70EE
:10343000FFF7B2F80220FFF7A3FA4FF47A70FFF714
:10344000ABF80020FFF79CFA082301930A230093AE
:103450004FF07E5301221E492048FFF713FB4FF423
:10346000FA70FFF799F8032301930A2300934FF0B2
:103470007E5300221C494FF00000FFF703FB4FF47E
:10348000FA70FFF789F8022301930A2300934FF0A3
:103490007E53002211490C48FFF7F4FA4FF4FA70FA
:1034A000FFF77AF8042301930A2300934FF07E5329
:1034B000002208490648FFF7E5FA40F6B830FFF762
:1034C0006BF800BFBD4680BD0000B44200005C4206
:1034D0000000A0420000AA42000070420000C84262
:1034E00000008C420000F0410000204280B582B014
:1034F00002AF022301930A2300934FF07E5301226F
:1035000068496948FFF7BEFA4FF4FA70FFF744F8CC
:10351000042301930A2300934FF07E530122634951
:103520006348FFF7AFFA4FF4FA70FFF735F803235B
:1035300001930A2300934FF07E5301224FF00001C4
:103540005C48FFF79FFA4FF4FA70FFF725F808235D
:1035500001930A2300934FF07E53002252495348AF
:10356000FFF790FA4FF47A70FFF716F80120FFF793
:1035700007FA4FF47A70FFF70FF8082301930A2334
:1035800000934FF07E53012248494748FFF77AFAEB
:103590004FF4FA70FFF700F8032301930A23009316
:1035A0004FF07E53002243494348FFF76BFA4FF434
:1035B000FA70FEF7F1FF022301930A2300934FF004
:1035C0007E53002238493D48FFF75CFA4FF4FA7009
:1035D000FEF7E2FF032301930A2300934FF07E538B
:1035E000012235493348FFF74DFA4FF4FA70FEF7E0
:1035F000D3FF082301930A2300934FF07E53002248
:1036000029492A48FFF73EFA4FF4FA70FEF7C4FF43
:103610000220FFF7B5F94FF47A70FEF7BDFF0020E6
:10362000FFF7AEF9082301930A2300934FF07E536E
:1036300001221E491C48FFF725FA4FF47A70FEF765
:10364000ABFF032301930A2300934FF07E53002224
:1036500018494FF00000FFF715FA4FF4FA70FEF723
:103660009BFF022301930A2300934FF07E53012214
:1036700012490C48FFF706FA4FF4FA70FEF78CFF78
:10368000042301930A2300934FF07E53002208493C
:103690000648FFF7F7F940F6B830FEF77DFF00BFA8
:1036A000BD4680BD0000B4420000C8420000A042F8
:1036B0000000AA42000020420000F04100005C42ED
:1036C00080B582B002AF022301930A2300934FF02A
:1036D0007E53012273497348FFF7D4F90323019302
:1036E0000A2300934FF07E5301224FF000016E48F1
:1036F000FFF7C8F94FF47A70FEF74EFF04230193E9
:103700000A2300934FF07E53002268496648FFF772
:10371000B9F94FF47A70FEF73FFF082301930A23AB
:1037200000934FF07E53002261496248FFF7AAF9E7
:103730004FF47A70FEF730FF0120FFF721F94FF4C4
:103740007A70FEF729FF082301930A2300934FF0B4
:103750007E53012257495348FFF794F903230193FD
:103760000A2300934FF07E5300224F495248FFF73F
:1037700089F94FF47A70FEF70FFF052301930A23AE
:1037800000934FF07E53002249494C48FFF77AF9E5
:103790004FF4FA70FEF700FF052301930A2300930C
:1037A0004FF07E53012245494548FFF76BF94FF42E
:1037B000FA70FEF7F1FE052301930A2300934FF000
:1037C0007E5300223E493D48FFF75CF94FF4FA7002
:1037D000FEF7E2FE052301930A2300934FF07E5388
:1037E000012236493248FFF74DF94FF4FA70FEF7DF
:1037F000D3FE032301930A2300934FF07E5301224B
:103800002D492948FFF73EF94FF4FA70FEF7C4FE40
:10381000082301930A2300934FF07E53002221498D
:103820002448FFF72FF94FF4FA70FEF7B5FE022097
:10383000FFF7A6F84FF4FA70FEF7AEFE0020FFF790
:103840009FF8082301930A2300934FF07E5301222F
:1038500018491748FFF716F94FF47A70FEF79CFEE7
:10386000032301930A2300934FF07E5300220E4955
:103870004FF00000FFF706F94FF4FA70FEF78CFEE8
:10388000042301930A2300934FF07E53012206493B
:103890000648FFF7F7F840F6B830FEF77DFE00BFA8
:1038A000BD4680BD0000B442000020420000A0429E
:1038B0000000C842000070420000A04100004842E1
:1038C0000000204380B582B002AF022301930A2397
:1038D00000934FF07E5300227D497E48FFF7D2F8D7
:1038E0004FF4FA70FEF758FE042301930A23009365
:1038F0004FF07E53012278497848FFF7C3F84FF420
:10390000FA70FEF749FE032301930A2300934FF058
:103910007E5301224FF000017148FFF7B3F84FF4D6
:10392000FA70FEF739FE082301930A2300934FF043
:103930007E5300226B496C48FFF7A4F84FF47A706D
:10394000FEF72AFE0120FFF71BF84FF47A70FEF70E
:1039500023FE082301930A2300934FF07E53012294
:1039600061496048FFF78EF8032301930A2300930F
:103970004FF07E5300225A495C48FFF783F84FF41A
:10398000FA70FEF709FE052301930A2300934FF016
:103990007E53002253495648FFF774F84FF4FA70EB
:1039A000FEF7FAFD052301930A2300934FF07E539F
:1039B00001224F494F48FFF765F84FF4FA70FEF7C0
:1039C000EBFD052301930A2300934FF07E53002261
:1039D00048494748FFF756F84FF4FA70FEF7DCFD08
:1039E000052301930A2300934FF07E53012240499F
:1039F0003C48FFF747F84FF4FA70FEF7CDFD03237C
:103A000001930A2300934FF07E5301223749344833
:103A1000FFF738F84FF4FA70FEF7BEFD0823019364
:103A20000A2300934FF07E5300222E492E48FFF7C1
:103A300029F84FF4FA70FEF7AFFD0220FEF7A0FF61
:103A40004FF4FA70FEF7A8FD0020FEF799FF082357
:103A500001930A2300934FF07E530122224921480B
:103A6000FFF710F84FF47A70FEF796FD03230193E9
:103A70000A2300934FF07E53002219494FF00000B3
:103A8000FFF700F84FF4FA70FEF786FD0423019368
:103A90000A2300934FF07E53002210490E48FEF790
:103AA000F1FF4FF4FA70FEF777FD022301930A232A
:103AB00000934FF07E53002206490548FEF7E2FFCF
:103AC00040F6B830FEF768FD00BFBD4680BD00BFC0
:103AD0000000B44200005C420000A0420000AA4284
:103AE000000070420000C84200008C420000F0411B
:103AF000000048420000204381F0004102E000BF86
:103B000083F0004330B54FEA41044FEA430594EA9D
:103B1000050F08BF90EA020F1FBF54EA000C55EAD8
:103B2000020C7FEA645C7FEA655C00F0E2804FEAA9
:103B30005454D4EB5555B8BF6D420CDD2C4480EA8B
:103B4000020281EA030382EA000083EA010180EABB
:103B5000020281EA0303362D88BF30BD11F0004F09
:103B60004FEA01314FF4801C4CEA113102D040423F
:103B700061EB410113F0004F4FEA03334CEA13337A
:103B800002D0524263EB430394EA050F00F0A78092
:103B9000A4F10104D5F1200E0DDB02FA0EFC22FA8D
:103BA00005F2801841F1000103FA0EF2801843FA81
:103BB00005F359410EE0A5F120050EF1200E012A72
:103BC00003FA0EFC28BF4CF0020C43FA05F3C018B0
:103BD00051EBE37101F0004507D54FF0000EDCF129
:103BE000000C7EEB00006EEB0101B1F5801F1BD3D2
:103BF000B1F5001F0CD349085FEA30004FEA3C0CD6
:103C000004F101044FEA445212F5800F80F09A80CB
:103C1000BCF1004F08BF5FEA500C50F1000041EBCF
:103C2000045141EA050130BD5FEA4C0C404141EBD3
:103C3000010111F4801FA4F10104E9D191F0000FFA
:103C400004BF01460020B1FA81F308BF2033A3F17D
:103C50000B03B3F120020CDA0C3208DD02F1140C74
:103C6000C2F10C0201FA0CF021FA02F10CE002F1AF
:103C70001402D8BFC2F1200C01FA02F120FA0CFCA8
:103C8000DCBF41EA0C019040E41AA2BF01EB0451F1
:103C9000294330BD6FEA04041F3C1CDA0C340EDCEF
:103CA00004F11404C4F1200220FA04F001FA02F332
:103CB00040EA030021FA04F345EA030130BDC4F1F0
:103CC0000C04C4F1200220FA02F001FA04F340EAE5
:103CD0000300294630BD21FA04F0294630BD94F096
:103CE000000F83F4801306BF81F480110134013D7D
:103CF0004EE77FEA645C18BF7FEA655C29D094EAEE
:103D0000050F08BF90EA020F05D054EA000C04BF6B
:103D10001946104630BD91EA030F1EBF0021002056
:103D200030BD5FEA545C05D14000494128BF41F0F5
:103D3000004130BD14F580043CBF01F5801130BD59
:103D400001F0004545F0FE4141F470014FF00000E4
:103D500030BD7FEA645C1ABF194610467FEA655C95
:103D60001CBF0B46024650EA013406BF52EA033537
:103D700091EA030F41F4002130BD00BF90F0000F25
:103D800004BF0021704730B54FF4806404F1320461
:103D90004FF000054FF0000150E700BF90F0000F1A
:103DA00004BF0021704730B54FF4806404F1320441
:103DB00010F0004548BF40424FF000013EE700BF11
:103DC00042004FEAE2014FEA31014FEA02701FBFA1
:103DD00012F07F4393F07F4F81F06051704792F073
:103DE000000F14BF93F07F4F704730B54FF46074ED
:103DF00001F0004521F0004120E700BF50EA010238
:103E000008BF704730B54FF000050AE050EA0102E4
:103E100008BF704730B511F0004502D5404261EB54
:103E200041014FF4806404F132045FEA915C3FF495
:103E3000DCAE4FF003025FEADC0C18BF03325FEA2E
:103E4000DC0C18BF033202EBDC02C2F1200300FAE3
:103E500003FC20FA02F001FA03FE40EA0E0021FA08
:103E600002F11444C1E600BF70B54FF0FF0C4CF4F2
:103E7000E06C1CEA11541DBF1CEA135594EA0C0FA8
:103E800095EA0C0F00F0DEF82C4481EA030621EAE3
:103E90004C5123EA4C5350EA013518BF52EA03351E
:103EA00041F4801143F4801338D0A0FB02CE4FF0D0
:103EB0000005E1FB02E506F00042E0FB03E54FF000
:103EC0000006E1FB03569CF0000F18BF4EF0010EF8
:103ED000A4F1FF04B6F5007F64F5407404D25FEAF4
:103EE0004E0E6D4146EB060642EAC62141EA5551A7
:103EF0004FEAC52040EA5E504FEACE2EB4F1FD0CE9
:103F000088BFBCF5E06F1ED8BEF1004F08BF5FEA66
:103F1000500E50F1000041EB045170BD06F0004618
:103F200046EA010140EA020081EA0301B4EB5C04C5
:103F3000C2BFD4EB0C0541EA045170BD41F48011BD
:103F40004FF0000E013C00F3AB8014F1360FDEBFE2
:103F5000002001F0004170BDC4F10004203C35DABE
:103F60000C341BDC04F11404C4F1200500FA05F341
:103F700020FA04F001FA05F240EA020001F00042E2
:103F800021F0004110EBD37021FA04F642EB060158
:103F90005EEA430E08BF20EAD37070BDC4F10C0482
:103FA000C4F1200500FA04F320FA05F001FA04F246
:103FB00040EA020001F0004110EBD37041F1000132
:103FC0005EEA430E08BF20EAD37070BDC4F120053D
:103FD00000FA05F24EEA020E20FA04F301FA05F2A5
:103FE00043EA020321FA04F001F0004121FA04F24D
:103FF00020EA020000EBD3705EEA430E08BF20EA1D
:10400000D37070BD94F0000F0FD101F00046400056
:1040100041EB010111F4801F08BF013CF7D041EAD8
:10402000060195F0000F18BF704703F000465200DC
:1040300043EB030313F4801F08BF013DF7D043EAAD
:104040000603704794EA0C0F0CEA135518BF95EA63
:104050000C0F0CD050EA410618BF52EA4306D1D1EA
:1040600081EA030101F000414FF0000070BD50EA09
:10407000410606BF1046194652EA430619D094EA93
:104080000C0F02D150EA013613D195EA0C0F05D17D
:1040900052EA03361CBF104619460AD181EA0301D1
:1040A00001F0004141F0FE4141F470014FF0000089
:1040B00070BD41F0FE4141F4780170BD70B54FF024
:1040C000FF0C4CF4E06C1CEA11541DBF1CEA1355A4
:1040D00094EA0C0F95EA0C0F00F0A7F8A4EB050486
:1040E00081EA030E52EA03354FEA013100F088807D
:1040F0004FEA03334FF0805545EA131343EA126346
:104100004FEA022245EA111545EA10654FEA0026FA
:104110000EF000419D4208BF964244F1FD0404F5B3
:10412000407402D25B084FEA3202B61A65EB03050F
:104130005B084FEA32024FF480104FF4002CB6EBCC
:10414000020E75EB030E22BFB61A754640EA0C004C
:104150005B084FEA3202B6EB020E75EB030E22BF8C
:10416000B61A754640EA5C005B084FEA3202B6EBCD
:10417000020E75EB030E22BFB61A754640EA9C008C
:104180005B084FEA3202B6EB020E75EB030E22BF5C
:10419000B61A754640EADC0055EA060E18D04FEA1A
:1041A000051545EA16754FEA06164FEAC30343EABA
:1041B00052734FEAC2025FEA1C1CC0D111F4801F87
:1041C0000BD141EA00014FF000004FF0004CB6E780
:1041D00011F4801F04BF01430020B4F1FD0C88BF1F
:1041E000BCF5E06F3FF6AFAEB5EB030C04BFB6EB2A
:1041F000020C5FEA500C50F1000041EB045170BD1D
:104200000EF0004E4EEA113114EB5C04C2BFD4EB49
:104210000C0541EA045170BD41F480114FF0000ECD
:10422000013C90E645EA060E8DE60CEA135594EA49
:104230000C0F08BF95EA0C0F3FF43BAF94EA0C0F4C
:104240000AD150EA01347FF434AF95EA0C0F7FF4C1
:1042500025AF104619462CE795EA0C0F06D152EA15
:1042600003353FF4FDAE1046194622E750EA4106F9
:1042700018BF52EA43067FF4C5AE50EA41047FF40A
:104280000DAF52EA43057FF4EBAE12E74FEA41026D
:10429000B2F1E04324BFB3F5001CDCF1FE5C0DD9A4
:1042A00001F0004C4FEAC0024CEA5070B2F1004FEE
:1042B00040EB830008BF20F00100704711F0804FF1
:1042C00021D113F13872BCBF01F00040704741F4B6
:1042D00080114FEA5252C2F11802C2F1200C10FABA
:1042E0000CF320FA02F018BF40F001004FEAC1239E
:1042F0004FEAD32303FA0CFC40EA0C0023FA02F342
:104300004FEA4303CCE77FEA625307D150EA013317
:104310001EBF4FF0FE4040F44000704701F00040E7
:1043200040F0FE4040F40000704700BF80F00040C5
:1043300002E000BF81F0004142001FBF5FEA41037D
:1043400092EA030F7FEA226C7FEA236C6AD04FEA7D
:104350001262D2EB1363C1BFD218414048404140C2
:10436000B8BF5B42192B88BF704710F0004F40F474
:10437000000020F07F4018BF404211F0004F41F490
:10438000000121F07F4118BF494292EA030F3FD05C
:10439000A2F1010241FA03FC10EB0C00C3F120036F
:1043A00001FA03F100F0004302D5494260EB4000FE
:1043B000B0F5000F13D3B0F1807F06D340084FEA69
:1043C000310102F10102FE2A51D2B1F1004F40EB5E
:1043D000C25008BF20F0010040EA030070474900C6
:1043E00040EB000010F4000FA2F10102EDD1B0FA91
:1043F00080FCACF1080CB2EB0C0200FA0CF0AABF86
:1044000000EBC25052421843BCBFD0401843704723
:1044100092F0000F81F4000106BF80F40000013229
:10442000013BB5E74FEA41037FEA226C18BF7FEA00
:10443000236C21D092EA030F04D092F0000F08BF42
:104440000846704790EA010F1CBF0020704712F029
:104450007F4F04D1400028BF40F00040704712F168
:1044600000723CBF00F50000704700F0004343F0CD
:10447000FE4040F4000070477FEA226216BF084603
:104480007FEA23630146420206BF5FEA412390EAC6
:10449000010F40F4800070474FF0000304E000BFBC
:1044A00010F0004348BF40425FEA000C08BF70476D
:1044B00043F0964301464FF000001CE050EA010231
:1044C00008BF70474FF000030AE000BF50EA010246
:1044D00008BF704711F0004302D5404261EB410133
:1044E0005FEA010C02BF84460146002043F0B64358
:1044F00008BFA3F18053A3F50003BCFA8CF2083A7D
:10450000A3EBC25310DB01FA02FC634400FA02FC85
:10451000C2F12002BCF1004F20FA02F243EB02008C
:1045200008BF20F00100704702F1200201FA02FCEE
:10453000C2F1200250EA4C0021FA02F243EB0200E1
:1045400008BF20EADC7070474FF0FF3C06E000BF78
:104550004FF0010C02E000BF4FF0010C4DF804CD0C
:104560004FEA40024FEA41037FEA226C18BF7FEA1C
:10457000236C11D001B052EA530C18BF90EA010F1E
:1045800058BFB2EB030088BFC81738BF6FEAE170AD
:1045900018BF40F0010070477FEA226C02D15FEA49
:1045A000402C05D17FEA236CE4D15FEA412CE1D0B5
:1045B0005DF8040B704700BF844608466146FFE77C
:1045C0000FB5FFF7C9FF002848BF10F1000F0FBD5E
:1045D0004DF808EDFFF7F4FF0CBF012000205DF857
:1045E00008FB00BF4DF808EDFFF7EAFF34BF0120DC
:1045F00000205DF808FB00BF4DF808EDFFF7E0FF75
:1046000094BF012000205DF808FB00BF4DF808EDC5
:10461000FFF7D2FF94BF012000205DF808FB00BF28
:104620004DF808EDFFF7C8FF34BF012000205DF80A
:1046300008FB00BF4FEA4002B2F1FE4F0FD34FF02C
:104640009E03B3EB12620DD94FEA002343F00043FF
:1046500010F0004F23FA02F018BF404270474FF0AD
:104660000000704712F1610F01D1420205D110F034
:10467000004008BF6FF0004070474FF000007047E7
:1046800070B50F4E0F4D761BB61018BF002405D025
:10469000013455F8043B9847A642F9D10A4E0B4D18
:1046A00000F048F9761BB61018BF002406D001347C
:1046B00055F8043B9847A642F9D170BD70BD00BFC4
:1046C0004C4900204C490020544900204C4900200E
:1046D00070B4860746D0541E002A41D0CAB20346A1
:1046E00002E014F1FF343BD303F8012B9D07F8D10E
:1046F000032C2ED9CDB245EA05250F2C45EA0545F8
:1047000019D9264603F11002103E0F2E42F8105C14
:1047100042F80C5C42F8085C42F8045C02F11002BA
:10472000F2D8A4F1100222F00F0204F00F041032AC
:10473000032C13440DD91E462246043A032A46F898
:10474000045BFAD8221F22F003020432134404F05F
:1047500003042CB1C9B21C4403F8011B9C42FBD1D9
:1047600070BC704714460346C2E700BF024B13B14A
:10477000024800F005B87047000000008D47002097
:10478000002301461A46184600F01EB838B50A4CF8
:104790000A4D641BA4100AD004F18043013B05EBD1
:1047A0008305013C55F804399847002CF9D1BDE840
:1047B000384000F0C5B800BF5849002054490020D7
:1047C000704700BF704700BF2DE9F8432C4D0646E7
:1047D000286898460F469146FFF7F2FF294B1C6860
:1047E000D4F84831002B3ED05A681F2A1CDC02F155
:1047F000010E76B1012103EB8204C4F88890D3F84E
:10480000880191400843022EC3F88801C4F808814A
:1048100023D00232C3F804E0286843F82270FFF77F
:10482000D1FF0020BDE8F883174B0BB34FF4C870DD
:10483000AFF300800346D8B10020D4F848114FF000
:10484000010E586019600246C4F84831C3F8880167
:10485000C3F88C01002EDCD0CCE7D3F88C010143E7
:10486000C3F88C11D5E704F5A673C4F84831BBE74B
:104870002868FFF7A7FF4FF0FF30BDE8F88300BFBF
:10488000B04D00203049002000000000000102046B
:104890000810204080010204081020408000000021
:1048A00000000000100000001800000020000000C0
:1048B0002800000030000000380000004000000028
:1048C0004800000050000000580000006000000098
:1048D0006800000070000000780000008000000008
:1048E0008800000000000000140000001C00000010
:1048F000240000002C000000340000003C000000F8
:10490000440000004C000000540000005C00000067
:10491000640000006C000000740000007C000000D7
:10492000840000008C00000000010001020203036B
:1049300088490020F8B500BFF8BC08BC9E46704707
:10494000F8B500BFF8BC08BC9E4670476D47002014
:10495000D5040020B1040020000000000000000089
:1049600000000000003B5808003B5808003B580876
:10497000C00E1602801D2C04003B5808003B58084E
:104980004B0000000200000000000000744C0020FA
:10499000DC4C0020444D002000000000000000001E
:1049A0000000000000000000000000000000000007
:1049B00000000000000000000000000000000000F7
:1049C00000000000000000000000000000000000E7
:1049D00000000000000000000000000000000000D7
:1049E00000000000000000000000000000000000C7
:1049F00000000000000000000000000000000000B7
:104A000000000000000000000000000000000000A6
:104A10000000000000000000000000000000000096
:104A20000000000000000000000000000000000086
:104A300001000000000000000E33CDAB34126DE623
:104A4000ECDE05000B00000000000000000000008C
:104A50000000000000000000000000000000000056
:104A60000000000000000000000000000000000046
:104A70000000000000000000000000000000000036
:104A80000000000000000000000000000000000026
:104DB000444F002000000000000000000000000040
:040000052000019145
:00000001FF
